:020000040800F2
:1000000000000220194B0008911600089316000802
:1000100095160008971600089916000800000000C1
:100020000000000000000000000000009B16000817
:100030009D160008000000009F160008A116000889
:10004000694B0008694B0008694B0008694B0008C0
:10005000694B0008694B0008694B0008694B0008B0
:10006000694B0008694B0008694B0008694B0008A0
:10007000694B0008694B0008694B0008694B000890
:10008000694B0008694B0008694B0008694B000880
:10009000694B0008694B0008694B0008694B000870
:1000A000694B0008694B0008694B0008694B000860
:1000B000694B0008694B0008694B0008694B000850
:1000C000694B0008694B0008694B0008694B000840
:1000D000694B0008694B0008694B0008694B000830
:1000E000694B0008694B000800000000694B0008DC
:1000F000694B0008694B0008694B0008694B000810
:10010000694B0008694B0008694B0008694B0008FF
:10011000694B0008694B0008694B0008694B0008EF
:10012000694B0008694B0008694B0008694B0008DF
:10013000694B0008694B0008694B0008694B0008CF
:1001400000000000000000000000000000000000AF
:10015000694B0008694B0008694B0008694B0008AF
:10016000694B0008694B0008694B0008694B00089F
:10017000694B0008694B0008694B0008000000004B
:10018000694B0008694B0008694B0008694B00087F
:10019000694B0008694B0008694B0008694B00086F
:1001A000694B0008694B0008694B0008000000001B
:1001B000694B0008694B0008694B0008694B00084F
:1001C000694B0008694B00080000000000000000B7
:1001D0000000000000000000694B00080000000063
:1001E000000000000000000000000000000000000F
:1001F0000000000000000000694B0008694B000887
:10020000694B0008694B000800000000694B0008BA
:10021000694B0008694B0008694B0008694B0008EE
:10022000694B000800000000694B00080000000056
:10023000694B0008694B000800000000694B00088A
:10024000694B0008694B0008694B0008694B0008BE
:10025000694B0008694B0008694B0008694B0008AE
:10026000694B0008694B0008694B0008694B00089E
:10027000694B0008694B0008694B0008000000004A
:10028000694B0008694B0008694B0008694B00087E
:1002900000000000694B0008694B000800000000E6
:1002A00000000000694B0008694B0008694B00081A
:1002B000694B0008694B0008694B0008694B00084E
:0C02C000694B0008694B0008694B0008FE
:1002D0000348044B834202D0034B03B118477047D5
:1002E0001000002010000020000000000548064912
:1002F000091A891001EBD171491002D0034B03B1E7
:100300001847704710000020100000200000000077
:1003100010B5064C237843B9FFF7DAFF044B13B14D
:100320000448AFF300800123237010BD10000020AB
:10033000000000006C4B000808B5044B1BB10449D9
:100340000448AFF30080BDE80840CFE7000000009C
:10035000140000206C4B000870B50D4E0D4D761B3F
:10036000B61006D00024013455F8043B9847A64245
:10037000F9D1094E094D761B04F0F8FBB61006D0F2
:100380000024013455F8043B9847A642F9D170BDCA
:100390007051000870510008745100087051000835
:1003A000F0B4860743D0541E002A3ED0CAB203469A
:1003B00002E014F1FF3438D303F8012B9D07F8D184
:1003C000032C2BD9CDB245EA05250F2C45EA05456E
:1003D00016D9A4F110073F0903F1200606EB071612
:1003E00003F1100242E9045542E902551032B242CB
:1003F000F8D104F00F040137032C03EB07130DD9D8
:100400001E462246043A032A46F8045BFAD8221F05
:1004100022F003020432134404F003042CB1C9B2E5
:100420001C4403F8011B9C42FBD1F0BC70471446EE
:100430000346C5E70000000000B5B0EE407B17EEB4
:10044000903A234A23F00043934285B01ADD214AB3
:10045000934204DD30EE400B05B05DF804FB6846C6
:1004600000F03AF800F00300012813D0022820D051
:10047000B8B19DED021B9DED000B00F079F9B1EED6
:10048000400BE9E700209FED101B00F04DFD05B08B
:100490005DF804FB9DED021B9DED000B00F068F97B
:1004A000DAE701209DED021B9DED000B00F03CFD05
:1004B000D2E701209DED021B9DED000B00F034FD05
:1004C000B1EE400BC8E700BF0000000000000000D4
:1004D000FB21E93FFFFFEF7F70B553EC102B9C49E8
:1004E00023F000468E4288B004466CDD99498E4266
:1004F0001D461BDC002B9FED867B6DDD30EE477BC0
:10050000A1F51B21A1F5F0618E4200F0DD809FED89
:10051000826B37EE465B37EE457B012037EE467B3C
:1005200084ED005B84ED027B08B070BD8A498E4289
:1005300066DD8A498E4200F3BF8010463215A2F272
:100540001642A6EB025141EC170B9FED754BBDEE29
:10055000C75B0023B8EEC55B37EE457B27EE047B17
:10056000BDEEC76B8DED025BB8EEC66B37EE467B1A
:1005700027EE047BB5EE407BF1EE10FA8DED046BB7
:100580008DED067B40F0AE80B5EE406BF1EE10FADB
:100590000CBF01230223724901910221009102A89C
:1005A000214600F075F9002D14DA94ED006B94EDFE
:1005B000027BB1EE466BB1EE477B84ED006B84EDC0
:1005C000027B404206E084ED000B00200021C4E9DC
:1005D0000201002008B070BD624930EE077B8E42F8
:1005E00079D09FED4D6B37EE065B37EE457B4FF0D4
:1005F000FF3037EE067B84ED005B84ED027BE9E79C
:1006000000F0EAFCB6EE006B9FED477BA0EE076BB7
:10061000FDEEC66B9FED3E3B16EE900A9FED3E7BD6
:100620001F28B8EEE65BB1EE454B25EE077BA4EE46
:10063000030B30EE476B19DC4B4B421E53F8223054
:10064000B34213D084ED006B30EE460B30EE470B17
:10065000002D84ED020BBDDAB1EE466BB1EE400B1E
:1006600084ED006B84ED020B4042B3E716EE903A46
:100670003615C3F30A53F31A102BE3DDB0EE403BFB
:100680009FED2B7B9FED2C6BA4EE073B30EE430BD5
:10069000A4EE070BB0EE407B95EE067B33EE476B86
:1006A00016EE903AC3F30A53F61A312E1CDCB0EE64
:1006B000430B84ED006BC7E730EE407B002084EDF8
:1006C000027B84ED007B85E79FED195B9FED1A6B44
:1006D00037EE457B1DE79FED165B9FED176B37EE01
:1006E000057B80E7032356E79FED156BB0EE430BC8
:1006F0009FED152BA4EE060B33EE407BA4EE067B9C
:1007000095EE027B30EE476B9CE700BFAFF30080B5
:1007100000004054FB21F93F3163621A61B4D03DBF
:10072000000000000000704183C8C96D305FE43FE5
:100730000000601A61B4D03D7370032E8A19A33B88
:100740000000002E8A19A33BC14920259A837B39DA
:10075000FB21E93F7BD90240FB213941FFFFEF7FBD
:10076000084C0008FB21F93F884B000800000000FE
:1007700010EE903A23F00043B3F1795F2CDAFDEEEE
:10078000C07B17EE903A002B5CD020EE007B9FEDF3
:10079000324B9FED335B9FED346BA7EE045B9FED17
:1007A000344BA7EE056B9FED345BA7EE064B9FED38
:1007B000346BA7EE045BA7EE056B26EE076B21EE0C
:1007C000400BB6EE005BA7EE060BB7EE006B97EEA4
:1007D000050B36EE400B70479FED1F4B20EE007B64
:1007E0009FED1F5B9FED206BA7EE045B9FED204B01
:1007F000A5EE076B244AA6EE074B9FED1F5B9FED0E
:10080000206BA4EE075B9342A5EE076B26EE076B09
:10081000D5DD1E4A934218DCB7EE005B0020A3F53D
:10082000001141EC140B35EE445B21EE400BB6EEAB
:10083000003BA7EE060B97EE034B34EE400B35EE74
:10084000400B7047B7EE000B7047B6EE075BB5EE96
:10085000024BEAE7AFF30080D43888BEE9FAA8BDBE
:10086000C4B1B4BD9EEE213EAD529C804F7E92BE7F
:100870009015CB19A001FA3E7751C1166CC156BF35
:100880004C5555555555A53F3233D33F0000E93FF0
:100890002DE9F04F2DED088BADF5137DBC4CA49EDA
:1008A000BC4D54F826600491D41E85FB0475E417F2
:1008B000C4EBA50424EAE47404F1010903F1FF3850
:1008C000A9EB890902EBC90916EB0802CDE901344D
:1008D0008646A4EB08031AD41A44511C9FEDA66B5C
:1008E0001AAAA5980AE050F8234007EE904A01336F
:1008F000B8EEE77B8B42A2EC027B08D0002BF2DA49
:10090000B0EE467B01338B42A2EC027BF6D1019B19
:10091000002E4FEAC3041DDB1AAB18196CAA7346EC
:10092000191902EBC6076AADF446B8F1000F9FED46
:10093000927B09DB02466346B3EC025B32ED026B4D
:100940008B42A5EE067BF7D1A5EC027BBD4200F100
:100950000800EAD14FEA860AAAF1080306AD9FED26
:10096000889B9FED898B05AAEB18B34600967444CB
:10097000924403936AAF764692AB03EBCB03BBF191
:10098000000F13ED280B14DD07EBCB02294620EEF8
:10099000097B32ED026BBDEEC77BBA42B8EEC77B76
:1009A000A7EE480BFDEEC05B37EE060BE1EC015AFB
:1009B000EDD1484600F0A4FBB0EE40ABB4EE000B26
:1009C0002AEE000B00F014FBB2EE007BA0EE47AB6A
:1009D000BDEECABBB9F1000FB8EECB7B3AEE47AB28
:1009E00040F3C2800BF1FF30C9F1180355F8202005
:1009F00042FA03F101FA03F3D31A45F820301BEE53
:100A0000100A0844C9F117020BEE100A43FA02F269
:100A1000002A2FDD1BEE103ABBF1000F03F101039A
:100A20000BEE103A40F32C822968002940F08380B5
:100A3000BBF1010F09D0AC4601205CF8041F431C38
:100A400000297AD19B451846F7D1B9F1000F0EDD88
:100A5000B9F1010F00F03B81B9F1020F07D10BF1A1
:100A6000FF3055F82030C3F3150345F82030022A33
:100A700000F01C81B5EE40ABF1EE10FA40F09C8026
:100A8000009B0BF1FF3C63450EDC0BF1804101390B
:100A900005EB8101002051F80439514540EA03007B
:100AA000F9D1002840F01C81009B013B55F8233010
:100AB000002B40F00A81039B012053F804290130E8
:100AC000002AFAD058440BF1010C844531DC029B1A
:100AD000019A0CEB03015A4403EB000B1AAB01F132
:100AE000804103EBC202A59B013903EB810107EBB7
:100AF000CC0C03EB8B0B51F8043F07EE103AB8EE29
:100B0000C77BB8F1000F02F1080E82ED007B9FED6C
:100B10001A6B09DB334601E032ED027BB3EC025B7A
:100B2000A342A5EE076BF7D15945ACEC026B7246B8
:100B3000E1D1834620E701230020C1F180719B456C
:100B400045F820100EDD55F8231005EB8B0C05EB56
:100B500083036FF07F4000E01968411A43F8041BDB
:100B60006345F9D1012170E716D10BF1FF3355F838
:100B70002320D2154CE700BF000000000000000059
:100B8000000000000000703E000000000000704106
:100B9000104D0008ABAAAA2AB6EE007BB4EEC7AB94
:100BA000F1EE10FA80F25681B5EE40ABF1EE10FA9C
:100BB0004FF000023FF464AF1346B0EE4A0BC9F1A8
:100BC0000000CDF804B0009E9B4600F099FA9FED1E
:100BD000CC6BB4EEC60BF1EE10FA019AC0F2528162
:100BE0009FEDC97B20EE077BBDEEC77B531CB8EEA3
:100BF000C75BA5EE460BBDEEC00B09F1180910EE60
:100C0000101A45F8221017EE102A45F82320B7EEE7
:100C1000000B4846009300F073FA009B002BC0F2D3
:100C200050816AAA4FEAC30C9FEDB76B02EB0C012F
:100C300005EB830201F10800043232ED017AAA4289
:100C4000B8EEC77B27EE007B20EE060B20ED027B83
:100C5000F3D19FEDAF4B0DF5847E0D46774603F142
:100C600001080024002EC0F20081B0EE446BAC48B5
:100C700029469FEDA97B002203E0A24208DCB0ECEC
:100C8000026BB1EC025B01329642A5EE067BF4DA10
:100C900001344445A7EC027BA5F10805E2D1A49AF2
:100CA000032A5FD8DFE802F0C234346AB7EE000BE3
:100CB00030EE4AAB00293FF4DDAE4846059200F025
:100CC0001FFA059A3AEE40ABD4E60120FAE60BF1A2
:100CD000FF3055F82030C3F3160345F82030C6E640
:100CE000934655F82C20009E6346A9F11809002A66
:100CF0008DD10CF18042013A05EB820252F80419C1
:100D0000013BA9F118090029F8D080E70DF5847E90
:100D1000002B9FED817B08DB0EEBC302083232ED26
:100D2000026B964537EE067BF9D1BBF1000F40F020
:100D3000B1809EED006B049A002B82ED007B36EEB5
:100D4000477B0CDD44A90122B1EC026B01329342D6
:100D500037EE067BF8DABBF1000F40F0A780049B6A
:100D600083ED027B1BEE103A03F007000DF5137DB7
:100D7000BDEC088BBDE8F08F0DF5847E002B40F3B1
:100D8000BB80D8000EEB000292ED005B03F1005136
:100D9000013932ED027B964537EE056B37EE467B27
:100DA00082ED006B37EE057BB0EE465B82ED027B99
:100DB000EFD1012B40F3A0807044C90090ED005B9F
:100DC00001F10803734444AA33ED027B9A4237EEE3
:100DD000056B37EE467B83ED006B37EE057BB0EE9F
:100DE000465B83ED027BEFD19FED4B7B10310EEB29
:100DF00001030EF1100233ED026B9A4237EE067BCF
:100E0000F9D19EED005B9EED026BBBF1000F50D05F
:100E1000049BB1EE455BB1EE466BB1EE477B83EDD3
:100E2000005B83ED026B83ED047B9BE79FED3A7BD8
:100E30000CF10803734433ED026B9E4537EE067BDD
:100E4000F9D1BBF1000F01D0B1EE477B049B83EDDC
:100E5000007B87E71BEE103ABBF1000F03F10103A3
:100E60000BEE103A42DD0222DEE59FED2B7B0134D2
:100E70004445A7EC027BA5F108057FF4F3AE0EE72D
:100E80000021E2E5BDEEC00B134610EE101A45F846
:100E90002210BCE69EED006BB1EE475B049A36EE85
:100EA000477B002B82ED005B3FF74CAFB1EE477BF9
:100EB00055E7049B83ED005B83ED026B83ED047BC0
:100EC00050E7A49A032A3FF64DAF01A151F822F052
:100ED000E10E00080D0D00080D0D0008790D000849
:100EE0009FED0D7BBBF1000FAED1AFE7B7EE007BFE
:100EF000022237EE4AABBDE59FED077B81E700BFDD
:100F00000000000000007041000000000000703E82
:100F100000000040FB21F93F00000000000000003D
:100F2000284D00080000000010EE903A23F0004326
:100F3000B3F1795F04DAFDEEC07B17EE903A23B38C
:100F400020EE007B20EE074B9FED155B9FED166BAF
:100F50009FED173BA7EE056B9FED175BA6EE073BDA
:100F60009FED176BA3EE075BA5EE076B70B126EE46
:100F7000446BB6EE003B9FED145BA1EE036B96EE67
:100F8000071BA4EE051B30EE410B70479FED105B75
:100F9000A7EE065BA5EE040B704700BFAFF3008021
:100FA0007CD5CF5A3AD9E53DEB9C2B8AE6E55ABE73
:100FB0007DFEB157E31DC73ED561C119A0012ABF0F
:100FC000A6F810111111813F495555555555C53F8A
:100FD000495555555555C5BF51EC100B10EE102A0B
:100FE00021F0004343EC102B704700BF00000000CD
:100FF00030B482B08DED000B01990098C1F30A5214
:10100000A2F2FF33132B0C461DDC002B3EDB3A4AC9
:101010001A4101EA020505431AD09FED357B9DED8B
:10102000006B36EE077BB5EEC07BF1EE10FA3ADDD1
:10103000002904DA4FF4801141FA03F31C4424EA36
:10104000020100202FE0332B07DDB3F5806F31D094
:101050009DED000B02B030BC7047A2F213424FF07E
:10106000FF3525FA02F20242F2D09FED217B9DED81
:10107000006B36EE077BB5EEC07BF1EE10FA12DDA9
:10108000002925DB20EA020021460CE09FED187BB9
:1010900030EE077BB5EEC07BF1EE10FA03DD0029E0
:1010A0000DDB002001460B46024643EC102B02B03C
:1010B00030BC70479DED007B37EE070BCAE721F08F
:1010C00000430E4A1843002818BF11460020EAE7E3
:1010D000142B08D00121C3F1340301FA03F31818CB
:1010E00028BF6418CEE70134CCE700BFAFF300801F
:1010F0009C7500883CE4377EFFFF0F000000F0BFC6
:1011000082B08DED000B019AC2F30A5323BB009B02
:1011100022F00042134329D09FED2F7B3A4B20EE63
:10112000077B98428DED007B32DB019AC2F30A53B4
:10113000363BC11840F2FE7399421BDC00292DDDBD
:1011400022F0FF40DDE9002320F4E00040EA0153F3
:1011500043EC102B02B0704740F2FF718B42E8D194
:101160009DED007B37EE070B02B070479DED000B45
:1011700002B070479FED1A0B9FED1B6BB0EE407BEA
:10118000019B002B20FE060B20EE070B02B07047E0
:101190009FED170B27EE000B02B0704711F1350FD2
:1011A00008DA4CF250339842E4DC9FED110B9FEDCE
:1011B000126BE3E722F0FF40DDE9002320F4E000BA
:1011C000363140EA01539FED0E7B43EC102B20EEAD
:1011D000070BCDE7AFF30080000000000000504394
:1011E0009C7500883CE4377E9C7500883CE437FEA3
:1011F00059F3F8C21F6EA50159F3F8C21F6EA581FD
:10120000000000000000903CB03CFFFF72B6FEE71B
:1012100000B5CBB04C22002137A8FFF7C1F820223F
:1012200000212FA8FFF7BCF8B422002102A8FFF785
:10123000B7F8022001F002FE002300933B4B9A69AD
:1012400022F440429A619B6903F440430093009B5F
:10125000364B9B6913F4005FFAD0354A936A23F04A
:10126000030343F002039362012237924FF4803369
:1012700038930223409341934293642143914492D3
:1012800004224592469308234793002348934993A9
:1012900037A800F075FA002841D13F232F9303218E
:1012A00030910023319308233293402333933493B6
:1012B0004FF48062359236932FA800F00DFE00287F
:1012C0002FD14FF00853029304230B936F230C93F9
:1012D00002230D930E9318230F934FF48063109302
:1012E0000023119312931023149302A801F04AF8DB
:1012F000C8B90F4B1A6842F080021A60D3F8F42084
:1013000042F00202C3F8F420D3F8F43003F00203F1
:101310000193019B01F038FE4BB05DF804FBFFF731
:1013200075FFFFF773FFFFF771FF00BF004802581A
:1013300000440258F8B501F0D3FDFFF769FF03F050
:101340004DF900F073F8642001F00AFE01224FF419
:101350000051314801F062FD03F0C0FA03F064FA75
:101360000C212E4802F026FE002210212C4801F00C
:1013700055FD0023B3F5887F11D30024254648E0AE
:10138000C3EB0310410111442648002444540132A8
:1013900092B2B2F5F07FF3D301339BB2EAE70022B9
:1013A000F7E7EF1822189210C0EB001671011944EC
:1013B00002EB27121B4E725401339BB2B3F5F07F40
:1013C000EFD3013080B2B0F5887F01D20023F5E77A
:1013D0000821134801F028FD102001F0C1FD02355D
:1013E000ADB2114BA3FB0523C3F34F1300EE103A2C
:1013F000B8EEC00BFFF720F830EE000B07EE904A76
:10140000B8EEE77B37EE007BBCEEC77B17EE103AF9
:101410009CB20020D7E700BF000C025890000020CB
:1014200000080258000000241F85EB5110B592B04F
:1014300000230C930D930E930F9310931193089325
:1014400009930A930B9303930493059306930793CD
:10145000019302933548364A026004224260836059
:101460004FF08062C26016220261012242618361F4
:10147000C36103620221416283624FF08054C462FF
:10148000016342638363C8220264C36301F0CAFE3E
:1014900000283BD101230C930D930E934FF00113C1
:1014A0000F9303F57F03109341F288320CA91F4874
:1014B00001F040FF68BB0323089306230993002330
:1014C0000A9301230B9341F2883208A9174801F0CF
:1014D000FFFD08BB002303934FF4405205924FF0E9
:1014E0000052079204930123069341F2883203A924
:1014F0000E4801F017FE90B900230193029301A951
:101500000A4801F053FE68B912B010BDFFF77EFE25
:10151000C0E7FFF77BFECEE7FFF778FEDAE7FFF7DD
:1015200075FEE9E7FFF772FEEEE700BF2C00002032
:10153000005000522DE9F0438BB000230593069331
:1015400007930893099302684C4B9A4202D00BB060
:10155000BDE8F0834A4BD3F8D42042F48042C3F86C
:10156000D420D3F8D42002F480420092009AD3F819
:10157000E02042F00102C3F8E020D3F8E02002F0BE
:1015800001020192019AD3F8E02042F00402C3F86C
:10159000E020D3F8E02002F004020292029AD3F88D
:1015A000E02042F00202C3F8E020D3F8E02002F08D
:1015B00002020392039AD3F8E02042F01002C3F82B
:1015C000E020D3F8E03003F010030493049B4023A1
:1015D0000593022506950324089406230993DFF852
:1015E000AC8005A9404601F02FFB802305930695AA
:1015F0000026079608940A27099705A9404601F096
:1016000023FB20230593069507960894099705A9BF
:101610001C4801F019FB05940695079608944FF0B5
:101620000409CDF8249008F5806805A9404601F02A
:101630000BFBCDF81490069507960894092309939F
:1016400005A9404601F000FB4FF4F06305930695B1
:101650000796089409970C4F05A9384601F0F4FA4B
:101660004FF4006305930695079608940B2309939E
:1016700005A9384601F0E8FA69E700BF00500052BA
:101680000044025800080258001002580000025896
:10169000FEE7FEE7FEE7FEE7FEE7704770477047AC
:1016A00008B501F04BFC08BD82B0074BD3F8F4201D
:1016B00042F00202C3F8F420D3F8F43003F002033E
:1016C0000193019B02B07047004402580649CB6861
:1016D00023F4E0631B041B0C000200F4E0600343EE
:1016E000024A1A43CA60704700ED00E00000FA05A4
:1016F00030B4154BDB68C3F30223C3F10704042C99
:1017000028BF04241D1D062D14D9033B4FF0FF35BF
:1017100005FA04F421EA0401994005FA03F322EAE8
:1017200003031943002807DB0901C9B2074B195409
:1017300030BC70470023E9E700F00F000901C9B28F
:10174000034B1954F4E700BF00ED00E000E400E0B3
:1017500014ED00E00138B0F1807F0AD2064B5860EA
:10176000064AF02182F823100020986007221A60B0
:1017700070470120704700BF10E000E000ED00E07E
:10178000002800F09D8238B50446036813F0010F6D
:1017900025D09E4A136903F03803926A102B15D0A6
:1017A000182B0FD06368B3F5803F3DD0002B51D18B
:1017B000964B1A6822F480321A601A6822F480224A
:1017C0001A6036E002F00302022AEBD18F4B1B684D
:1017D00013F4003F03D06368002B00F0738223688A
:1017E00013F0020F70D0894A1369926A13F038031C
:1017F00059D0182B54D0E368002B00F09280834915
:101800000A6822F0190213430B6001F0A3FB05469E
:101810007E4B1B6813F0040F7AD101F09BFB401B39
:101820000228F5D9032052E2784A136843F4803342
:10183000136063682BB301F08DFB0546734B1B6887
:1018400013F4003FCBD101F085FB401B6428F5D990
:1018500003203CE2B3F5A02F09D06C4B1A6822F4A8
:1018600080321A601A6822F480221A60E1E7674B1E
:101870001A6842F480221A601A6842F480321A60B0
:10188000D7E701F067FB0546604B1B6813F4003F88
:10189000A5D001F05FFB401B6428F5D9032016E2B8
:1018A00012F0030FA7D1594B1B6813F0040F03D09C
:1018B000E368002B00F00882544A536823F0FE438B
:1018C000216943EA01635360236813F0100F52D07B
:1018D0004E4A136903F03803926A082B39D0182B4B
:1018E00033D0E369002B69D0484A136843F0800382
:1018F000136001F02FFB0546444B1B6813F4807FF7
:1019000053D101F027FB401B0228F5D90320DEE16B
:101910003E4A536823F0FE43216943EA0163536062
:10192000D2E73A4A136823F00103136001F012FB77
:101930000546364B1B6813F0040FC5D001F00AFBB7
:10194000401B0228F5D90320C1E102F00302012A5D
:10195000C7D12E4B1B6813F4807F04D0E369802B22
:1019600001D00120B3E1294AD36823F07C53216AD6
:1019700043EA0163D360236813F0080F48D063691A
:1019800083B3224A536F43F00103536701F0E2FA35
:1019900005461E4B5B6F13F0020F39D101F0DAFAE6
:1019A000401B0228F5D9032091E1184AD36823F09F
:1019B0007C53216A43EA0163D360DCE7134A13686E
:1019C00023F08003136001F0C5FA05460F4B1B6836
:1019D00013F4807FCFD001F0BDFA401B0228F5D967
:1019E000032074E1094A536F23F00103536701F0A8
:1019F000B1FA0546054B5B6F13F0020F08D001F0FA
:101A0000A9FA401B0228F5D9032060E100440258DE
:101A1000236813F0200F29D0A3699BB1AF4A136844
:101A200043F48053136001F095FA0546AB4B1B68F5
:101A300013F4005F1AD101F08DFA401B0228F5D98A
:101A4000032044E1A54A136823F48053136001F096
:101A500081FA0546A14B1B6813F4005F06D001F024
:101A600079FA401B0228F5D9032030E1236813F0EE
:101A7000040F21D1636A002B00F02881974A126974
:101A800002F03802182A00F0EA80022B75D0934A3F
:101A9000136823F08073136001F05CFA04468F4BE7
:101AA0001B6813F0007F00F0D88001F053FA001B90
:101AB0000228F4D903200AE1894A136843F48073A9
:101AC000136001F047FA0546854B1B6813F4807FCD
:101AD00006D101F03FFA401B6428F5D90320F6E057
:101AE000A368012B0AD00BBB7C4B1A6F22F00102BA
:101AF0001A671A6F22F004021A6704E0774A136F1C
:101B000043F001031367A36833B301F023FA0546DA
:101B1000724B1B6F13F0020FACD101F01BFA401B8C
:101B200041F288339842F3D90320D0E0052B09D045
:101B30006A4B1A6F22F001021A671A6F22F0040230
:101B40001A67E0E7654B1A6F42F004021A671A6FD2
:101B500042F001021A67D6E701F0FCF905465F4B37
:101B60001B6F13F0020F85D001F0F4F9401B41F216
:101B700088339842F3D90320A9E0584A136823F028
:101B80008073136001F0E6F90546544B1B6813F0AF
:101B9000007F06D001F0DEF9401B0228F5D90320B2
:101BA00095E04E4B996A4F4A0A40A16AE06A41EAC1
:101BB00000110A439A62226B013AC2F30802616B78
:101BC0000139490289B20A43A16B0139090401F4C0
:101BD000FE010A43E16B0139090601F0FE410A43A7
:101BE0001A63DA6A22F00102DA62596B3E4A0A404D
:101BF000A16C42EAC1025A63DA6A22F00C02216C3B
:101C00000A43DA62DA6A22F00202616C0A43DA629B
:101C1000DA6A42F48032DA62DA6A42F40032DA6274
:101C2000DA6A42F48022DA62DA6A42F00102DA62A7
:101C30001A6842F080721A6001F08CF90446274B52
:101C40001B6813F0007F06D101F084F9001B022805
:101C5000F5D903203BE0002039E0002037E01F4A9F
:101C6000916A106B012B33D001F00303A26A9342F7
:101C700001D001202BE0C1F30511E36A994201D0A4
:101C8000012024E0C0F30802236B013B9A4201D0FB
:101C900001201CE0C0F34622636B013B9A4201D055
:101CA000012014E0C0F30642A36B013B9A4211D11C
:101CB000C0F30660E36B013B98420DD0012006E0C3
:101CC00001207047012002E0012000E0002038BD23
:101CD0000120FCE70120FAE70020F8E70044025861
:101CE000004802580CFCFFFF0700FFFF724B1B6906
:101CF00003F03803102B00F0DB80182B10D00BB151
:101D00006E4870476C4B1B6813F0200F00F0D280B8
:101D1000694B1868C0F3C100694B23FA00F07047A3
:101D2000654A916A01F00301906AC0F30510D36A15
:101D300003F00103526BC2F3CC0203FB02F307EE84
:101D4000903AF8EE677A002800F0B580012966D055
:101D5000F9B1022900F08F8007EE100AF8EE476A09
:101D60009FED586A86EE267A534B1B6BC3F308032C
:101D700006EE903AF8EE666A9FED536A67EE867A51
:101D800076EEA77AF7EE006A77EEA67A27EE277A44
:101D900061E0494B1B6813F0200F23D046490A68C5
:101DA000C2F3C102464BD34007EE103AF8EE476A41
:101DB00007EE100AB8EE476A86EE867A0B6BC3F31D
:101DC000080306EE903AF8EE666A9FED3F6A67EE0A
:101DD000867A76EEA77AF7EE006A77EEA67A27EE95
:101DE000277A38E007EE100AF8EE476A9FED376A67
:101DF00086EE267A304B1B6BC3F3080306EE903A4F
:101E0000F8EE666A9FED306A67EE867A76EEA77A1C
:101E1000F7EE006A77EEA67A27EE277A1BE007EE48
:101E2000100AF8EE476A9FED276A86EE267A224B63
:101E30001B6BC3F3080306EE903AF8EE666A9FED5B
:101E4000226A67EE867A76EEA77AF7EE006A77EE78
:101E5000A67A27EE277A184B1B6BC3F34623013370
:101E600007EE903AF8EE677AC7EE276AFCEEE67A5C
:101E700017EE900A704707EE100AF8EE476A9FEDDA
:101E8000146A86EE267A0C4B1B6BC3F3080306EE2E
:101E9000903AF8EE666A9FED0C6A67EE867A76EE07
:101EA000A77AF7EE006A77EEA67A27EE277AD2E7CE
:101EB00008487047024870470044025800093D0036
:101EC0000090D0030024744A000000390024744CB0
:101ED0000024F44A00127A00002800F036810346FC
:101EE0009C4A126802F00F028A420CD2994802689A
:101EF00022F00F020A430260026802F00F028A42D7
:101F000001D00120704770B51A6812F0040F0CD090
:101F10001869914A926902F07002904205D98E4C7C
:101F2000A26922F070021043A0611A6812F0080F33
:101F30000CD05869884AD26902F07002904205D9E3
:101F4000854CE26922F070021043E0611A6812F0D9
:101F5000100F0CD09869804AD26902F4E062904276
:101F600005D97D4CE26922F4E0621043E0611A6811
:101F700012F0200F0CD0D869774A126A02F0700272
:101F8000904205D9744C226A22F0700210432062FC
:101F90001A6812F0020F0CD0D8686F4A926902F0EA
:101FA0000F02904205D96C4CA26922F00F02104337
:101FB000A0611C460D461B6813F0010F41D0664A14
:101FC000936923F47063A1680B4393616368022BE8
:101FD0000AD0032B27D0012B2CD05F4A126812F0B5
:101FE000040F06D10120AFE0126812F4003F00F0A8
:101FF000AE8059490A6922F0070213430B6100F0D1
:10200000A9FF0646544B1B6903F038036268B3EB23
:10201000C20F16D000F09EFF801B41F28833984219
:10202000F0D9032090E04C4A126812F0007FE0D112
:10203000012089E0484A126812F4807FD9D101203A
:1020400082E0236813F0020F0CD0E268424B9B69D8
:1020500003F00F039A4205D23F498B6923F00F0327
:102060001A438A613B4B1B6803F00F03AB420CD948
:10207000384A136823F00F032B431360136803F0EF
:102080000F03AB4201D001205EE0236813F0040F80
:102090000CD02269304B9B6903F070039A4205D241
:1020A0002D498B6923F070031A438A61236813F06A
:1020B000080F0CD06269284BDB6903F070039A4269
:1020C00005D22549CB6923F070031A43CA612368FE
:1020D00013F0100F0CD0A2691F4BDB6903F4E0630F
:1020E0009A4205D21C49CB6923F4E0631A43CA61C2
:1020F000236813F0200F0CD0E269174B1B6A03F022
:1021000070039A4205D214490B6A23F070031A43F4
:102110000A62FFF7EBFD10498B69C3F303230F4AF3
:10212000D35C03F01F03D8408B6903F00F03D35C2B
:1021300003F01F0320FA03F3094A1360094B1860E8
:10214000094B186800F0A4FE70BD01207047012003
:10215000FAE700BF0020005200440258604D00081A
:102160000C0000200800002004000020404B9B6A67
:1021700003F00303032B79D070B50E4604463C4AA6
:10218000136823F08063136000F0E4FE0546384BCB
:102190001B6813F0006F06D000F0DCFE401B022825
:1021A000F5D9032070BD324B9A6A22F47C32216843
:1021B00042EA01329A626268013AC2F30802A168F7
:1021C0000139490289B20A43E1680139090401F47D
:1021D000FE010A4321690139090601F0FE410A4363
:1021E0009A63DA6A22F0C00261690A43DA62DA6A43
:1021F00022F02002A1690A43DA62DA6A22F01002B0
:10220000DA62D96B1B4A0A40E16942EAC102DA6329
:10221000DA6A42F01002DA62C6B91A46DB6A43F49F
:102220000023D362124A136843F08063136000F006
:1022300091FE04460E4B1B6813F0006F14D100F0A2
:1022400089FE001B0228F5D90320ABE7012E05D03B
:10225000074AD36A43F40013D362E3E7044AD36A1C
:1022600043F48013D362DDE700209BE70120704731
:10227000004402580700FFFF404B9B6A03F0030332
:10228000032B79D070B50E4604463C4A136823F000
:102290008053136000F05EFE0546384B1B6813F058
:1022A000005F06D000F056FE401B0228F5D903203F
:1022B00070BD324B9A6A22F07C72216842EA015268
:1022C0009A626268013AC2F30802A16801394902C0
:1022D00089B20A43E1680139090401F4FE010A43A5
:1022E00021690139090601F0FE410A431A64DA6ADC
:1022F00022F4406261690A43DA62DA6A22F4007207
:10230000A1690A43DA62DA6A22F48072DA62596CED
:102310001B4A0A40E16942EAC1025A64DA6A42F49D
:102320008072DA62C6B91A46DB6A43F48003D3626C
:10233000124A136843F08053136000F00BFE04460A
:102340000E4B1B6813F0005F14D100F003FE001B5E
:102350000228F5D90320ABE7012E05D0074AD36A3E
:1023600043F08073D362E3E7044AD36A43F4000383
:10237000D362DDE700209BE701207047004402584C
:102380000700FFFFF8B50446036813F0006F2BD079
:10239000036EB3F5801F18D007D9B3F5001F1DD009
:1023A000B3F5401F2ED1002506E05BBBA04AD36ADF
:1023B00043F40033D36200259D4A136D23F4401388
:1023C000216E0B431365002610E002210430FFF755
:1023D000CDFE0546002DEFD02E4607E00221243029
:1023E000FFF74AFF0546F5E700263546236813F454
:1023F000807F17D0636D042B35D8DFE803F0062704
:102400002D0B0B0001263546F0E7894AD36A43F4C9
:102410000033D36255BB864A136D23F00703616D09
:102420000B431365236813F4806F3BD0D4F8A030BE
:10243000B3F5800F4AD01BD833B3B3F5001F20D1BA
:102440000021201DFFF792FE054622E00021201DFD
:10245000FFF78CFE0546DDE7002104F12400FFF7BD
:102460000BFF0546D6E701263546DBE72E46D9E7C2
:10247000B3F5000F0DD0B3F5200F0AD0B3F5C00FA0
:1024800007D0012635460DE0694AD36A43F400338C
:10249000D36215BB664A936D23F46003D4F8A01091
:1024A0000B439365236813F4006F32D0D4F8A43043
:1024B000B3F1007F3AD012D8EBB1B3F1807F17D1DE
:1024C0000021201DFFF752FE054619E0002104F10E
:1024D0002400FFF7D1FE0546DBE72E46E2E7B3F125
:1024E000806F0DD0B3F1A06F0AD0B3F1407F07D059
:1024F000012635460DE04E4AD36A43F40033D362D9
:10250000DDB94B4A936D23F0E063D4F8A4100B437C
:102510009365236813F0007F2AD0A36C102B12D090
:102520000DD9202B1DD0302B12D009E0002104F151
:102530002400FFF7A1FE0546E2E72E46E9E73BB19E
:102540000126354614E03A4AD36A43F40033D36295
:102550006DB9374AD36C23F03003A16C0B43D364BD
:1025600006E00221201DFFF701FE0546F0E72E469A
:10257000236813F4805F24D0A36DB3F5005F3BD0D4
:1025800009D88BB1B3F5805F0BD10021201DFFF777
:10259000EDFD05460DE0B3F5405F0AD0B3F5804F81
:1025A00007D0012635460CE0214AD36A43F40033B4
:1025B000D36245BB1E4A136D23F4E043A16D0B4368
:1025C0001365236813F4005F35D0E36DB3F5003F66
:1025D00027D01AD83BB1B3F5803F1FD10121201D70
:1025E000FFF7C4FD05462DBB114A136D23F4E0230C
:1025F000E16D0B4313651EE0002104F12400FFF799
:102600003BFE0546D5E72E46DBE7B3F5802FEAD043
:10261000B3F5A02FE7D0B3F5403FE4D0012635460F
:1026200009E0012104F12400FFF726FE0546DAE760
:10263000004402582E46236813F4804F2CD0D4F85F
:10264000A830B3F1005F1FD012D83BB1B3F1805F67
:1026500017D10121201DFFF789FD0546DDB9944AF8
:10266000936D23F0E043D4F8A8100B43936513E077
:10267000B3F1804FF2D0B3F1A04FEFD0B3F1405F90
:10268000ECD00126354607E0012104F12400FFF7D4
:10269000F3FD0546E2E72E46236813F4004F1FD0F2
:1026A000A36EB3F1805F06D0B3F1005F11D03BB1F0
:1026B0000126354614E07E4AD36A43F40033D362E0
:1026C0006DB97B4A136D23F04053A16E0B43136524
:1026D00006E00121201DFFF749FD0546F0E72E46E3
:1026E000236813F0807F1ED0636C032B17D8DFE8BC
:1026F00003F0070210076E4AD36A43F40033D36233
:1027000085B96B4AD36C23F00303616C0B43D3642C
:1027100009E00221201DFFF729FD0546F0E701260B
:10272000354600E02E46236813F4800F1FD123683E
:1027300013F0010F00F09880636F282B00F2908057
:10274000DFE803F07E8E8E8E8E8E8E8E798E8E8E4C
:102750008E8E8E8E878E8E8E8E8E8E8E7E8E8E8EB0
:102760008E8E8E8E7E8E8E8E8E8E8E8E7E00514AB8
:10277000136843F48073136000F0ECFB07464D4B85
:102780001B6813F4807F05D100F0E4FBC01B6428B4
:10279000F5D90325002D4AD1454B1B6FD4F8AC2049
:1027A000534013F4407F0CD0414B1A6F22F4407217
:1027B000196F41F480311967196F21F4803119675D
:1027C0001A67D4F8AC30B3F5807F15D08DBBD4F840
:1027D000AC3003F44072B2F5407F1ED0344A136926
:1027E00023F47C53136132490B6FD4F8AC20C2F34D
:1027F0000B0213430B679AE700F0ACFB07462C4B28
:102800001B6F13F0020FE1D100F0A4FBC01B41F2DB
:1028100088339842F3D90325D8E72548026922F482
:102820007C52254901EA131313430361DBE72E466B
:102830007DE72E467BE70121201DFFF797FC05462B
:102840008DB91B4A536D23F03803616F0B435365F9
:102850000AE0012104F12400FFF70EFD0546EFE731
:102860000126354600E02E46236813F0020F26D0DD
:10287000236F052B19D8DFE803F0080311080808B7
:102880000121201DFFF772FC0546BDB9084A536DB2
:1028900023F00703216F0B43536510E0012104F17E
:1028A0002400FFF7E9FC0546EFE70126354606E080
:1028B0000044025800480258CFFFFF002E4623680C
:1028C00013F0040F22D0D4F88C30052B1AD8DFE88F
:1028D00003F00803120808080121201DFFF746FC39
:1028E000054695B9AE4A936D23F00703D4F88C10D2
:1028F0000B4393650AE0012104F12400FFF7BCFCBF
:102900000546EEE70126354600E02E46236813F023
:10291000200F2CD0D4F88830B3F1005F1FD012D82C
:102920003BB1B3F1805F17D10021201DFFF71EFCE2
:102930000546DDB99A4A536D23F0E043D4F8881078
:102940000B43536513E0B3F1804FF2D0B3F1A04FC6
:10295000EFD0B3F1405FECD00126354607E002210D
:1029600004F12400FFF788FC0546E2E72E462368C1
:1029700013F0400F2CD0D4F89430B3F5006F1FD073
:1029800012D83BB1B3F5806F17D10021201DFFF79E
:10299000EDFB0546DDB9824A936D23F4E053D4F88C
:1029A00094100B43936513E0B3F5805FF2D0B3F559
:1029B000A05FEFD0B3F5406FECD00126354607E0BD
:1029C000022104F12400FFF757FC0546E2E72E46FA
:1029D000236813F0800F2CD0D4F89830B3F5804FD3
:1029E0001FD012D83BB1B3F5005F17D10021201DD5
:1029F000FFF7BCFB0546DDB9694A936D23F46043DC
:102A0000D4F898100B43936513E0B3F5004FF2D060
:102A1000B3F5204FEFD0B3F5C04FECD001263546CB
:102A200007E0022104F12400FFF726FC0546E2E757
:102A30002E46236813F0080F0AD0E36FB3F5805FCA
:102A400027D0574A536D23F44053E16F0B4353652E
:102A5000236813F0100F0CD0D4F89030B3F5807FBA
:102A600020D04F4A936D23F44073D4F890100B4359
:102A70009365236813F4002F34D0D4F89C30B3F559
:102A8000803F27D0B3F5003F1AD0A3B101263546C9
:102A900028E0022104F12400FFF7EEFB0028D0D04B
:102AA0000126CEE7022104F12400FFF7E5FB002810
:102AB000D7D00126D5E70021201DFFF757FB05469B
:102AC0007DB9374A936D23F44033D4F89C100B43FF
:102AD000936507E0022104F12400FFF7CDFB0546D2
:102AE000EEE72E46236813F4802F24D0D4F88030EC
:102AF000B3F5001F17D0B3F5401F0AD0B3F5801F00
:102B000002D00126354616E0254AD36A43F4003345
:102B1000D3627DB9224A536D23F44013D4F8801058
:102B20000B43536507E0012104F12400FFF7A4FBE8
:102B30000546EEE72E46236813F4803F14D0E36C7D
:102B40002BB1B3F5803F23D0012635460CE0144A63
:102B5000D36A43F40033D36205BB114AD36C23F428
:102B60008033E16C0B43D364236813F0005F19D109
:102B7000236813F4003F2FD0A36FB3F5807F1DD0DF
:102B800019D9B3F5007F1ED0B3F5407F14D11AE0F8
:102B90000221201DFFF7EAFA0546DDE72E46E3E7AE
:102BA00000440258022104F12400FFF765FB0028CD
:102BB000DED00126DCE733B101260DE0214AD36ADD
:102BC00043F40033D362002D31D11E4A536D23F4F8
:102BD0004073A16F0B435365236813F4801F06D025
:102BE000184A136D23F00043E16E0B43136523680D
:102BF00013F4001F06D0134A136D23F08073616E27
:102C00000B431365236813F0804F09D00D4B1A69ED
:102C100022F400421A611A69D4F8B0100A431A610A
:102C20002368002B05DB06B101263046F8BD2E4691
:102C3000D2E7044AD36C23F04053216D0B43D36495
:102C4000F1E700BF00440258F0B583B000233AE03A
:102C5000092400E00024B4403C4302356B4E46F8A2
:102C600025406B4C2568D44304EA05064F6817F4E9
:102C7000803F01D042EA0506654D2E606E6804EA89
:102C800006054F6817F4003F01D042EA0605604E82
:102C900075604FF0B0452D6804EA05064F6817F4DB
:102CA000801F01D042EA05064FF0B0452E606D68E6
:102CB0002C404E6816F4001F01D042EA05044FF084
:102CC000B042546001330A6832FA03F400F09C8089
:102CD00001249C402240F5D04D686E1E112D18BF76
:102CE000012E01D9122D12D186685F000325BD4047
:102CF00026EA0506CD68BD4035438560466826EA6C
:102D000004064D68C5F300149C4034434460C66813
:102D10005F000325BD40EC4326408D68BD40354330
:102D2000C5604D68122D18BF022D13D1DE0808367C
:102D300050F826E003F007054FEA850C0F2505FA49
:102D40000CF52EEA050E0D6905FA0CF545EA0E059F
:102D500040F82650056825404C6804F00304BC4048
:102D60002C4304604C6814F0805FABD0294CD4F83D
:102D7000F45045F00205C4F8F450D4F8F44004F0DF
:102D800002040194019C9D08AE1C204C54F826704E
:102D900003F00304A6000F24B44027EA04071E4CE6
:102DA000A0423FF457AF04F58064A0421ED004F562
:102DB0008064A0421CD004F58064A0421AD004F5BF
:102DC0008064A04218D004F58064A04216D004F5B7
:102DD0008064A04214D004F58064A04212D004F5AF
:102DE0000064A0423FF434AF0A2434E7012432E700
:102DF000022430E703242EE704242CE705242AE7E5
:102E0000062428E7072426E703B0F0BD0004005895
:102E100080000058004402580000025812B909040A
:102E20008161704781617047436931EA030301D0D2
:102E3000816170470904816170470000134BDB68B2
:102E400013F0040F07D1114BDB6803F00703834233
:102E50001AD00120704710B50C4AD36823F007033D
:102E60001843D06000F076F80446084B5B6813F412
:102E7000005F07D100F06EF8001BB0F57A7FF4D93F
:102E8000012000E0002010BD0020704700480258DB
:102E9000104B1B780BB90120704710B504464FF456
:102EA0007A70B0FBF3F30C4A1068B0FBF3F0FEF756
:102EB00051FC68B90F2C01D901200AE000222146FB
:102EC0004FF0FF30FEF714FC044B1C60002000E0C4
:102ED000012010BD00000020080000200400002098
:102EE00010B50320FEF7F2FBFEF700FF0F498B69D8
:102EF000C3F303230E4AD35C03F01F03D8408B694E
:102F000003F00F03D35C03F01F0320FA03F3094A15
:102F10001360094B18600020FFF7BAFF10B10124BD
:102F2000204610BD0446FEF7BFFBF9E700440258F7
:102F3000604D00080C00002008000020034B1B78A7
:102F4000034A11680B441360704700BF0000002063
:102F50008C000020014B1868704700BF8C000020D7
:102F600038B50446FFF7F6FF0546B4F1FF3F02D03F
:102F7000044B1B781C44FFF7EDFF401BA042FAD323
:102F800038BD00BF00000020024A136A43F001036D
:102F90001362704700040058431EDBB2012B01D9B5
:102FA00001207047002965D010B400230B604B60EE
:102FB0008B60CB600B61022802D00024002213E05A
:102FC0002D4B1B6813F0010F01D12C4CF6E74FF489
:102FD0000074F3E7501C40F08070C86036E0531C6A
:102FE00043F080730B610132012A3FD89000244BDB
:102FF0001B5813F0010F06D084EA030010F0020FF3
:1030000001D1501C086013F0100F06D084EA0300B1
:1030100010F0200F01D1501C486013F4807F06D0BF
:1030200084EA030010F4007F01D1501C886013F47F
:10303000803F0BD084EA030010F4802F06D113F4F4
:10304000003FC7D1501C40F48030C86013F0807F2F
:10305000C9D084EA030010F0806FC4D113F0007F60
:10306000BDD1531C43F480330B61BCE700205DF8F5
:10307000044B70470120704700B400522202040440
:1030800004B400522DE9F04105460F461646984615
:10309000069C2B681B6A3B4214BF01230023B342EA
:1030A00013D0B4F1FF3FF4D0FFF754FFA0EB0800BA
:1030B000A04201D8002CECD14FF400736B65AB6DCE
:1030C00043F00103AB65012000E00020BDE8F08182
:1030D00070B582B004460D461646FFF73BFF626DA1
:1030E000013A012A05D91023A3650123184602B02D
:1030F00070BD00960346002220212046FFF7C2FF44
:1031000003460028F2D129686A68120242EA0142A5
:10311000A9680A43E86821680243C1F80022022234
:103120006265E3E770B582B004460D461646FFF7C8
:1031300011FF626D022A05D01023A36501231846F2
:1031400002B070BDE368B3F1806FF5D1009603461D
:10315000002220212046FFF795FF03460028EED1EC
:1031600021680A6822F040520A6021688A6822F0C9
:103170008072286802438A602A69A9680A43216824
:1031800042F00C22C1F800212A69A9680A4321688B
:1031900042F00C22C1F88021EA682168013A0A64F1
:1031A00022686968916404226265C8E730B583B01B
:1031B00004460D46FFF7CEFE626D042A05D01023AB
:1031C000A3650123184603B030BDE36D00930346A9
:1031D000002220212046FFF755FF03460028F1D1A9
:1031E000882262652A68082A09D0216808680A4A84
:1031F00002402868024342F040520A60E2E7226837
:103200006968C2F8301122681021516221680A6889
:1032100042F480120A60E8E7F7FFFFCFC1650020A3
:103220007047000030B583B00446FFF793FE002CD2
:103230007CD005460023A365636D1BB100231846AF
:1032400003B030BD2046FEF775F941F288312046C3
:10325000FFF7E4FF20688368354A1A40E368216974
:10326000013943EA01436169013943EA0123616B92
:1032700043EA0113A16B0B43E1690B4313438360E2
:103280002268D36823F4E023216A0B43D360216BC7
:10329000E36B226843EA014313612368226C5A619D
:1032A00021680B6823F4F8536268013A43EA022369
:1032B0000B60E36D00932B46002220212046FFF790
:1032C000E1FE03460028BAD12068C26822F0FF025E
:1032D000616A01390A43C26021680A6822F040022B
:1032E000A06802430A602068D0F8082122F0A042BA
:1032F000A16AE56A29430A43C0F8082121680A68DF
:1033000042F001020A60A269022A06D0E268B2F124
:10331000806F08D00222626591E721688A6842F0D6
:1033200002028A60F2E70122626588E7012386E7EC
:1033300084F8E0F82DE9F0438DB081460D4602682F
:10334000BA4B9A4205D04FF00008012600231F46D1
:1033500004E04FF001080026F8E72346012B0FD8C0
:103360005C1CE4B203EB4303D90069442046FFF739
:1033700013FE0028F1D00823C9F858300127ECE7E4
:10338000002F40F01381A94B1B6813F0010F00F0D0
:103390001181A64A136823F0010313600121A44B95
:1033A0001B6813F0010F06D0A14A136823F0010334
:1033B000136041F0020172003244D3000CAA13449E
:1033C00053F8283C013B9B4800EB83035A6822F4E6
:1033D00080725A60036813F0010F00F02D810368BA
:1033E00023F001030360B8F1000F40F0E580D5F849
:1033F00000C040464FEA48024244D3000CAA13449E
:1034000053F8303C9C4528D06A684FEA4804A044F1
:103410004FEAC804A0460DF1300E744454F82C4C09
:10342000A2421AD0AA6844460DF1300E744454F8F2
:10343000284CA24211D0EA6844460DF1300E744483
:1034400054F8244CA24208D02A6944460DF1300EAB
:10345000744454F8204CA24241D19C4500F0238191
:10346000013B744A02EB83035C6824F001045C6056
:103470004FEA400C0CEB0004E3000CAC234453F87F
:103480002C4C013C02EB8404D4F804E02EF0100E26
:10349000C4F804E053F8284C013C02EB8404D4F84F
:1034A00004E02EF4807EC4F804E053F8243C013B91
:1034B00003F0010302EB83035C6824F480345C6056
:1034C0006044C3000CA8034453F8203C013B03F0C4
:1034D000010302EB8302536823F080735360AA68F0
:1034E000013A544800EB8202536823F4407343EAE4
:1034F000462343F4807353606B69013B0268C2F357
:103500000742934205D9026822F47F0242EA03434C
:103510000360484B1B6813F0010F00F00E812B680D
:10352000013B444A02EB8303586820F0030040F05B
:10353000010058606B68013B02EB83035A6822F07C
:10354000300242F010025A60EB6813F4803F00F042
:10355000DA80013B03F001039B00364A1A445368AA
:1035600023F4E02343F4803353602B6913F4803F4A
:1035700000F0D680013B03F001039B002D4A1A4462
:10358000536823F4E02343F44033536011F0010FF8
:1035900004D0264A136843F00103136011F0020FB0
:1035A00004D0234A136843F00103136038460DB07A
:1035B000BDE8F0830021F2E64FEA480404EB08027C
:1035C000D3000CAA134453F8300C0138194A02EB0B
:1035D0008000D0F804C04CF0020CC0F804C053F8CE
:1035E0002C0C013802EB8000D0F804C04CF0200C09
:1035F000C0F804C053F8243C013B03F0010302EB84
:103600008303586840F4802058604444E3000CA8C9
:10361000034453F8203C013B03F0010302EB830217
:10362000536843F080635360E1E600BF00500052EE
:1036300000A0005200B4005272003244D3000CAA21
:10364000134453F8303C002B3FF4D1AE013B694AA0
:1036500002EB8303586820F0010058607300334484
:10366000D8000CAB184450F82C3C013B02EB830310
:103670005C6824F010045C6050F8243C013B03F0CB
:10368000010302EB83035C6824F480345C6050F82F
:10369000203C013B03F0010302EB8302536823F05B
:1036A00080735360A3E66C684FEA400C84444FEA91
:1036B000CC020DF1300C624452F82C2C94427FF471
:1036C000CFAEEC684FEA400C84444FEACC020DF1D7
:1036D000300C624452F8242C94427FF4C1AE2C6921
:1036E0004FEA400C84444FEACC020DF1300C6244A6
:1036F00052F8202C94427FF4B3AE3E4A136843F054
:1037000001031360EBE6013B03F001039B00394A20
:103710001A44536823F0E06343F08073536024E756
:10372000013B03F001039B00324A1A44536823F023
:10373000E06343F04073536028E72A68013A2D485C
:1037400000EB8202536823F0030343EA460343F08D
:10375000010353606A68013A00EB8202536823F068
:10376000300343EA461343F010035360EB6813F44D
:10377000803F20D0013B03F001039B0002461A4426
:10378000536823F4E02343EA864343F480335360D1
:103790002B6913F4803F1DD0013B03F001039B0014
:1037A000144A1A44536823F4E02343EA864646F455
:1037B00040365660EAE6013B03F001039B000D4AE8
:1037C0001A44536823F0E06343EA866343F080734E
:1037D0005360DDE7013B03F001039B00054A1A44F7
:1037E000536823F0E06343EA866646F0407656600D
:1037F000CCE600BF00B40052F0B4036A23F001032A
:103800000362036A446885691E4A2A400E681643AB
:1038100023F002038D682B431B4A1C4DA84218BF9E
:1038200090420CBF012200220CD005F58045A84231
:1038300014BF00250125164FB84203D015B9154D08
:10384000A84205D123F00803CD682B4323F00403DD
:103850005AB9114A904214BF002201220C4DA842CD
:1038600003D012B90B4A904205D124F440724C693E
:1038700014438A691443446086614A684263036260
:10388000F0BC70478CFFFEFF0000014000040140C7
:1038900000400140004801400044014070B4036A08
:1038A00023F480730362036A4468C26922F07302DE
:1038B0000E68164323F400738A6843EA0223164A0B
:1038C000164DA84218BF90420CBF0122002206D11B
:1038D00023F40063CD6843EA052323F480635AB9D7
:1038E0000F4A904214BF002201220E4DA84203D07D
:1038F00012B90D4A904207D124F440544A6944EA6F
:1039000002148A6944EA02144460C6614A68C263C8
:10391000036270BC704700BF00000140000401401A
:1039200000440140004001400048014070B4036A77
:1039300023F480530362036A4468C26922F4E642B6
:103940000D6842EA052223F400538D6843EA0533EB
:103950000F4E104DA84218BFB0420DD005F580455E
:10396000A84214BF0025012506F58046B04203D0C9
:1039700015B9094DA84204D124F480444D6944EAA4
:1039800085144460C2614A680264036270BC704777
:1039900000000140000401400048014070B4036A87
:1039A00023F480330362036A4268446D24F0700498
:1039B0000D682C4323F400338D6843EA0543104E11
:1039C000104DA84218BFB0420DD005F58045A84261
:1039D00014BF0025012506F58046B04203D015B975
:1039E000094DA84204D122F480324D6942EA0522F1
:1039F000426044654A688265036270BC704700BFDC
:103A000000000140000401400048014070B4036A16
:103A100023F480130362036A4468426D22F4E04297
:103A20000D6842EA052223F400138D6843EA05532A
:103A30000F4E104DA84218BFB0420DD005F580457D
:103A4000A84214BF0025012506F58046B04203D0E8
:103A500015B9094DA84204D124F400344D6944EA53
:103A60008524446042654A68C265036270BC704741
:103A700000000140000401400048014010B4036A06
:103A8000046A24F001040462846924F0F00444EA26
:103A9000021223F00A030B43826103625DF8044BB8
:103AA000704710B4036A23F0100303628469036A49
:103AB00024F4704444EA023223F0A00343EA0113E1
:103AC000826103625DF8044B704700008268034B1B
:103AD0001340194341F00701816070478FFFCFFF0A
:103AE0007047000070B403683C4CA04214BF00242F
:103AF0000124B0F1804F14BF224644F00102AAB95C
:103B0000374DA84214BF00250125364EB0420DD0D6
:103B100065B905F1804505F58235A84214BF002539
:103B2000012506F50066B04200D01DB123F07003F8
:103B30004D682B4362BB2A4A904214BF00220122E7
:103B4000284DA84224D01ABB02F1804202F58232ED
:103B5000904214BF0022012205F50065A84217D04B
:103B6000B2B9214A904214BF0022012205F59A35CC
:103B7000A8420DD062B91D4A904214BF0022012212
:103B800005F50065A84203D012B9194A904203D145
:103B900023F44073CA68134323F080034A69134334
:103BA00003608A68C2620A688262124B984214BF3C
:103BB000234644F001035BB90B4B984214BF00232A
:103BC00001230D4A904203D013B90C4B984201D106
:103BD0000B6903630123436170BC7047000001401F
:103BE00000080040000400400044014000E00040A4
:103BF00000E4004000040140004001400048014052
:103C000058B310B5044690F83D300BB3022384F846
:103C10003D30211D2068FFF765FF012384F84830FF
:103C200084F83E3084F83F3084F8403084F84130E6
:103C300084F8423084F8433084F8443084F84530C6
:103C400084F8463084F8473084F83D30002010BDB9
:103C500080F83C3000F0A4FDD8E70120704758B34D
:103C600010B5044690F83D300BB3022384F83D3084
:103C7000211D2068FFF736FF012384F8483084F8BF
:103C80003E3084F83F3084F8403084F8413084F886
:103C9000423084F8433084F8443084F8453084F866
:103CA000463084F8473084F83D30002010BD80F85D
:103CB0003C30FFF715FFD8E70120704770B4036A66
:103CC00023F010030362036A446885691A4A2A4094
:103CD0000E6842EA062623F020038A6843EA0213AC
:103CE000164A174DA84218BF90420CBF012200226D
:103CF00006D123F08003CD6843EA051323F0400387
:103D00005AB9104A904214BF002201220E4DA84217
:103D100003D012B90D4A904207D124F440644A6995
:103D200044EA82048A6944EA8204446086614A68FB
:103D30008263036270BC7047FF8CFFFE000001408D
:103D4000000401400044014000400140004801409F
:103D500038B590F83C30012B00F08C800D460446BD
:103D6000012380F83C30142A1ED8DFE802F00B1D36
:103D70001D1D211D1D1D351D1D1D481D1D1D5C1DED
:103D80001D1D6F000068FFF737FD2268936943F03F
:103D9000080393612268936923F004039361226806
:103DA000936929690B439361002084F83C0038BD76
:103DB0000068FFF783FF2268936943F4006393610F
:103DC0002268936923F48063936122689369296967
:103DD00043EA01239361E7E70068FFF75FFD22688C
:103DE000D36943F00803D3612268D36923F0040345
:103DF000D3612268D36929690B43D361D4E7006892
:103E0000FFF794FD2268D36943F40063D36122680D
:103E1000D36923F48063D3612268D369296943EAB3
:103E20000123D361C0E70068FFF7B8FD2268536D36
:103E300043F0080353652268536D23F00403536570
:103E40002268536D29690B435365ADE70068FFF79E
:103E5000DDFD2268536D43F4006353652268536DA2
:103E600023F4806353652268536D296943EA012373
:103E7000536599E702209AE710B4846824F47F44DC
:103E800042EA03230B43234383605DF8044B7047EE
:103E900090F83C30012B74D010B50446012380F813
:103EA0003C30022380F83D3002689068364B034076
:103EB00093600B68602B50D01DD9B3F1101F2ED02A
:103EC00035D8B3F5005F3CD0B3F5801F27D0702BF9
:103ED0000AD1CB684A6889682068FFF7CDFF22685D
:103EE000936843F077039360012384F83D3000200A
:103EF00084F83C0010BD202B11D00DD9402B36D0BA
:103F0000502B11D1CA6849682068FFF7B7FD5021CE
:103F10002068FFF7DBFDE7E70BB1102BE4D1194672
:103F20002068FFF7D3FDDFE7302BDDD1F7E7174A35
:103F30009342F4D010329342F1D0203A9342D3D13D
:103F4000EDE7CB684A6889682068FFF795FF22682B
:103F5000936843F480439360C6E7CA684968206861
:103F6000FFF79FFD60212068FFF7B0FDBCE7CA683E
:103F700049682068FFF782FD40212068FFF7A6FD11
:103F8000B2E70220704700BF8800CEFF300010006B
:103F900010B401F01F01012303FA01F4036A23EABC
:103FA00004030362036A8A40134303625DF8044B0F
:103FB000704700000A4600293AD190F83E30DBB243
:103FC00013F1FF3318BF0123002B7DD110B5002A58
:103FD0005ED1022380F83E3011460446012200687B
:103FE000FFF7D6FF23683A493A4A934218BF8B42FB
:103FF0000BD002F57052934207D002F580629342D3
:1040000003D002F58062934203D15A6C42F400421D
:104010005A6422689168304B0B40062B18BFB3F5E9
:10402000803F53D0136843F001031360002010BD9C
:1040300004290DD0082913D00C2919D010291FD01C
:1040400090F84330DBB213F1FF3318BF0123BBE715
:1040500090F83F30DBB213F1FF3318BF0123B3E711
:1040600090F84030DBB213F1FF3318BF0123ABE708
:1040700090F84130DBB213F1FF3318BF0123A3E7FF
:1040800090F84230DBB213F1FF3318BF01239BE7F6
:10409000042A09D0082A0BD00C2A0DD0102A0FD0E0
:1040A000022380F8433097E7022380F83F3093E7FC
:1040B000022380F840308FE7022380F841308BE7FD
:1040C000022380F8423087E7012070470020AEE7E6
:1040D00000000140000401400700010090F83C305E
:1040E000012B4DD070B4012380F83C30022380F8BE
:1040F0003D3003685A689D68224E234CA34218BF86
:10410000B34203D122F470024C68224322F07002C1
:104110000C6822435A6003681A4AB3F1804F18BFF3
:1041200093421FD0A2F57C4293421BD002F58062DD
:10413000934217D002F58062934213D002F5784281
:1041400093420FD0A2F56C4293420BD002F5943209
:10415000934207D0A2F5C042934203D002F5806299
:10416000934204D125F080058A6815439D600123A0
:1041700080F83D30002380F83C30184670BC704712
:10418000022070470000014000040140F0B44D6877
:104190000468E368C3F30B431D44D2011444D4F80C
:1041A000883003F47043C4F888300B680468E6680C
:1041B000C6F30B4633440133144443EA0543C4F8C1
:1041C0008830CD680468E368C3F30A031D441444CF
:1041D000D4F88C3003F47043C4F88C308B680468D6
:1041E000E668C6F30A0633440133144443EA054340
:1041F000C4F88C3003681344D3F8944024F00704C7
:10420000C3F89440036813440C69C3F8944091F8D0
:1042100031C091F832708E6905681544D5F89C302C
:104220000024C5F89C4091F8303043EA0C2343EA5F
:1042300007430568154443EA0663C5F89C300368E4
:104240001344D3F8985025F0FF05C3F8985003683D
:1042500013444D69C3F8985003681344D3F8A06021
:104260002D4D3540C3F8A050CD690E6A0368134444
:104270003543C3F8A05003681344D3F8AC50C3F8D7
:10428000AC40036813444C6AC3F8AC400B696BB193
:10429000012B3AD0022B18BF042B38D0032B38D077
:1042A000072B01D0012302E0022300E0042304686D
:1042B0001444D4F8B05005F0E025C4F8B0508C6A2E
:1042C00003FB04F54C680E68A41B03FB04F30733DF
:1042D0000468144443EA0543C4F8B0300368134447
:1042E000D3F8B4500D4C2C40C3F8B44003681344C9
:1042F000C96AC3F8B41003681A44D2F8843043F092
:104300000103C2F88430F0BC70470323CFE70223D7
:10431000CDE70223CBE700BFF8F8FFFF00F8FFFF6F
:10432000002872D038B5044690F8A130002B67D031
:10433000022384F8A1302268936923F070439361CB
:1043400021688A696368A0680343E06803432069C1
:10435000034313438B6121688A682D4B1A408A609E
:10436000656920688268A16941EA05410A43826063
:104370002168CA681A40CA60E5692068C268216A73
:1043800041EA05410A43C26021680A691A400A618C
:10439000656A20680269A16A41EA05410A4302612F
:1043A00021684A6913404B61E06A21684B69226BBE
:1043B00042EA004213434B6194F8350094F83630DA
:1043C0001B042168CA6A02F07F42CA622168CA6A75
:1043D00043EA002394F8340003431343CB6222687A
:1043E000536B43F0060353632268936943F0010360
:1043F00093610020C4F8A400012384F8A13038BDE3
:1044000080F8A03000F0DEFA92E70120704700BF8C
:1044100000F800F090F8A030012B27D02DE9F041F2
:1044200094460F4606464FF0010880F8A08002230C
:1044300080F8A130342404FB020438340D460FCD3B
:104440000FC40FCD0FC40FCD0FC42B68236062467D
:1044500039463046FFF79AFE3368C3F8248086F861
:10446000A180002086F8A000BDE8F08102207047FE
:10447000F0B490F8A040012C36D0012480F8A04080
:10448000022480F8A140002612E006EB06140F6813
:10449000FDB245EA046407F47F452C4307F47F0727
:1044A0003C430431056805EBC315C5F8C44001362B
:1044B000964210D2342404FB0304A46C062CE4D0EE
:1044C0000D68ECB244EA066405F47F473C4305F40A
:1044D0007F052C43E5E7012380F8A130002380F815
:1044E000A0301846F0BC70470220FBE790F8A030DF
:1044F000012B17D0012280F8A020022380F8A130E0
:10450000036803EBC111D1F8843043F01003C1F804
:10451000843003685A6280F8A120002380F8A0301C
:104520001846704702207047244AD2F8883043F476
:104530007003C2F88830224B1B6803F00F03062B70
:1045400006D81F4A136823F00F0343F007031360D4
:104550001C4B1A6842F001021A6000221A611968A5
:10456000194A0A401A60164B1B6803F00F03072B09
:1045700006D9134A136823F00F0343F007031360AF
:10458000104B00229A61DA611A621049996210494F
:10459000D962104919635A639963DA6319645A64DA
:1045A000196821F4802119601A660B4B43F2D2027C
:1045B0001A60024B4FF000629A60704700ED00E015
:1045C00000200052004402587FEDF6EA0002020289
:1045D0000000FF0180020101004000522DE9F04778
:1045E0008AB0002405940694079408940994674BB4
:1045F000D3F8E02042F01002C3F8E020D3F8E02026
:1046000002F010020092009AD3F8E02042F0040277
:10461000C3F8E020D3F8E02002F004020192019AEE
:10462000D3F8E02042F00102C3F8E020D3F8E02004
:1046300002F001020292029AD3F8E02042F0020254
:10464000C3F8E020D3F8E02002F002020392039ABC
:10465000D3F8E02042F00802C3F8E020D3F8E030BD
:1046600003F008030493049B494F01220A213846B2
:10467000FEF7D4FB224610213846FEF7CFFBDFF8C9
:1046800018A101224FF480515046FEF7C7FB224685
:104690004FF460415046FEF7C1FBDFF8008122462F
:1046A0004FF400514046FEF7B9FB22460221404636
:1046B000FEF7B4FB6123059302260696079408943F
:1046C0004FF00E09CDF8249005A93248FEF7BCFA48
:1046D000012505950696079408940B23099305A9CF
:1046E0003846FEF7B1FA1A23059306950794089405
:1046F00005A93846FEF7A8FA042305930694079403
:1047000005A93846FEF7A0FA059506940794A7F583
:10471000006705A93846FEF797FA06230593069623
:1047200007940894CDF8249005A93846FEF78CFA32
:104730004FF47043059306950794089405A95046D5
:10474000FEF782FA40F241430593069607940894D7
:10475000CDF8249005A94046FEF776FA42F202030E
:10476000059306950794089405A94046FEF76CFA50
:104770004FF480630593069607940894099505A95C
:104780003846FEF761FA0AB0BDE8F08700440258E7
:10479000000802580010025800040258000C025889
:1047A0000368B3F1804F00D0704782B0074BD3F855
:1047B000E82042F00102C3F8E820D3F8E83003F023
:1047C00001030193019B02B0704700BF00440258EF
:1047D00000B587B0002301930293039304930593DC
:1047E0000368B3F1804F02D007B05DF804FB0C4BB7
:1047F000D3F8E02042F00102C3F8E020D3F8E03023
:1048000003F001030093009B08230193022302930A
:104810000123059301A90348FEF716FAE4E700BF58
:10482000004402580000025800B58FB000230A93DC
:104830000B930C930D9307930893099300930193A3
:104840000293039304930593069323484FF0804209
:10485000026009224260836040F2E732C260036175
:1048600080238361FFF7CCF938BB0EA94FF4805346
:1048700041F8103D1848FFF70BFB08BB1648FFF73F
:10488000EEF900BB00230793099307A91248FFF72D
:1048900025FCD8B960230093FA23019300230293E7
:1048A00004930C2269460C48FFF752FA88B90A486B
:1048B000FFF78EFF0FB05DF804FBFCF7A7FCD4E711
:1048C000FCF7A4FCDAE7FCF7A1FCDBE7FCF79EFCB5
:1048D000E0E7FCF79BFCEAE79000002030B58FB0E2
:1048E0003422002101A8FBF75BFD3248324B036004
:1048F0000023436083604FF00052C26003612822AE
:104900004261092282612A22C2610B22026240F2C4
:104910000A22426240F21B1282624FF40372C262A8
:1049200040F21D12026380F83430FF2280F83520F7
:1049300080F83630FFF7F4FC00282FD100220192D6
:104940004FF4F070029003924FF4887104910524A3
:104950000594FF23069307924FF480650895099408
:10496000164C0A940B900C918DF834308DF835204C
:104970008DF8362001A90F48FFF74CFD88B90023B8
:104980004FF480720E490B48FFF772FD60B90021A9
:104990000848FFF7ABFD50B90FB030BDFCF736FC4F
:1049A000CCE7FCF733FCEAE7FCF730FCEFE7FCF779
:1049B0002DFCF1E7DC000020001000500000002476
:1049C000704D000870B58CB00023079308930993CD
:1049D0000A930B930268494B9A4201D00CB070BD08
:1049E000474BD3F8E42042F00802C3F8E420D3F8A0
:1049F000E42002F008020192019AD3F8E02042F08C
:104A00000402C3F8E020D3F8E02002F0040202928E
:104A1000029AD3F8E02042F00102C3F8E020D3F874
:104A2000E02002F001020392039AD3F8E02042F062
:104A30000202C3F8E020D3F8E02002F00202049260
:104A4000049AD3F8E02042F01002C3F8E020D3F833
:104A5000E02002F010020592059AD3F8E02042F01F
:104A60000802C3F8E020D3F8E03003F0080306930F
:104A7000069B48F2303307930224089409940A9461
:104A80000E250B9507A91F48FEF7DEF84FF470437B
:104A90000793089409940A940B9507A91A48FEF7FE
:104AA000D3F84FF460630793089409940A940B9524
:104AB000164E07A93046FEF7C7F808230793089457
:104AC00009940A940B9507A91148FEF7BDF8C02375
:104AD0000793089409940A940B9507A90D48FEF7CB
:104AE000B3F820230793089409940A9403230B93A3
:104AF00007A93046FEF7A8F870E700BF0010005085
:104B000000440258000002580010025800040258E5
:104B1000000C025800080258DFF834D0FFF704FDFB
:104B2000002103E00B4B5B58435004310A480B4B08
:104B300042189A42F6D30A4A02E0002342F8043BA4
:104B4000084B9A42F9D3FBF707FCFCF7F3FB7047DD
:104B50000000022078510008000000201000002012
:104B60001000002084010020FEE70000F8B500BF1F
:104B7000F8BC08BC9E467047F8B500BFF8BC08BC3E
:044B80009E46704796
:104B8800FB21F93FFB2109407CD91240FB21194048
:104B98007A6A1F407CD92240BBFD2540FB21294071
:104BA8003A462C407A6A2F405C4731407CD93240E3
:104BB8009C6B3440BBFD3540DB8F3740FB213940CF
:104BC8001BB43A403A463C405AD83D407A6A3F4086
:104BD8004C7E40405C4741406C1042407CD942408A
:104BE8008CA243409C6B4440AC344540BBFD4540DF
:104BF800CBC64640DB8F4740EB584840FB21494035
:104C080083F9A200444E6E00FC291500D1572700F5
:104C1800DD34F50062DBC0003C999500419043000B
:104C28006351FE00BBDEAB00B761C5003A6E2400DD
:104C3800D24D42004906E00009EA2E001C92D1003C
:104C4800EB1DFE0029B11C00E83EA700F5358200E7
:104C580044BB2E009CE98400B4267000417E5F00AE
:104C6800D6913900538339009CF439008B5F840056
:104C780028F9BD00F81F3B00DEFF97000F980500DC
:104C8800112FEF000A5A8B006D1F6D00CF7E360082
:104C980009CB2700464FB7009E663F002DEA5F000C
:104CA800BA277500E5EBC7003D7BF100F73907002F
:104CB80092528A00FB6BEA001FB15F00085D8D000D
:104CC800300356007BFC4600F0AB6B0020BCCF00E5
:104CD80036F49A00E3A91D005E619100081BE60006
:104CE80085996500A0145F008D40680080D8FF009A
:104CF80027734D0006063100CA561500C9A873006F
:104D08007BE260006B8CC000020000000300000022
:104D1800040000000600000000000040FB21F93FED
:104D2800000000002D44743E000000809846F83CC6
:104D38000000006051CC783B00000080831BF039F4
:104D48000000004020257A38000000802282E336E7
:104D5800000000001DF36935000000000102030493
:104D68000102030406070809000000000000800093
:104D7800008000000080800080000000800080002B
:104D880080800000C0C0C000C0DCC000F0CAA6001F
:104D98000020400000206000002080000020A000CB
:104DA8000020C0000020E00000400000004020007B
:104DB8000040400000406000004080000040A0002B
:104DC8000040C0000040E0000060000000602000DB
:104DD8000060400000606000006080000060A0008B
:104DE8000060C0000060E00000800000008020003B
:104DF8000080400000806000008080000080A000EB
:104E08000080C0000080E00000A0000000A020009A
:104E180000A0400000A0600000A0800000A0A0004A
:104E280000A0C00000A0E00000C0000000C02000FA
:104E380000C0400000C0600000C0800000C0A000AA
:104E480000C0C00000C0E00000E0000000E020005A
:104E580000E0400000E0600000E0800000E0A0000A
:104E680000E0C00000E0E00040000000400020003A
:104E78004000400040006000400080004000A0006A
:104E88004000C0004000E00040200000402020001A
:104E98004020400040206000402080004020A000CA
:104EA8004020C0004020E00040400000404020007A
:104EB8004040400040406000404080004040A0002A
:104EC8004040C0004040E0004060000040602000DA
:104ED8004060400040606000406080004060A0008A
:104EE8004060C0004060E00040800000408020003A
:104EF8004080400040806000408080004080A000EA
:104F08004080C0004080E00040A0000040A0200099
:104F180040A0400040A0600040A0800040A0A00049
:104F280040A0C00040A0E00040C0000040C02000F9
:104F380040C0400040C0600040C0800040C0A000A9
:104F480040C0C00040C0E00040E0000040E0200059
:104F580040E0400040E0600040E0800040E0A00009
:104F680040E0C00040E0E000800000008000200039
:104F78008000400080006000800080008000A00069
:104F88008000C0008000E000802000008020200019
:104F98008020400080206000802080008020A000C9
:104FA8008020C0008020E000804000008040200079
:104FB8008040400080406000804080008040A00029
:104FC8008040C0008040E0008060000080602000D9
:104FD8008060400080606000806080008060A00089
:104FE8008060C0008060E000808000008080200039
:104FF8008080400080806000808080008080A000E9
:105008008080C0008080E00080A0000080A0200098
:1050180080A0400080A0600080A0800080A0A00048
:1050280080A0C00080A0E00080C0000080C02000F8
:1050380080C0400080C0600080C0800080C0A000A8
:1050480080C0C00080C0E00080E0000080E0200058
:1050580080E0400080E0600080E0800080E0A00008
:1050680080E0C00080E0E000C0000000C000200038
:10507800C0004000C0006000C0008000C000A00068
:10508800C000C000C000E000C0200000C020200018
:10509800C0204000C0206000C0208000C020A000C8
:1050A800C020C000C020E000C0400000C040200078
:1050B800C0404000C0406000C0408000C040A00028
:1050C800C040C000C040E000C0600000C0602000D8
:1050D800C0604000C0606000C0608000C060A00088
:1050E800C060C000C060E000C0800000C080200038
:1050F800C0804000C0806000C0808000C080A000E8
:10510800C080C000C080E000C0A00000C0A0200097
:10511800C0A04000C0A06000C0A08000C0A0A00047
:10512800C0A0C000C0A0E000C0C00000C0C02000F7
:10513800C0C04000C0C06000C0C08000C0C0A000A7
:10514800F0FBFF00A4A0A000808080000000FF000A
:1051580000FF000000FFFF00FF000000FF00FF004D
:08516800FFFF0000FFFFFF0044
:0451700039030008F7
:04517400110300081B
:1051780001000000100000000080841E0090D00391
:0400000508004B198B
:00000001FF
