:020000040800F2
:10000000000002209174000825130008271300083F
:10001000291300082B1300082D130008000000000E
:100020000000000000000000000000002F13000886
:1000300031130008000000003313000835130008D6
:10004000E1740008E1740008E1740008E17400083C
:10005000E1740008E1740008E1740008E17400082C
:10006000E1740008E1740008E1740008E17400081C
:10007000E1740008E1740008E1740008E17400080C
:10008000E1740008E1740008E1740008E1740008FC
:10009000E1740008E1740008E1740008E1740008EC
:1000A000E1740008E1740008E1740008E1740008DC
:1000B000E1740008E1740008E1740008E1740008CC
:1000C000E1740008E1740008E1740008E1740008BC
:1000D000E1740008E1740008E1740008E1740008AC
:1000E000E1740008E174000800000000E1740008F9
:1000F000E1740008E1740008E1740008E17400088C
:10010000E1740008E1740008E1740008E17400087B
:10011000E1740008E1740008E1740008E17400086B
:10012000E1740008E1740008E1740008E17400085B
:10013000E1740008E1740008E1740008E17400084B
:1001400000000000000000000000000000000000AF
:10015000E1740008E1740008E1740008E17400082B
:10016000E1740008E1740008E1740008E17400081B
:10017000E1740008E1740008E17400080000000068
:10018000E1740008E1740008E1740008E1740008FB
:10019000E1740008E1740008E1740008E1740008EB
:1001A000E1740008E1740008E17400080000000038
:1001B000E1740008E1740008E1740008E1740008CB
:1001C000E1740008E1740008000000000000000075
:1001D0000000000000000000E174000800000000C2
:1001E000000000000000000000000000000000000F
:1001F0000000000000000000E1740008E174000845
:10020000E1740008E174000800000000E1740008D7
:10021000E1740008E1740008E1740008E17400086A
:10022000E174000800000000E17400080000000014
:10023000E1740008E174000800000000E1740008A7
:10024000E1740008E1740008E1740008E17400083A
:10025000E1740008E1740008E1740008E17400082A
:10026000E1740008E1740008E1740008E17400081A
:10027000E1740008E1740008E17400080000000067
:10028000E1740008E1740008E1740008E1740008FA
:1002900000000000E1740008E174000800000000A4
:1002A00000000000E1740008E1740008E174000837
:1002B000E1740008E1740008E1740008E1740008CA
:0C02C000E1740008E1740008E17400081B
:1002CC000348044B834202D0034B03B118477047D9
:1002DC001000002010000020000000000548064916
:1002EC00091A891001EBD171491002D0034B03B1EB
:1002FC00184770471000002010000020000000007C
:10030C0010B5064C237843B9FFF7DAFF044B13B151
:10031C000448AFF300800123237010BD10000020AF
:10032C0000000000E474000808B5044B1BB104493C
:10033C000448AFF30080BDE80840CFE700000000A0
:10034C0014000020E474000870B50D4E0D4D761BA2
:10035C00B61006D00024013455F8043B9847A64249
:10036C00F9D1094E094D761B07F0B6F8B61006D038
:10037C000024013455F8043B9847A642F9D170BDCE
:10038C003C7500083C750008407500083C75000879
:10039C00F0B4860743D0541E002A3ED0CAB203469E
:1003AC0002E014F1FF3438D303F8012B9D07F8D188
:1003BC00032C2BD9CDB245EA05250F2C45EA054572
:1003CC0016D9A4F110073F0903F1200606EB071616
:1003DC0003F1100242E9045542E902551032B242CF
:1003EC00F8D104F00F040137032C03EB07130DD9DC
:1003FC001E462246043A032A46F8045BFAD8221F0A
:10040C0022F003020432134404F003042CB1C9B2E9
:10041C001C4403F8011B9C42FBD1F0BC70471446F2
:10042C000346C5E753B94AB9002908BF00281CBFC9
:10043C004FF0FF314FF0FF3000F072B9ADF1080C06
:10044C006DE904CE00F006F8DDF804E0DDE90223E6
:10045C0004B070472DE9F047089E04468846002BEF
:10046C004BD18A42154667D9B2FA82F24AB1C2F12F
:10047C00200701FA02F320FA07F7954047EA030830
:10048C0094404FEA154E230CB8FBFEF71FFA85FC7F
:10049C000EFB178843EA084307FB0CF1994209D974
:1004AC00EB1807F1FF3080F01B81994240F2188164
:1004BC00023F2B445B1AA4B2B3FBFEF00EFB1033CD
:1004CC0044EA034400FB0CFCA44509D92C1900F1A7
:1004DC00FF3380F00781A44540F2048102382C449C
:1004EC0040EA0740A4EB0C0400271EB1D4400023C3
:1004FC00C6E900433946BDE8F0878B4209D9002E86
:10050C0000F0EB800027C6E9000138463946BDE80B
:10051C00F087B3FA83F7002F47D18B4202D3824284
:10052C0000F2FA80841A61EB030301209846002E36
:10053C00E0D0C6E90048DDE702B9FFDEB2FA82F28C
:10054C00002A40F08F80491B4FEA154E1FFA85F8A0
:10055C000127B1FBFEFC230C0EFB1C1143EA0143EB
:10056C0008FB0CF1994207D9EB180CF1FF3002D2C1
:10057C00994200F2CD808446591AA3B2B1FBFEF029
:10058C000EFB101443EA044408FB00F8A04507D9FD
:10059C002C1900F1FF3302D2A04500F2B6801846A8
:1005AC00A4EB080440EA0C409FE7C7F1200CBB40C9
:1005BC0022FA0CFE4EEA030E01FA07F420FA0CF5AF
:1005CC0021FA0CF34FEA1E482543B3FBF8F92C0C27
:1005DC0008FB19331FFA8EFA44EA034309FB0AF4A9
:1005EC009C4202FA07F200FA07F10BD91EEB030347
:1005FC0009F1FF3080F087809C4240F28480A9F1A1
:10060C00020973441B1BADB2B3FBF8F008FB1033AB
:10061C0045EA034400FB0AFAA24508D91EEB040480
:10062C0000F1FF336BD2A24569D90238744440EA19
:10063C000940A0FB0289A4EB0A044C45C2464B4678
:10064C0054D351D0002E69D0B1EB0A0564EB0304EE
:10065C0004FA0CFCFD40FC404CEA0505C6E90054CC
:10066C00002747E7C2F1200320FA03F7954001FA6F
:10067C0002F021FA03F34FEA154E3843010CB3FB99
:10068C00FEF71FFA85F80EFB173341EA034107FB0F
:10069C0008F38B4204FA02F407D9691807F1FF3CFE
:1006AC002FD28B422DD9023F2944CB1A81B2B3FBF6
:1006BC00FEF00EFB103341EA034100FB08F38B42C2
:1006CC0007D9691800F1FF3C17D28B4215D90238B3
:1006DC002944C91A40EA07473BE73746304609E741
:1006EC000746E7E61846FBE64145ABD2B8EB020AF3
:1006FC0069EB0E0201381346A4E76046E9E7184699
:10070C0095E76746D1E781467CE702382C4447E7FA
:10071C00ACF1020C2B442FE7384608E73746E9E6E4
:10072C00704700BF72B6FEE700B5CBB04C2200217B
:10073C0037A8FFF72DFE202200212FA8FFF728FE57
:10074C00B422002102A8FFF723FE022003F030FCA4
:10075C0000230193394B9A6922F440429A619B69B8
:10076C0003F440430193019B344B9B6913F4005FEA
:10077C00FAD003F015FC324A136F23F018031367F9
:10078C00936A23F0030343F0020393620523379328
:10079C004FF48033389301233993022240924192D3
:1007AC000C21429180214391449345934692082217
:1007BC00479200224892499337A801F0CFFB0028BA
:1007CC0035D13F232F9303213091002331930823FC
:1007DC0032934023339334934FF4806235923693A3
:1007EC002FA801F067FF20BB164B02932022039227
:1007FC008123049302230593069307930023089304
:10080C0009920A931493159319934FF48012229220
:10081C002593269329934FF480732D9302A802F00D
:10082C00E5F940B903F0EEFB4BB05DF804FBFFF7C4
:10083C0079FFFFF777FFFFF775FF00BF00480258FD
:10084C000044025814204D0208B503F065FCFFF774
:10085C006BFF00F013F800F0B1F900F083FA00F030
:10086C00AFFB00F021FD00F00DFA00F07FFB00F073
:10087C00DBFC00F02DFC00F01BF9FEE72DE9F04F3E
:10088C008DB000240794089409940A940B94824B1D
:10089C00D3F8E02042F01002C3F8E020D3F8E020B7
:1008AC0002F010020192019AD3F8E02042F0040207
:1008BC00C3F8E020D3F8E02002F004020292029A7E
:1008CC00D3F8E02042F08002C3F8E020D3F8E02017
:1008DC0002F080020392039AD3F8E02042F0010266
:1008EC00C3F8E020D3F8E02002F001020492049A4D
:1008FC00D3F8E02042F00202C3F8E020D3F8E02065
:10090C0002F002020592059AD3F8E02042F00802A8
:10091C00C3F8E020D3F8E03003F008030693069BFD
:10092C0022460B215D4803F035FBDFF878A1224607
:10093C001221504603F02EFBDFF86CB12246082141
:10094C00584603F027FBDFF8649122464FF47041C0
:10095C00484603F01FFB524E22464CF242413046B1
:10096C0003F018FB0B2307934FF00108CDF8208000
:10097C0009940A9407A9494803F022FAC123079362
:10098C000225089509940A940E270B9707A950463F
:10099C0003F016FA12230793CDF8208009940A94D9
:1009AC0007A9504603F00CFA0C23079308940994FA
:1009BC0007A9504603F004FA4FF0080ACDF81CA022
:1009CC00CDF8208009940A9407A9584603F0F8F949
:1009DC0048F230130793089509940A940B9707A9CA
:1009EC00584603F0EDF94FF4704BCDF81CB0089558
:1009FC0009940A940B9707A9284803F0E1F94FF4DE
:100A0C0060630793089509940A940B9707A94846C5
:100A1C0003F0D6F9CDF81CB0CDF8208009940A94D7
:100A2C0007A9484603F0CCF94FF4D853079308951F
:100A3C0009940A9407230B9307A9304603F0C0F9D5
:100A4C004CF242430793CDF8208009940A9407A9ED
:100A5C00304603F0B5F942F2B103079308940994B8
:100A6C0007A9304603F0ACF9CDF81CA00895099401
:100A7C000A940B9707A9304603F0A2F92023079399
:100A8C00089509940A9403230B9307A9484603F08D
:100A9C0097F90DB0BDE8F08F0044025800100258D1
:100AAC00000C0258000802580000025800040258BA
:100ABC0010B58CB0002409940A940B94242221467E
:100ACC006846FFF765FC1F481F4B03604460846059
:100ADC00046104234361047644760123C36180F8E6
:100AEC0020408462C4620463C463046480F844409C
:100AFC0000F0FAFFE0B90CA9002341F80C3D1148B5
:100B0C0001F070F9B8B9114B00930623019300233F
:100B1C00029340F2FF7203920422049205938DF823
:100B2C0021306946074800F015FC38B90CB010BDEF
:100B3C00FFF7F8FDDFE7FFF7F5FDE4E7FFF7F2FD60
:100B4C00F4E700BF2C0000200020024000002143ED
:100B5C0000B589B000230393049305930693079380
:100B6C000268134B9A4202D009B05DF804FB114B9A
:100B7C00D3F8D82042F02002C3F8D820D3F8D820DC
:100B8C0002F020020192019AD3F8E02042F0010217
:100B9C00C3F8E020D3F8E03003F001030293029B8A
:100BAC0003230393049303A9034803F009F9DBE738
:100BBC0000200240004402580000025808B51248B8
:100BCC00124B0360124B4360002383600122C2600E
:100BDC00036143618361C361036203F0F1FA50B9AD
:100BEC000021094803F04AFB40B90021064803F0F4
:100BFC0073FB30B908BDFFF795FDF1E7FFF792FDE8
:100C0C00F3E7FFF78FFDF5E79C000020001C005870
:100C1C00FCA7A02010B588B0002303930493059380
:100C2C00069307930268144B9A4201D008B010BD8A
:100C3C00124CD4F8E03043F00203C4F8E030D4F89E
:100C4C00E03003F002030193019BC02303931223B2
:100C5C0004930623079303A9094803F0B1F8D4F8C9
:100C6C00F43043F08003C4F8F430D4F8F43003F0DB
:100C7C0080030293029BD9E7001C005800440258E1
:100C8C000004025808B51748174B0360174B436014
:100C9C0000238360C36003610C22426183610362A1
:100CAC0043628362436603F0C0FF70B900210D48B4
:100CBC0004F047F860B900210A4804F067F850B90D
:100CCC00084804F01FF848B908BDFFF72BFDEDE705
:100CDC00FFF728FDEFE7FFF725FDF1E7FFF722FD12
:100CEC00F2E700BFE8000020000C0058243303009A
:100CFC0000B589B0002303930493059306930793DF
:100D0C000268164B9A4202D009B05DF804FB03F559
:100D1C000E33D3F8F42042F00802C3F8F420D3F8D1
:100D2C00F42002F008020192019AD3F8E02042F07C
:100D3C000102C3F8E020D3F8E03003F00103029382
:100D4C00029B4FF4C0630393022304930323079382
:100D5C0003A9034803F034F8D6E700BF000C005891
:100D6C000000025800B58BB0002304930593069342
:100D7C0007930893099300930193029303932248DA
:100D8C00224A02600122426083604FF08061C160A0
:100D9C002021016142618361C3610362426283620B
:100DAC00C3620263436308228263C363036404F077
:100DBC00DDF800BB01230493059306934FF0011358
:100DCC00079303F57F03089341F2883204A90E4878
:100DDC0004F054F990B9002300930193022202927B
:100DEC00039341F288326946074804F091F840B900
:100DFC000BB05DF804FBFFF795FCDBE7FFF792FC0B
:100E0C00E9E7FFF78FFCF3E7740100200050005274
:100E1C002DE9F0438BB000230593069307930893B9
:100E2C00099302684C4B9A4202D00BB0BDE8F08398
:100E3C004A4BD3F8D42042F48042C3F8D420D3F8E0
:100E4C00D42002F480420092009AD3F8E02042F0C1
:100E5C000102C3F8E020D3F8E02002F00102019275
:100E6C00019AD3F8E02042F00402C3F8E020D3F852
:100E7C00E02002F004020292029AD3F8E02042F041
:100E8C000202C3F8E020D3F8E02002F00202039241
:100E9C00039AD3F8E02042F01002C3F8E020D3F814
:100EAC00E03003F010030493049B402305930225C8
:100EBC0006950324089406230993DFF8AC8005A952
:100ECC00404602F07DFF8023059306950026079689
:100EDC0008940A27099705A9404602F071FF2023C0
:100EEC000593069507960894099705A91C4802F0E6
:100EFC0067FF05940695079608944FF00409CDF802
:100F0C00249008F5806805A9404602F059FFCDF8F9
:100F1C0014900695079608940923099305A9404651
:100F2C0002F04EFF4FF4F063059306950796089474
:100F3C0009970C4F05A9384602F042FF4FF40063A5
:100F4C0005930695079608940B23099305A9384633
:100F5C0002F036FF69E700BF00500052004402580F
:100F6C0000080258001002580000025808B50A4840
:100F7C000A4B0360002343607F228260FF22C26021
:100F8C0003618361C361436104F072FE00B908BD63
:100F9C00FFF7C8FBFBE700BFD4010020004000585E
:100FAC000268054B9A4200D07047044A136F43F411
:100FBC0000431367F8E700BF004000580044025894
:100FCC0008B50A480A4B03600023436083604FF462
:100FDC008042C260036143610123836105F0BBFE63
:100FEC0000B908BDFFF79EFBFBE700BFF80100202E
:100FFC0000700052F0B58BB0002305930693079355
:10100C000893099302682D4B9A4201D00BB0F0BDA6
:10101C002B4BD3F8D42042F48032C3F8D420D3F82D
:10102C00D42002F480320192019AD3F8E02042F0ED
:10103C000402C3F8E020D3F8E02002F0040202928C
:10104C00029AD3F8E02042F00802C3F8E020D3F86B
:10105C00E02002F008020392039AD3F8E02042F059
:10106C000202C3F8E020D3F8E03003F0020304934B
:10107C00049B4FF4F853059302250695032408941A
:10108C000C27099705A90F4802F09AFE0423059333
:10109C000695002607960894099705A90A4802F0B8
:1010AC008FFE4FF4807305930695079608940723DB
:1010BC00099305A9054802F083FEA7E700700052CA
:1010CC000044025800080258000C02580004025850
:1010DC0008B51348134B03604FF48003436000239F
:1010EC0083600322C260036143614FF0005282614E
:1010FC00C361036243628362C3624FF08042426306
:10110C008363C363036443648364C364036543659B
:10111C00836505F089FE00B908BDFFF703FBFBE70B
:10112C00780200200034014000B589B000230393FD
:10113C0004930593069307930268154B9A4202D0C9
:10114C0009B05DF804FB134BD3F8F02042F40052C5
:10115C00C3F8F020D3F8F02002F400520192019A67
:10116C00D3F8E02042F01002C3F8E020D3F8E030CE
:10117C0003F010030293029B742303930223049342
:10118C000523079303A9044802F01AFED8E700BF11
:10119C0000340140004402580010025802680A4B07
:1011AC009A4200D0704782B0084BD3F8E82042F046
:1011BC000202C3F8E820D3F8E83003F002030193ED
:1011CC00019B02B0704700BF00040040004402586D
:1011DC0000B587B000230193029303930493059306
:1011EC0002680E4B9A4202D007B05DF804FB0C4B20
:1011FC00D3F8E02042F00202C3F8E020D3F8E0304C
:10120C0003F002030093009B10230193022302932B
:10121C00059301A9034802F0D3FDE5E70004004063
:10122C00004402580004025800B58BB00023079309
:10123C0008930993009301930293039304930593EA
:10124C0006931748174A0260436083604FF6FF729B
:10125C00C2600361836104F043FBC0B900230793B0
:10126C00099307A90E4804F049FC98B96023009330
:10127C0000220192029204926946094804F0AAFBEA
:10128C0058B90748FFF7A4FF0BB05DF804FBFFF754
:10129C0049FAE3E7FFF746FAE8E7FFF743FAF0E726
:1012AC00000300200004004008B50C480C4B036000
:1012BC00092343600222C260002303618261C3617F
:1012CC000362436201228262C3620363436305F0DB
:1012DC0053FE00B908BDFFF725FAFBE74C030020CD
:1012EC000000044002680A4B9A4200D0704782B05A
:1012FC00084BD3F8D82042F00072C3F8D820D3F8AA
:10130C00D83003F000730193019B02B0704700BF0B
:10131C000000044000440258FEE7FEE7FEE7FEE74B
:10132C00FEE770477047704708B502F023FF08BD11
:10133C0082B0074BD3F8F42042F00202C3F8F42039
:10134C00D3F8F43003F002030193019B02B0704711
:10135C0000440258F0B482B00022019290F85C2054
:10136C00012A00F024830346012280F85C200268E5
:10137C00966816F004060AD0026E42F0200202664D
:10138C000120002283F85C2002B0F0BC7047B74803
:10139C0082420BD00868C0F31304002C53D1C0F365
:1013AC00846001248440D0692043D0611F684D685B
:1013BC000C6830372A0A920002F00C02B85805F07B
:1013CC001F054FF01F0C0CFA05FC20EA0C00C4F3AF
:1013DC008464AC402043B8501A68906810F0040F35
:1013EC003AD00120946814F0080F37D00124204320
:1013FC0070D10F68886802F114047A0E920002F022
:10140C000402A558C7F304574FF0070C0CFA07FC5D
:10141C0025EA0C05B8402843A0501A68934882422C
:10142C001ED09348006800F07040B0F1805F59D036
:10143C00D06810F0100F5CD14869D468C4F38204F2
:10144C006400A04012E090FAA0F0B0FA80F000F036
:10145C001F0001248440A6E70020C3E70024C6E750
:10146C004869D468C4F3C1046400A0400C69042C1E
:10147C0076D00D6802F16007DFF8F0C1624540D00C
:10148C0057F8242002F0004205F0F8452843104399
:10149C0047F824001A68754882423CD00D6991F8CF
:1014AC002100012856D03446603252F8250020F035
:1014BC000040204342F825001D680C690A7E012A71
:1014CC004BD02A6922F4F04204F01F0006FA00F017
:1014DC00104328611A68906810F0010F00F0F58035
:1014EC0000204EE74869D468C4F382046400A0402D
:1014FC00BCE74869D468A40804F004046400A04064
:10150C00B4E757F8242005F0F845284340F0004094
:10151C0047F82400BEE70D69C869603252F82540CF
:10152C0024F08074204342F825001A680C6991F865
:10153C00200001280BD04D488242CBD1603252F8AA
:10154C00240020F00070304342F82400C2E74FF032
:10155C000076F0E74FF00044A6E74FF40066B0E7E2
:10156C004248824226D0106E00F0F8400C68B0EB76
:10157C00846F00F09B801868426E02F0F8420C6891
:10158C00B2EB846F00F097801868826E02F0F8421C
:10159C000C68B2EB846F00F093801868C26E02F096
:1015AC00F8420C68B2EB846F94D1C26E22F0004208
:1015BC00C2668FE7106E146EC4F384640868C0F3BF
:1015CC001305002D36D1C0F38460844237D01C68DB
:1015DC00626E606EC0F384600A68C2F31305002D5E
:1015EC0032D1C2F38462904233D01C68A26EA06EDA
:1015FC00C0F384600A68C2F31305002D3AD1C2F31C
:10160C00846290423BD01C68E26EE06EC0F3846052
:10161C000A68C2F31305002D3ED1C2F384629042D6
:10162C007FF458AF114A94423BD0E26E22F0004254
:10163C00E2664FE790FAA0F0B0FA80F0C5E7106EC2
:10164C0020F000401066C2E792FAA2F2B2FA82F2DF
:10165C00C9E7064A944204D0626E22F000426266E8
:10166C00C3E7626E22F000426266BEE70060025879
:10167C000010005C92FAA2F2B2FA82F2C1E7B34A0D
:10168C00944204D0A26E22F00042A266BBE7A26E86
:10169C0022F00042A266B6E792FAA2F2B2FA82F205
:1016AC00BDE7E26E22F00042E26613E7106E20F016
:1016BC00004010665FE7426E22F00042426663E72C
:1016CC00826E22F00042826667E70868CD689F4C04
:1016DC00A2421AD0D2F8C040C0F3130624EA060482
:1016EC0005F018059A4E26FA05F52840C0F31300AC
:1016FC002043C2F8C000C868964A904217D00A68C6
:10170C00002AC0F2B38000203BE6D2F8B060C0F3F0
:10171C00130426EA040605F018058D4C24FA05F589
:10172C002840C0F313003043C2F8B000E3E71D6853
:10173C000A68C2F3130696BB900E013000F01F002E
:10174C0009288CBF00200120002852D09EBB940E8B
:10175C000134A40604F0F844B6BB900E013000F03E
:10176C001F070120B8400443C6BB920E013202F0A1
:10177C001F0202EB4202120522438C681435500EF4
:10178C00800000F004002E58C2F304520727974043
:10179C0026EA070604FA02F232432A50AFE792FA1D
:1017AC00A2F0B0FA80F0013000F01F0009288CBFC5
:1017BC0000200120C8E792FAA2F4B4FA84F40134B0
:1017CC00A40604F0F844C7E792FAA2F0B0FA80F04D
:1017DC00013000F01F070120B840C4E792FAA2F2D2
:1017EC00B2FA82F2013202F01F0202EB420212053F
:1017FC00C2E7CEB9940E0134A40604F0F844E6B95D
:10180C00900E013000F01F070120B8400443F6B9D8
:10181C00900E013000F01F0000EB40021E3A120542
:10182C0042F000722243A8E792FAA2F4B4FA84F4CC
:10183C000134A40604F0F844E1E792FAA2F0B0FAFD
:10184C0080F0013000F01F070120B840DEE792FA6B
:10185C00A2F0B0FA80F0013000F01F0000EB400065
:10186C00A0F11E02120542F00072DBE719683A483B
:10187C003A4CA14218BF81420CBF0120002021D15B
:10188C00374DAC6804F0E07610B33348806810F044
:10189C00010F19D00120314FBF6817F0010F15D07F
:1018AC00012738430CBF01200020002877D02D4899
:1018BC00824218D02C48824236D02C4882425DD0CD
:1018CC0000205EE52A4DDCE70020E4E70027E8E78E
:1018DC001E48806810F0010F03D0012080F0010039
:1018EC00E3E70020FAE714F4000FE3D1174A914222
:1018FC0001D0002045E546F40002A96821F0E07112
:10190C000A43AA601B4A126892091B49A1FB0212E6
:10191C0092095200019202E0019A013A0192019A55
:10192C00002AF9D100202CE514F0807FC5D1074A9C
:10193C00914201D0002024E546F08072A96821F084
:10194C00E0710A43AA6000201BE500BF006002584A
:10195C00FFFF0F000000FF47002002400021024063
:10196C0000230240000052C7000021C3000084CBBA
:10197C000063025808000020632D3E0514F4800F0C
:10198C0013D10C4A914201D00020FAE446F48002B3
:10199C00A96821F0E0710A43AA600020F1E41A6EF4
:1019AC0042F020021A660120EBE40020E9E4022058
:1019BC00EAE400BF0060025810B5044603684349CE
:1019CC00434A934218BF8B4223D1424B9B6813F47A
:1019DC00403F14BF012300234BB300F0B5FF6368F5
:1019EC00B3F5003F1DD0B3F5403F1ED0B3F5803F9B
:1019FC0017D04008384B984252D9384B984255D999
:101A0C00374B98425AD92268936843F440739360D9
:101A1C004BE0344B9B6813F4403F14BF012300236D
:101A2C00DAE71B0CB0FBF3F0E3E78008E1E74FF4D7
:101A3C00002002F049F86368B3F5C01F16D00BD92B
:101A4C00B3F5101F28D01DD8B3F5E01F22D0B3F585
:101A5C00001FCED14009CCE7B3F5402F06D00AD8F1
:101A6C00B3F5802F02D0B3F5002FC2D19B0C5B00D5
:101A7C00B0FBF3F0BDE7B3F5801FF7D0B3F5A01FB3
:101A8C00B7D1F3E7B3F5201F08D0B3F5301FB0D1B1
:101A9C00000AAEE70009ACE78009AAE7C009A8E78D
:101AAC002268936823F44073936010BD2268936896
:101ABC0023F4407343F480739360F6E722689368D1
:101ACC0023F4407343F400739360EEE7002002406C
:101ADC000021024000230240105E5F0020BCBE00CB
:101AEC0040787D010063025830B583B00023019328
:101AFC00002800F058810446036EE3B123689A680D
:101B0C0012F0005F03D09968A84A0A409A602368D3
:101B1C009A6812F0805F1BD19968A54A0A4042F07E
:101B2C0080529A60A34B1B689B09A34AA2FB032318
:101B3C009B09019309E0FFF70BF80023636684F817
:101B4C005C30DBE7019B013B0193019B002BF9D13E
:101B5C0023689A6812F0805F40F0A480226E42F0F5
:101B6C0010022266626E42F00102626601259A68DA
:101B7C0012F0040F00F098800120226E12F0100F6A
:101B8C0040F00981002840F00681226E22F4817217
:101B9C0042F0020222669A6812F0010F22D18749A4
:101BAC00874A934218BF8B420CBF0123002340F09D
:101BBC0081808A6812F0010F78D0012280498968EF
:101BCC0011F0010F74D001210A430CBF0122002235
:101BDC0042B1002B79D07B4963688A6822F47C126D
:101BEC0013438B602168784B994270D0627EE36B13
:101BFC0043EA4233A268134394F8202043EA024399
:101C0C0094F82020012A7CD0A26A22B102F47872C6
:101C1C00E06A024313436C4A914277D0C8686B4A1E
:101C2C0002401343CB602268936813F0040F7AD000
:101C3C000121936813F0080F77D001230B4322D1B5
:101C4C00614B9A4273D0217E236B43EA8131D06879
:101C5C005F4B03400B43D36094F84430012B6DD0A1
:101C6C002268136923F0010313612268136923F0BE
:101C7C007043216C0B4313612268534B9A4202D080
:101C8C002046FFF799FE2369012B7BD02268136B4A
:101C9C0023F00F031363236E23F0030343F00103BC
:101CAC0023667DE0002562E7002066E7002285E7D9
:101CBC00002189E7444A926812F0010F03D00122F7
:101CCC0082F0010284E70022FAE7424984E7627E4F
:101CDC00E36B43EA4233E2681343A268082A08D054
:101CEC000C2A05D01C2A0AD0182A02D1182000E090
:101CFC000820034394F8202043EA024380E7102095
:101D0C00F7E7626A013A43EA42437DE7C868324A20
:101D1C0002401343CB602268136923F04063616B6C
:101D2C000B4313617FE7002183E7002386E7217EC5
:101D3C0094F838305B0043EA813188E72168224B04
:101D4C00994210D00A69254B1340A26C501EE26CCC
:101D5C0042EA0042206D0243606D0243134343F09C
:101D6C0001030B6181E70A691D4B1340A26CE06C07
:101D7C000243206D0243606D0243134343F00103A1
:101D8C000B6172E721680B6B23F00F03E269013AD8
:101D9C0013430B637FE7236E43F010032366012587
:101DAC00284603B030BD0125FAE700BFC0FFFF5F36
:101DBC00C0FFFF6F08000020632D3E05002002408D
:101DCC0000210240002302400060025803C0F0FFD3
:101DDC00FCBFFFFF006302580740F0FF1EF800FC39
:101DEC001FF800FC90F85C20012A00F0AA8030B4A7
:101DFC009CB00346012280F85C2002685248824263
:101E0C0043D0002000900098002842D0806810F049
:101E1C00040F47D00124906810F0040F40F082802A
:101E2C00002C7FD1484C4948824218BFA2423BD17A
:101E3C0000F500700A68002A47D0826822F44042FC
:101E4C004C68224382601A683F4D404CA24218BF36
:101E5C00AA422FD1AA6812F0010F27D001243B4AC5
:101E6C00926812F0010F23D0012222430CBF0122F1
:101E7C000022002A61D08468354A22400C688968A7
:101E8C0021430A438260002051E000F580700090ED
:101E9C00B9E71A6E42F020021A66002283F85C2021
:101EAC00012047E00024B6E72A48C3E70024D6E720
:101EBC000022DAE7284A926812F0010F03D00122BF
:101ECC0082F00102D5E70022FAE7816821F4404153
:101EDC00816019681C4D1D4CA14218BFA94217D135
:101EEC00A96811F0010F11D001241849896811F06B
:101EFC00010F00D0012222430CBF01220022F2B1BB
:101F0C008168134A0A408260002010E01446ECE716
:101F1C001149896811F0010F00D00122B2FA82F246
:101F2C005209ECE71A6E42F020021A6601200022D8
:101F3C0083F85C201CB030BC70470020F7E7002011
:101F4C00F5E70220704700BF00200240002102404C
:101F5C00E0F0FFFF0063025800600258002800F018
:101F6C009D8238B50446036813F0010F25D09E4AB4
:101F7C00136903F03803926A102B15D0182B0FD06D
:101F8C006368B3F5803F3DD0002B51D1964B1A6856
:101F9C0022F480321A601A6822F480221A6036E029
:101FAC0002F00302022AEBD18F4B1B6813F4003FA3
:101FBC0003D06368002B00F07382236813F0020FC8
:101FCC0070D0894A1369926A13F0380359D0182BD0
:101FDC0054D0E368002B00F0928083490A6822F009
:101FEC00190213430B6002F0D1F805467E4B1B68B7
:101FFC0013F0040F7AD102F0C9F8401B0228F5D96E
:10200C00032052E2784A136843F480331360636808
:10201C002BB302F0BBF80546734B1B6813F4003F5F
:10202C00CBD102F0B3F8401B6428F5D903203CE275
:10203C00B3F5A02F09D06C4B1A6822F480321A60C9
:10204C001A6822F480221A60E1E7674B1A6842F49E
:10205C0080221A601A6842F480321A60D7E702F0C4
:10206C0095F80546604B1B6813F4003FA5D002F0B1
:10207C008DF8401B6428F5D9032016E212F0030FEB
:10208C00A7D1594B1B6813F0040F03D0E368002B46
:10209C0000F00882544A536823F0FE43216943EA56
:1020AC0001635360236813F0100F52D04E4A13692A
:1020BC0003F03803926A082B39D0182B33D0E3691C
:1020CC00002B69D0484A136843F08003136002F078
:1020DC005DF80546444B1B6813F4807F53D102F026
:1020EC0055F8401B0228F5D90320DEE13E4A53681F
:1020FC0023F0FE43216943EA01635360D2E73A4A75
:10210C00136823F00103136002F040F80546364BC8
:10211C001B6813F0040FC5D002F038F8401B0228DE
:10212C00F5D90320C1E102F00302012AC7D12E4BDD
:10213C001B6813F4807F04D0E369802B01D001204D
:10214C00B3E1294AD36823F07C53216A43EA016343
:10215C00D360236813F0080F48D0636983B3224A15
:10216C00536F43F00103536702F010F805461E4B02
:10217C005B6F13F0020F39D102F008F8401B0228F4
:10218C00F5D9032091E1184AD36823F07C53216AD6
:10219C0043EA0163D360DCE7134A136823F080033E
:1021AC00136001F0F3FF05460F4B1B6813F4807F9F
:1021BC00CFD001F0EBFF401B0228F5D9032074E1CE
:1021CC00094A536F23F00103536701F0DFFF054603
:1021DC00054B5B6F13F0020F08D001F0D7FF401BCB
:1021EC000228F5D9032060E100440258236813F05B
:1021FC00200F29D0A3699BB1AF4A136843F48053D5
:10220C00136001F0C3FF0546AB4B1B6813F4005F72
:10221C001AD101F0BBFF401B0228F5D9032044E181
:10222C00A54A136823F48053136001F0AFFF0546F1
:10223C00A14B1B6813F4005F06D001F0A7FF401BF5
:10224C000228F5D9032030E1236813F0040F21D1C3
:10225C00636A002B00F02881974A126902F0380259
:10226C00182A00F0EA80022B75D0934A136823F0E9
:10227C008073136001F08AFF04468F4B1B6813F0C8
:10228C00007F00F0D88001F081FF001B0228F4D9F8
:10229C0003200AE1894A136843F48073136001F048
:1022AC0075FF0546854B1B6813F4807F06D101F042
:1022BC006DFF401B6428F5D90320F6E0A368012BC1
:1022CC000AD00BBB7C4B1A6F22F001021A671A6FF3
:1022DC0022F004021A6704E0774A136F43F00103FB
:1022EC001367A36833B301F051FF0546724B1B6FA4
:1022FC0013F0020FACD101F049FF401B41F28833BF
:10230C009842F3D90320D0E0052B09D06A4B1A6F01
:10231C0022F001021A671A6F22F004021A67E0E732
:10232C00654B1A6F42F004021A671A6F42F00102F1
:10233C001A67D6E701F02AFF05465F4B1B6F13F0B7
:10234C00020F85D001F022FF401B41F288339842E6
:10235C00F3D90320A9E0584A136823F08073136063
:10236C0001F014FF0546544B1B6813F0007F06D098
:10237C0001F00CFF401B0228F5D9032095E04E4BD1
:10238C00996A4F4A0A40A16AE06A41EA00110A437D
:10239C009A62226B013AC2F30802616B013949025D
:1023AC0089B20A43A16B0139090401F4FE010A4305
:1023BC00E16B0139090601F0FE410A431A63DA6A3E
:1023CC0022F00102DA62596B3E4A0A40A16C42EAE1
:1023DC00C1025A63DA6A22F00C02216C0A43DA62F7
:1023EC00DA6A22F00202616C0A43DA62DA6A42F4B7
:1023FC008032DA62DA6A42F40032DA62DA6A42F481
:10240C008022DA62DA6A42F00102DA621A6842F079
:10241C0080721A6001F0BAFE0446274B1B6813F059
:10242C00007F06D101F0B2FE001B0228F5D9032073
:10243C003BE0002039E0002037E01F4A916A106B26
:10244C00012B33D001F00303A26A934201D0012087
:10245C002BE0C1F30511E36A994201D0012024E07D
:10246C00C0F30802236B013B9A4201D001201CE00F
:10247C00C0F34622636B013B9A4201D0012014E069
:10248C00C0F30642A36B013B9A4211D1C0F3066024
:10249C00E36B013B98420DD0012006E00120704710
:1024AC00012002E0012000E0002038BD0120FCE703
:1024BC000120FAE70020F8E70044025800480258CF
:1024CC000CFCFFFF0700FFFF724B1B6903F0380386
:1024DC00102B00F0DB80182B10D00BB16E4870471E
:1024EC006C4B1B6813F0200F00F0D280694B1868FE
:1024FC00C0F3C100694B23FA00F07047654A916A3A
:10250C0001F00301906AC0F30510D36A03F00103D4
:10251C00526BC2F3CC0203FB02F307EE903AF8EED7
:10252C00677A002800F0B580012966D0F9B102293C
:10253C0000F08F8007EE100AF8EE476A9FED586A9C
:10254C0086EE267A534B1B6BC3F3080306EE903AC8
:10255C00F8EE666A9FED536A67EE867A76EEA77A96
:10256C00F7EE006A77EEA67A27EE277A61E0494B00
:10257C001B6813F0200F23D046490A68C2F3C1022E
:10258C00464BD34007EE103AF8EE476A07EE100AB6
:10259C00B8EE476A86EE867A0B6BC3F3080306EE39
:1025AC00903AF8EE666A9FED3F6A67EE867A76EEB1
:1025BC00A77AF7EE006A77EEA67A27EE277A38E04C
:1025CC0007EE100AF8EE476A9FED376A86EE267A18
:1025DC00304B1B6BC3F3080306EE903AF8EE666AB9
:1025EC009FED306A67EE867A76EEA77AF7EE006A90
:1025FC0077EEA67A27EE277A1BE007EE100AF8EEA4
:10260C00476A9FED276A86EE267A224B1B6BC3F333
:10261C00080306EE903AF8EE666A9FED226A67EEC2
:10262C00867A76EEA77AF7EE006A77EEA67A27EE30
:10263C00277A184B1B6BC3F34623013307EE903AF2
:10264C00F8EE677AC7EE276AFCEEE67A17EE900A88
:10265C00704707EE100AF8EE476A9FED146A86EE93
:10266C00267A0C4B1B6BC3F3080306EE903AF8EE7C
:10267C00666A9FED0C6A67EE867A76EEA77AF7EEBD
:10268C00006A77EEA67A27EE277AD2E708487047D9
:10269C00024870470044025800093D000090D003E6
:1026AC000024744A000000390024744C001B374C81
:1026BC00006CDC02002800F0368103469C4A12684C
:1026CC0002F00F028A420CD29948026822F00F02E3
:1026DC000A430260026802F00F028A4201D0012014
:1026EC00704770B51A6812F0040F0CD01869914A33
:1026FC00926902F07002904205D98E4CA26922F0C8
:10270C0070021043A0611A6812F0080F0CD05869BF
:10271C00884AD26902F07002904205D9854CE26970
:10272C0022F070021043E0611A6812F0100F0CD006
:10273C009869804AD26902F4E062904205D97D4CD6
:10274C00E26922F4E0621043E0611A6812F0200F93
:10275C000CD0D869774A126A02F07002904205D9FF
:10276C00744C226A22F07002104320621A6812F034
:10277C00020F0CD0D8686F4A926902F00F02904297
:10278C0005D96C4CA26922F00F021043A0611C46C3
:10279C000D461B6813F0010F41D0664A936923F470
:1027AC007063A1680B4393616368022B0AD0032BFF
:1027BC0027D0012B2CD05F4A126812F0040F06D1DF
:1027CC000120AFE0126812F4003F00F0AE805949CE
:1027DC000A6922F0070213430B6101F0D7FC06468D
:1027EC00544B1B6903F038036268B3EBC20F16D06D
:1027FC0001F0CCFC801B41F288339842F0D90320C5
:10280C0090E04C4A126812F0007FE0D1012089E080
:10281C00484A126812F4807FD9D1012082E02368E3
:10282C0013F0020F0CD0E268424B9B6903F00F03CC
:10283C009A4205D23F498B6923F00F031A438A61F0
:10284C003B4B1B6803F00F03AB420CD9384A13689F
:10285C0023F00F032B431360136803F00F03AB42F9
:10286C0001D001205EE0236813F0040F0CD0226924
:10287C00304B9B6903F070039A4205D22D498B694A
:10288C0023F070031A438A61236813F0080F0CD0ED
:10289C006269284BDB6903F070039A4205D2254923
:1028AC00CB6923F070031A43CA61236813F0100F2D
:1028BC000CD0A2691F4BDB6903F4E0639A4205D28A
:1028CC001C49CB6923F4E0631A43CA61236813F0F3
:1028DC00200F0CD0E269174B1B6A03F070039A426D
:1028EC0005D214490B6A23F070031A430A62FFF7EE
:1028FC00EBFD10498B69C3F303230F4AD35C03F040
:10290C001F03D8408B6903F00F03D35C03F01F0344
:10291C0020FA03F3094A1360094B1860094B186835
:10292C0001F0D2FB70BD012070470120FAE700BF17
:10293C000020005200440258247500080C000020AE
:10294C00080000200400002008B5FFF7BDFD0B4A6D
:10295C009369C3F303230A49CB5C03F01F0320FAEA
:10296C0003F3926902F00F02885C00F01F0023FA57
:10297C0000F0044A1060044A136008BD0044025879
:10298C00247500080C0000200800002008B5FFF793
:10299C00DBFF054BDB69C3F30213044AD35C03F082
:1029AC001F03D84008BD00BF00440258247500081E
:1029BC0008B5FFF7C9FF054BDB69C3F30223044AD3
:1029CC00D35C03F01F03D84008BD00BF004402587D
:1029DC0024750008404B9B6A03F00303032B79D04A
:1029EC0070B50E4604463C4A136823F080631360AE
:1029FC0001F0CCFB0546384B1B6813F0006F06D07A
:102A0C0001F0C4FB401B0228F5D9032070BD324BEA
:102A1C009A6A22F47C32216842EA01329A62626834
:102A2C00013AC2F30802A1680139490289B20A438A
:102A3C00E1680139090401F4FE010A4321690139F5
:102A4C00090601F0FE410A439A63DA6A22F0C002D9
:102A5C0061690A43DA62DA6A22F02002A1690A4348
:102A6C00DA62DA6A22F01002DA62D96B1B4A0A4087
:102A7C00E16942EAC102DA63DA6A42F01002DA6210
:102A8C00C6B91A46DB6A43F40023D362124A1368B0
:102A9C0043F08063136001F079FB04460E4B1B6816
:102AAC0013F0006F14D101F071FB001B0228F5D953
:102ABC000320ABE7012E05D0074AD36A43F4001379
:102ACC00D362E3E7044AD36A43F48013D362DDE7AD
:102ADC0000209BE701207047004402580700FFFFCD
:102AEC00404B9B6A03F00303032B79D070B50E4661
:102AFC0004463C4A136823F08053136001F046FBF4
:102B0C000546384B1B6813F0005F06D001F03EFB06
:102B1C00401B0228F5D9032070BD324B9A6A22F073
:102B2C007C72216842EA01529A626268013AC2F3ED
:102B3C000802A1680139490289B20A43E1680139E6
:102B4C00090401F4FE010A4321690139090601F067
:102B5C00FE410A431A64DA6A22F4406261690A434C
:102B6C00DA62DA6A22F40072A1690A43DA62DA6A7A
:102B7C0022F48072DA62596C1B4A0A40E16942EA1B
:102B8C00C1025A64DA6A42F48072DA62C6B91A4631
:102B9C00DB6A43F48003D362124A136843F0805318
:102BAC00136001F0F3FA04460E4B1B6813F0005F40
:102BBC0014D101F0EBFA001B0228F5D90320ABE786
:102BCC00012E05D0074AD36A43F08073D362E3E742
:102BDC00044AD36A43F40003D362DDE700209BE789
:102BEC0001207047004402580700FFFFF8B5044667
:102BFC00036813F0006F2BD0036EB3F5801F18D051
:102C0C0007D9B3F5001F1DD0B3F5401F2ED10025F9
:102C1C0006E05BBBA04AD36A43F40033D3620025C1
:102C2C009D4A136D23F44013216E0B43136500264C
:102C3C0010E002210430FFF7CDFE0546002DEFD049
:102C4C002E4607E002212430FFF74AFF0546F5E740
:102C5C0000263546236813F4807F17D0636D042B50
:102C6C0035D8DFE803F006272D0B0B00012635467F
:102C7C00F0E7894AD36A43F40033D36255BB864AE2
:102C8C00136D23F00703616D0B431365236813F475
:102C9C00806F3BD0D4F8A030B3F5800F4AD01BD84E
:102CAC0033B3B3F5001F20D10021201DFFF792FE96
:102CBC00054622E00021201DFFF78CFE0546DDE7CE
:102CCC00002104F12400FFF70BFF0546D6E701268F
:102CDC003546DBE72E46D9E7B3F5000F0DD0B3F53B
:102CEC00200F0AD0B3F5C00F07D0012635460DE0F2
:102CFC00694AD36A43F40033D36215BB664A936DB9
:102D0C0023F46003D4F8A0100B439365236813F4E9
:102D1C00006F32D0D4F8A430B3F1007F3AD012D87F
:102D2C00EBB1B3F1807F17D10021201DFFF752FECC
:102D3C00054619E0002104F12400FFF7D1FE0546F9
:102D4C00DBE72E46E2E7B3F1806F0DD0B3F1A06F55
:102D5C000AD0B3F1407F07D0012635460DE04E4A2C
:102D6C00D36A43F40033D362DDB94B4A936D23F03D
:102D7C00E063D4F8A4100B439365236813F0007F31
:102D8C002AD0A36C102B12D00DD9202B1DD0302B98
:102D9C0012D009E0002104F12400FFF7A1FE054642
:102DAC00E2E72E46E9E73BB10126354614E03A4A04
:102DBC00D36A43F40033D3626DB9374AD36C23F032
:102DCC003003A16C0B43D36406E00221201DFFF7F6
:102DDC0001FE0546F0E72E46236813F4805F24D0ED
:102DEC00A36DB3F5005F3BD009D88BB1B3F5805F11
:102DFC000BD10021201DFFF7EDFD05460DE0B3F5CD
:102E0C00405F0AD0B3F5804F07D0012635460CE061
:102E1C00214AD36A43F40033D36245BB1E4A136D77
:102E2C0023F4E043A16D0B431365236813F4005F97
:102E3C0035D0E36DB3F5003F27D01AD83BB1B3F5CD
:102E4C00803F1FD10121201DFFF7C4FD05462DBB7E
:102E5C00114A136D23F4E023E16D0B4313651EE05F
:102E6C00002104F12400FFF73BFE0546D5E72E4672
:102E7C00DBE7B3F5802FEAD0B3F5A02FE7D0B3F59D
:102E8C00403FE4D00126354609E0012104F124003D
:102E9C00FFF726FE0546DAE7004402582E46236863
:102EAC0013F4804F2CD0D4F8A830B3F1005F1FD0AE
:102EBC0012D83BB1B3F1805F17D10121201DFFF770
:102ECC0089FD0546DDB9944A936D23F0E043D4F8AF
:102EDC00A8100B43936513E0B3F1804FF2D0B3F11C
:102EEC00A04FEFD0B3F1405FECD00126354607E0A0
:102EFC00012104F12400FFF7F3FD0546E2E72E461D
:102F0C00236813F4004F1FD0A36EB3F1805F06D07B
:102F1C00B3F1005F11D03BB10126354614E07E4A77
:102F2C00D36A43F40033D3626DB97B4A136D23F03B
:102F3C004053A16E0B43136506E00121201DFFF7E2
:102F4C0049FD0546F0E72E46236813F0807F1ED01E
:102F5C00636C032B17D8DFE803F0070210076E4AE7
:102F6C00D36A43F40033D36285B96B4AD36C23F034
:102F7C000303616C0B43D36409E00221201DFFF7AE
:102F8C0029FD0546F0E70126354600E02E4623686C
:102F9C0013F4800F1FD1236813F0010F00F09880F9
:102FAC00636F282B00F29080DFE803F07E8E8E8E0C
:102FBC008E8E8E8E798E8E8E8E8E8E8E878E8E8E41
:102FCC008E8E8E8E7E8E8E8E8E8E8E8E7E8E8E8E35
:102FDC008E8E8E8E7E00514A136843F4807313607C
:102FEC0001F0D4F807464D4B1B6813F4807F05D1D4
:102FFC0001F0CCF8C01B6428F5D90325002D4AD16B
:10300C00454B1B6FD4F8AC20534013F4407F0CD0CD
:10301C00414B1A6F22F44072196F41F480311967D9
:10302C00196F21F4803119671A67D4F8AC30B3F5F5
:10303C00807F15D08DBBD4F8AC3003F44072B2F560
:10304C00407F1ED0344A136923F47C5313613249F8
:10305C000B6FD4F8AC20C2F30B0213430B679AE747
:10306C0001F094F807462C4B1B6F13F0020FE1D1C3
:10307C0001F08CF8C01B41F288339842F3D9032538
:10308C00D8E72548026922F47C52254901EA13133A
:10309C0013430361DBE72E467DE72E467BE70121D8
:1030AC00201DFFF797FC05468DB91B4A536D23F085
:1030BC003803616F0B4353650AE0012104F12400CE
:1030CC00FFF70EFD0546EFE70126354600E02E46DC
:1030DC00236813F0020F26D0236F052B19D8DFE8D5
:1030EC0003F00803110808080121201DFFF772FCEA
:1030FC000546BDB9084A536D23F00703216F0B43F6
:10310C00536510E0012104F12400FFF7E9FC0546AA
:10311C00EFE70126354606E0004402580048025805
:10312C00CFFFFF002E46236813F0040F22D0D4F8F3
:10313C008C30052B1AD8DFE803F0080312080808B6
:10314C000121201DFFF746FC054695B9AE4A936D4B
:10315C0023F00703D4F88C100B4393650AE001218C
:10316C0004F12400FFF7BCFC0546EEE701263546CA
:10317C0000E02E46236813F0200F2CD0D4F88830B2
:10318C00B3F1005F1FD012D83BB1B3F1805F17D100
:10319C000021201DFFF71EFC0546DDB99A4A536D30
:1031AC0023F0E043D4F888100B43536513E0B3F1DC
:1031BC00804FF2D0B3F1A04FEFD0B3F1405FECD021
:1031CC000126354607E0022104F12400FFF788FCB4
:1031DC000546E2E72E46236813F0400F2CD0D4F8B6
:1031EC009430B3F5006F1FD012D83BB1B3F5806F9C
:1031FC0017D10021201DFFF7EDFB0546DDB9824AF2
:10320C00936D23F4E053D4F894100B43936513E0BF
:10321C00B3F5805FF2D0B3F5A05FEFD0B3F5406F9C
:10322C00ECD00126354607E0022104F12400FFF71B
:10323C0057FC0546E2E72E46236813F0800F2CD08E
:10324C00D4F89830B3F5804F1FD012D83BB1B3F5FA
:10325C00005F17D10021201DFFF7BCFB0546DDB92F
:10326C00694A936D23F46043D4F898100B4393652B
:10327C0013E0B3F5004FF2D0B3F5204FEFD0B3F518
:10328C00C04FECD00126354607E0022104F12400A2
:10329C00FFF726FC0546E2E72E46236813F0080FDD
:1032AC000AD0E36FB3F5805F27D0574A536D23F4F0
:1032BC004053E16F0B435365236813F0100F0CD090
:1032CC00D4F89030B3F5807F20D04F4A936D23F41F
:1032DC004073D4F890100B439365236813F4002FBC
:1032EC0034D0D4F89C30B3F5803F27D0B3F5003FF1
:1032FC001AD0A3B10126354628E0022104F124009E
:10330C00FFF7EEFB0028D0D00126CEE7022104F116
:10331C002400FFF7E5FB0028D7D00126D5E70021D4
:10332C00201DFFF757FB05467DB9374A936D23F4F3
:10333C004033D4F89C100B43936507E0022104F151
:10334C002400FFF7CDFB0546EEE72E46236813F469
:10335C00802F24D0D4F88030B3F5001F17D0B3F5EC
:10336C00401F0AD0B3F5801F02D00126354616E067
:10337C00254AD36A43F40033D3627DB9224A536D94
:10338C0023F44013D4F880100B43536507E001215C
:10339C0004F12400FFF7A4FB0546EEE72E46236854
:1033AC0013F4803F14D0E36C2BB1B3F5803F23D0E2
:1033BC00012635460CE0144AD36A43F40033D36239
:1033CC0005BB114AD36C23F48033E16C0B43D364FB
:1033DC00236813F0005F19D1236813F4003F2FD03A
:1033EC00A36FB3F5807F1DD019D9B3F5007F1ED024
:1033FC00B3F5407F14D11AE00221201DFFF7EAFA41
:10340C000546DDE72E46E3E700440258022104F1AD
:10341C002400FFF765FB0028DED00126DCE733B182
:10342C0001260DE0214AD36A43F40033D362002D08
:10343C0031D11E4A536D23F44073A16F0B43536576
:10344C00236813F4801F06D0184A136D23F0004331
:10345C00E16E0B431365236813F4001F06D0134A67
:10346C00136D23F08073616E0B431365236813F0A7
:10347C00804F09D00D4B1A6922F400421A611A6967
:10348C00D4F8B0100A431A612368002B05DB06B18F
:10349C0001263046F8BD2E46D2E7044AD36C23F001
:1034AC004053216D0B43D364F1E700BF0044025835
:1034BC0008B5FFF749FA054B1B6AC3F30213044A1C
:1034CC00D35C03F01F03D84008BD00BF0044025872
:1034DC002475000810B478498C6A8A6AC2F30532E4
:1034EC00CB6AC3F30013C96BC1F3CC0103FB01F32B
:1034FC00002A00F0DB8004F0030407EE903AF8EEAB
:10350C00677A012C66D0FCB1022C00F0B28007EE79
:10351C00102AB8EE477A9FED696AC6EE076A664BC9
:10352C009B6BC3F3080307EE103AB8EE477A9FED96
:10353C00646A67EE867A77EE277AB7EE007A77EED2
:10354C00877A66EEA76A61E05B4B1B6813F0200F6D
:10355C0023D0594C2168C1F3C1015A4BCB4007EE23
:10356C00103AB8EE477A06EE902AB8EE666AC7EEC5
:10357C00066AA36BC3F3080307EE103AB8EE477A5A
:10358C009FED4F6A67EE867A77EE277AB7EE007A70
:10359C0077EE877A66EEA76A38E007EE102AB8EE67
:1035AC00477A9FED496AC6EE076A434B9B6BC3F3A0
:1035BC00080307EE103AB8EE477A9FED416A67EEC2
:1035CC00867A77EE277AB7EE007A77EE877A66EE10
:1035DC00A76A1BE007EE102AB8EE477A9FED376A10
:1035EC00C6EE076A344B9B6BC3F3080307EE103A25
:1035FC00B8EE477A9FED326A67EE867A77EE277AD5
:10360C00B7EE007A77EE877A66EEA76A2A4A936B52
:10361C00C3F3462307EE103AB8EE477AB7EE006ACA
:10362C0037EE067AC6EE877AFCEEE77AC0ED007AC2
:10363C00936BC3F3064307EE103AB8EE477A37EEB6
:10364C00067AC6EE877AFCEEE77AC0ED017A936BC8
:10365C00C3F3066307EE903AF8EE677A77EE867A54
:10366C0086EEA77ABCEEC77A80ED027A5DF8044B41
:10367C00704707EE102AB8EE477A9FED146AC6EE33
:10368C00076A0D4B9B6BC3F3080307EE103AB8EEB9
:10369C00477A9FED0B6A67EE867A77EE277AB7EE5C
:1036AC00007A77EE877A66EEA76AAFE700230360AD
:1036BC0043608360DAE700BF004402580024744A78
:1036CC00000000390090D0030024744C001B374CD0
:1036DC0010B478498C6A8A6AC2F30552CB6AC3F378
:1036EC000023496CC1F3CC0103FB01F3002A00F069
:1036FC00DB8004F0030407EE903AF8EE677A012CB5
:10370C0066D0FCB1022C00F0B28007EE102AB8EEA5
:10371C00477A9FED696AC6EE076A664B1B6CC3F36A
:10372C00080307EE103AB8EE477A9FED646A67EE2D
:10373C00867A77EE277AB7EE007A77EE877A66EE9E
:10374C00A76A61E05B4B1B6813F0200F23D0594C28
:10375C002168C1F3C1015A4BCB4007EE103AB8EEC9
:10376C00477A06EE902AB8EE666AC7EE066A236CB4
:10377C00C3F3080307EE103AB8EE477A9FED4F6A91
:10378C0067EE867A77EE277AB7EE007A77EE877A4D
:10379C0066EEA76A38E007EE102AB8EE477A9FED7E
:1037AC00496AC6EE076A434B1B6CC3F3080307EE6A
:1037BC00103AB8EE477A9FED416A67EE867A77EE5B
:1037CC00277AB7EE007A77EE877A66EEA76A1BE067
:1037DC0007EE102AB8EE477A9FED376AC6EE076AF5
:1037EC00344B1B6CC3F3080307EE103AB8EE477A60
:1037FC009FED326A67EE867A77EE277AB7EE007A1B
:10380C0077EE877A66EEA76A2A4A136CC3F34623CF
:10381C0007EE103AB8EE477AB7EE006A37EE067A42
:10382C00C6EE877AFCEEE77AC0ED007A136CC3F330
:10383C00064307EE103AB8EE477A37EE067AC6EE34
:10384C00877AFCEEE77AC0ED017A136CC3F306635A
:10385C0007EE903AF8EE677A77EE867A86EEA77ADC
:10386C00BCEEC77A80ED027A5DF8044B704707EE28
:10387C00102AB8EE477A9FED146AC6EE076A0D4B14
:10388C001B6CC3F3080307EE103AB8EE477A9FEDB2
:10389C000B6A67EE867A77EE277AB7EE007A77EEC8
:1038AC00877A66EEA76AAFE7002303604360836004
:1038BC00DAE700BF004402580024744A00000039C3
:1038CC000090D0030024744C001B374C10B4784982
:1038DC008C6A8A6AC2F30512CB6A03F00103496B46
:1038EC00C1F3CC0103FB01F3002A00F0DB8004F0F0
:1038FC00030407EE903AF8EE677A012C66D0FCB11F
:10390C00022C00F0B28007EE102AB8EE477A9FED39
:10391C00696AC6EE076A664B1B6BC3F3080307EEB6
:10392C00103AB8EE477A9FED646A67EE867A77EEC6
:10393C00277AB7EE007A77EE877A66EEA76A61E0AF
:10394C005B4B1B6813F0200F23D0594C2168C1F33B
:10395C00C1015A4BCB4007EE103AB8EE477A06EE4F
:10396C00902AB8EE666AC7EE066A236BC3F30803A7
:10397C0007EE103AB8EE477A9FED4F6A67EE867AFB
:10398C0077EE277AB7EE007A77EE877A66EEA76A3B
:10399C0038E007EE102AB8EE477A9FED496AC6EE7A
:1039AC00076A434B1B6BC3F3080307EE103AB8EEE0
:1039BC00477A9FED416A67EE867A77EE277AB7EE03
:1039CC00007A77EE877A66EEA76A1BE007EE102A7C
:1039DC00B8EE477A9FED376AC6EE076A344B1B6B1D
:1039EC00C3F3080307EE103AB8EE477A9FED326A3C
:1039FC0067EE867A77EE277AB7EE007A77EE877ADB
:103A0C0066EEA76A2A4A136BC3F3462307EE103AF5
:103A1C00B8EE477AB7EE006A37EE067AC6EE877ACA
:103A2C00FCEEE77AC0ED007A136BC3F3064307EEA6
:103A3C00103AB8EE477A37EE067AC6EE877AFCEE85
:103A4C00E77AC0ED017A136BC3F3066307EE903A85
:103A5C00F8EE677A77EE867A86EEA77ABCEEC77AAE
:103A6C0080ED027A5DF8044B704707EE102AB8EE31
:103A7C00477A9FED146AC6EE076A0D4B1B6BC3F3B6
:103A8C00080307EE103AB8EE477A9FED0B6A67EE23
:103A9C00867A77EE277AB7EE007A77EE877A66EE3B
:103AAC00A76AAFE70023036043608360DAE700BFD7
:103ABC00004402580024744A000000390090D003DE
:103ACC000024744C001B374C00B58BB0B0F5807FD4
:103ADC0017D0B0F5806F44D0B0F5006F77D0B0F54B
:103AEC00805F00F0AA80B0F5002F00F0DC80B0F50C
:103AFC00803F00F0FE80B0F5804F00F00C8100207C
:103B0C000CE0A34B1B6D03F00703042B00F22B817D
:103B1C00DFE803F0070C110316009E480BB05DF8AC
:103B2C0004FB07A8FFF7D2FE0898F7E704A8FFF7F5
:103B3C00D1FC0498F2E701A8FFF7CAFD0198EDE764
:103B4C00934BDB6C13F0405300F00F81B3F1805FAB
:103B5C0000F00D81B3F1005F01D00020DEE78E484C
:103B6C00DCE78B4B9B6D03F46003B3F5800F27D020
:103B7C0009D803B3B3F5001F40F0FB8004A8FFF78E
:103B8C00A9FC0498CAE7B3F5C00F12D0B3F5000F27
:103B9C0040F0EF807E4BDB6C13F0405300F0EB8079
:103BAC00B3F1805F00F0E980B3F1005F0DD000202D
:103BBC00B4E77848B2E707A8FFF788FE0898ADE7A6
:103BCC0001A8FFF785FD0198A8E77348A6E7704B9D
:103BDC009B6D03F0E063B3F1007F27D009D803B3EA
:103BEC00B3F1807F40F0CB8004A8FFF773FC0498FE
:103BFC0094E7B3F1407F12D0B3F1806F40F0BF80F7
:103C0C00634BDB6C13F0405300F0BB80B3F1805F6F
:103C1C0000F0B980B3F1005F0DD000207EE75D4865
:103C2C007CE707A8FFF752FE089877E701A8FFF793
:103C3C004FFD019872E7584870E7554B1B6D03F424
:103C4C00E043B3F5005F27D009D803B3B3F5805F29
:103C5C0040F09B8004A8FFF73DFC04985EE7B3F5A9
:103C6C00405F12D0B3F5804F40F08F80484BDB6C37
:103C7C0013F0405300F09680B3F1805F00F0948015
:103C8C00B3F1005F0DD0002048E7424846E707A893
:103C9C00FFF71CFE089841E701A8FFF719FD0198F2
:103CAC003CE73D483AE73A4B9B6D03F44033B3F5A0
:103CBC00803F0AD0B3F5003F0CD00BB100202DE7AC
:103CCC0004A8FFF707FC049828E701A8FFF700FDFC
:103CDC00039823E72E4BDB6C13F0405366D0B3F103
:103CEC00805F65D0B3F1005F01D0002016E72A4851
:103CFC0014E7274BDB6C13F4803302D033B900206C
:103D0C000CE707A8FFF7E2FD089807E704A8FFF700
:103D1C00E1FB069802E71E4B9B6D03F0E043B3F109
:103D2C00005F19D00AD9B3F1804F43D0B3F1A04F43
:103D3C0017D0B3F1405F0AD00020EFE64BB1B3F1DE
:103D4C00805FF9D104A8FFF7C5FB0598E6E6134898
:103D5C00E4E6FFF7ADFBE1E601A8FFF7B9FC02983A
:103D6C00DCE60D48DAE60020D8E60C48D6E60C482E
:103D7C00D4E60020D2E60948D0E60948CEE6002079
:103D8C00CCE60648CAE60648C8E60020C6E600BFF0
:103D9C00004402580080BB00006CDC020090D00391
:103DAC0000093D000448B9E60448B7E60248B5E608
:103DBC000248B3E60148B1E60090D00300093D008B
:103DCC00F0B583B000233AE0092400E00024B440AD
:103DDC003C4302356B4E46F825406B4C2568D4436A
:103DEC0004EA05064F6817F4803F01D042EA050645
:103DFC00654D2E606E6804EA06054F6817F4003FA7
:103E0C0001D042EA0605604E75604FF0B0452D6852
:103E1C0004EA05064F6817F4801F01D042EA050634
:103E2C004FF0B0452E606D682C404E6816F4001FA4
:103E3C0001D042EA05044FF0B042546001330A68E5
:103E4C0032FA03F400F09C8001249C402240F5D00F
:103E5C004D686E1E112D18BF012E01D9122D12D1D5
:103E6C0086685F000325BD4026EA0506CD68BD4087
:103E7C0035438560466826EA04064D68C5F3001490
:103E8C009C4034434460C6685F000325BD40EC434E
:103E9C0026408D68BD403543C5604D68122D18BF56
:103EAC00022D13D1DE08083650F826E003F0070582
:103EBC004FEA850C0F2505FA0CF52EEA050E0D6957
:103ECC0005FA0CF545EA0E0540F826500568254024
:103EDC004C6804F00304BC402C4304604C6814F0A0
:103EEC00805FABD0294CD4F8F45045F00205C4F8EF
:103EFC00F450D4F8F44004F002040194019C9D08A1
:103F0C00AE1C204C54F8267003F00304A6000F24BA
:103F1C00B44027EA04071E4CA0423FF457AF04F507
:103F2C008064A0421ED004F58064A0421CD004F52D
:103F3C008064A0421AD004F58064A04218D004F525
:103F4C008064A04216D004F58064A04214D004F51D
:103F5C008064A04212D004F50064A0423FF434AF58
:103F6C000A2434E7012432E7022430E703242EE745
:103F7C0004242CE705242AE7062428E7072426E74F
:103F8C0003B0F0BD000400588000005800440258F3
:103F9C000000025812B909048161704781617047B1
:103FAC00024A136843F48073136070470048025848
:103FBC00134BDB6813F0040F07D1114BDB6803F0D4
:103FCC00070383421AD00120704710B50C4AD368FE
:103FDC0023F007031843D06000F0D8F80446084BD0
:103FEC005B6813F4005F07D100F0D0F8001BB0F54C
:103FFC007A7FF4D9012000E0002010BD002070472A
:10400C0000480258024AD36843F08073D36070476B
:10401C00004802580649CB6823F4E0631B041B0CD0
:10402C00000200F4E0600343024A1A43CA6070477E
:10403C0000ED00E00000FA0530B4154BDB68C3F36B
:10404C000223C3F10704042C28BF04241D1D062DD4
:10405C0014D9033B4FF0FF3505FA04F421EA0401AF
:10406C00994005FA03F322EA03031943002807DBFE
:10407C000901C9B2074B195430BC70470023E9E75A
:10408C0000F00F000901C9B2034B1954F4E700BF4B
:10409C0000ED00E000E400E014ED00E00138B0F1C8
:1040AC00807F0AD2064B5860064AF02182F8231012
:1040BC000020986007221A6070470120704700BFEB
:1040CC0010E000E000ED00E0104B1B780BB9012074
:1040DC00704710B504464FF47A70B0FBF3F30C4AFA
:1040EC001068B0FBF3F0FFF7D9FF68B90F2C01D9BA
:1040FC0001200AE0002221464FF0FF30FFF79CFF21
:10410C00044B1C60002000E0012010BD00000020CA
:10411C00080000200400002010B50320FFF77AFFF0
:10412C00FEF7D2F90F498B69C3F303230E4AD35C14
:10413C0003F01F03D8408B6903F00F03D35C03F02B
:10414C001F0320FA03F3094A1360094B186000207F
:10415C00FFF7BAFF10B10124204610BD0446FDF74D
:10416C00E7F8F9E700440258247500080C00002019
:10417C0008000020034B1B78034A11680B441360A2
:10418C00704700BF0000002054070020014B186846
:10419C00704700BF5407002038B50446FFF7F6FF00
:1041AC000546B4F1FF3F02D0044B1B781C44FFF7CB
:1041BC00EDFF401BA042FAD338BD00BF0000002029
:1041CC00002857D010B5044690F84130002B41D050
:1041DC00242384F841302268136823F00103136010
:1041EC006368226823F0706313612268936823F478
:1041FC0000439360E368012B31D0A368226843F439
:10420C0004439360E368022B2FD0226851681A4B49
:10421C000B4353602268D36823F40043D3602369B3
:10422C0062691343A169226843EA0123D360E369FD
:10423C00216A22680B4313602268136843F0010360
:10424C00136000206064202384F84130206384F8DC
:10425C00420010BD80F84030FCF7DCFCB8E7A368E6
:10426C00226843F400439360CCE723684FF4006268
:10427C005A60CAE7012070470080000290F8413074
:10428C00DBB2202B24D190F84030012B22D001231B
:10429C0080F84030242380F841300268136823F002
:1042AC00010313600268136823F4805313600268DF
:1042BC001368194311600268136843F0010313601B
:1042CC00202380F84130002380F840301846704796
:1042DC00022070470220704790F84130DBB2202B4F
:1042EC0022D190F84030012B20D0012380F84030AF
:1042FC00242380F841300268136823F00103136013
:10430C000268136823F4706343EA012111600268A8
:10431C00136843F001031360202380F8413000231D
:10432C0080F84030184670470220704702207047D2
:10433C002DE9F04387B00446016883680269134392
:10434C0042691343C2691343426E13430868924A8D
:10435C0002401A430A602268536823F44053E16810
:10436C000B435360A16922688C4B9A4201D0236A9B
:10437C00194390688A4B03400B4393602268D36ABD
:10438C0023F00F03616A0B43D3622368854A93427F
:10439C0027D0854A934261D0844A934278D0844A8C
:1043AC00934200F08F80834A934200F0A580824AAA
:1043BC00934200F0BB80814A934200F01181804A05
:1043CC00934200F027817F4A934200F03A817E4A63
:1043DC00934200F05F81714A934200F08481802205
:1043EC009DE17A4A526D02F03802282A34D8DFE86F
:1043FC0012F0290033003300330033003300330054
:10440C0033009501330033003300330033003300A5
:10441C0033002B0033003300330033003300330000
:10442C0033002D00330033003300330033003300EE
:10443C0033002F00330033003300330033003300DC
:10444C003300310001226AE1082268E1102266E1A2
:10445C00202264E1402262E1802260E15B4A526DDD
:10446C0002F00702052A11D8DFE812F00600A701B6
:10447C0008000A000C000E00002250E108224EE158
:10448C0010224CE120224AE1402248E1802246E100
:10449C004E4A526D02F00702052A11D8DFE812F0DD
:1044AC0006008F0108000A000C000E00002236E105
:1044BC00082234E1102232E1202230E140222EE1A8
:1044CC0080222CE1414A526D02F00702052A11D8D4
:1044DC00DFE812F00600770108000A000C000E005D
:1044EC0000221CE108221AE1102218E1202216E118
:1044FC00402214E1802212E1344A526D02F007028C
:10450C00052A11D8DFE812F006005F0108000A0046
:10451C000C000E00002202E1082200E11022FEE055
:10452C002022FCE04022FAE08022F8E0274A526D7B
:10453C0002F03802282A51D8DFE812F02900500086
:10454C0050005000500050005000500047015000E7
:10455C005000500050005000500050002B005000F4
:10456C005000500050005000500050004A005000C5
:10457C005000500050005000500050004C005000B3
:10458C005000500050005000500050004E000122CE
:10459C00C5E00822C3E000BFF369FFCF000C005850
:1045AC00FFF4FF110010014000440040004800409F
:1045BC00004C0040005000400014014000780040C6
:1045CC00007C004000180140001C014000440258CF
:1045DC001022A4E02022A2E04022A0E080229EE053
:1045EC004D4A526D02F00702052A11D8DFE812F08D
:1045FC000600EF0008000A000C000E0000228EE0FE
:10460C0008228CE010228AE0202288E0402286E0FA
:10461C00802284E0404A526D02F00702052A0ED82F
:10462C00DFE802F003D70507090B002277E0082228
:10463C0075E0102273E0202271E040226FE08022AE
:10464C006DE0354A526D02F03802282A20D8DFE896
:10465C0002F0151F1F1F1F1F1F1FC21F1F1F1F1F11
:10466C001F1F171F1F1F1F1F1F1F191F1F1F1F1F5C
:10467C001F1F1B1F1F1F1F1F1F1F1D0001224EE08E
:10468C0008224CE010224AE0202248E0402246E07A
:10469C00802244E0204A526D02F03802282A20D8A9
:1046AC00DFE802F0151F1F1F1F1F1F1F9B1F1F1F5F
:1046BC001F1F1F1F171F1F1F1F1F1F1F191F1F1F0C
:1046CC001F1F1F1F1B1F1F1F1F1F1F1F1D0001222E
:1046DC0025E0082223E0102221E020221FE04022C6
:1046EC001DE080221BE002F50E32926D02F00702F3
:1046FC00052A0ED8DFE802F003730507090B022226
:10470C000DE008220BE0102209E0202207E04022F5
:10471C0005E0802203E000BF0044025804228A49CD
:10472C008B425ED0E369B3F5004F00F0BA80402AAB
:10473C0000F27C81DFE812F02B014F017A017A0143
:10474C0052017A017A017A0157017A017A017A01D0
:10475C007A017A017A017A015C017A017A017A0193
:10476C007A017A017A017A017A017A017A017A0165
:10477C007A017A017A017A0129017A017A017A01A6
:10478C007A017A017A017A017A017A017A017A0145
:10479C007A017A017A017A017A017A017A017A0135
:1047AC007A017A017A017A017A017A017A017A0125
:1047BC007A017A017A017A0168010422AFE70422B6
:1047CC00ADE70422ABE70422A9E70422A7E7042201
:1047DC00A5E70422A3E70422A1E704229FE7042211
:1047EC009DE7082A48D007D9202A0ED0402A54D059
:1047FC00102A46D00120E3E0022A08D0042AF9D17D
:10480C0003A8FEF767FE049803E0504804E0FEF7A7
:10481C004FFE002800F0FC80626A4D4B33F81220EA
:10482C00B0FBF2F3656805EB4501994200F2F280AA
:10483C00B3EB053F00F2F0804FF0000892B200237A
:10484C004146FBF7EFFD0F0247EA106706026808C6
:10485C002A46434616EB000847F1000940464946F4
:10486C00FBF7E0FDA0F540723A4B9A4200F2D6807D
:10487C002368D8600020A3E06846FEF729FF019862
:10488C00C7E7354B1B6813F0200F08D0324B1B6861
:10489C00C3F3C1033148D840BBE72020BCE72F4805
:1048AC00BAE7402A00F2BC80DFE802F02345BABA2E
:1048BC0048BABABA5ABABABABABABABA5FBABABA79
:1048CC00BABABABABABABABABABABABA21BABABAD5
:1048DC00BABABABABABABABABABABABABABABABA2C
:1048EC00BABABABABABABABABABABABA6B0017483A
:1048FC0004E0FEF74BF8002800F09480626A144B39
:10490C0033F81230B0FBF3F06268530803EB40034A
:10491C00B3FBF2F39BB2A3F110014FF6EF7291428D
:10492C0000F2828023F00F02C3F342031343226888
:10493C00D360002044E0FEF73BF8DCE703A8FEF769
:10494C00C9FD0498D7E700BF000C005800093D00D2
:10495C000C750008FFFC0F00004402580090D003B7
:10496C006846FEF7B5FE0198C5E7334B1B6813F09C
:10497C00200F08D0304B1B68C3F3C1032F48D8401D
:10498C00B9E72020BAE72D48B8E72D4803E0FDF73A
:10499C00FDFF00284CD0626A2A4B33F81230B0FB72
:1049AC00F3F0636800EB5300B0FBF3F080B2A0F1BE
:1049BC0010024FF6EF739A423CD82368D86000205F
:1049CC000123A4F86A30A4F868300023E366236757
:1049DC0007B0BDE8F083FDF7EBFFDAE703A8FEF7BD
:1049EC0079FD0498D5E76846FEF772FE0198D0E78A
:1049FC00114B1B6813F0200F08D00F4B1B68C3F32F
:104A0C00C1030E48D840C4E72020C4E70B48C2E7D6
:104A1C000020D5E70120D3E70120D1E70120CFE723
:104A2C000120CDE70020CBE70120C9E70120C7E733
:104A3C000020C5E70120C3E7004402580090D003D2
:104A4C0000093D000C750008836A13F0010F06D0B5
:104A5C000268536823F40033C16A0B435360836AC2
:104A6C0013F0020F06D00268536823F48033016BF5
:104A7C000B435360836A13F0040F06D0026853682B
:104A8C0023F48023416B0B435360836A13F0080FAC
:104A9C0006D00268536823F40043816B0B435360C8
:104AAC00836A13F0100F06D00268936823F48053C6
:104ABC00C16B0B439360836A13F0200F06D002681E
:104ACC00936823F40053016C0B439360836A13F0D7
:104ADC00400F0AD00268536823F48013416C0B43D7
:104AEC005360436CB3F5801F0BD0836A13F0800FB7
:104AFC0006D00268536823F40023C16C0B43536047
:104B0C0070470268536823F4C003816C0B435360F5
:104B1C00EBE72DE9F04104460F4616469846069DF4
:104B2C002368DB6937EA03030CBF01230023B3427C
:104B3C003FD1B5F1FF3FF3D0FFF728FBA0EB080006
:104B4C00A84222D80DB323681A6812F0040FE7D0DC
:104B5C00DA6912F4006FE3D04FF400621A62226833
:104B6C00136823F4D07313602268936823F0010355
:104B7C0093602023C4F88030C4F88430C4F88830A3
:104B8C00002384F87C30032014E02268136823F49B
:104B9C00D07313602268936823F001039360202381
:104BAC00C4F88030C4F88430002384F87C300320AF
:104BBC0000E00020BDE8F08130B583B0044600234E
:104BCC00C0F88830FFF7E2FA054623681B6813F03B
:104BDC00080F0ED123681B6813F0040F17D1202384
:104BEC00C4F88030C4F88430002084F87C0003B012
:104BFC0030BD6FF07E430093034600224FF400114A
:104C0C002046FFF786FF0028E4D00320EFE76FF083
:104C1C007E4300932B4600224FF480012046FFF781
:104C2C0078FF0028DBD00320E1E778B310B5044609
:104C3C00D0F880300BB32423C4F88030226813687A
:104C4C0023F0010313602046FFF772FB012813D0F9
:104C5C00A36ABBB92268536823F49043536022685B
:104C6C00936823F02A0393602268136843F00103CE
:104C7C0013602046FFF7A0FF10BD80F87C30FCF7D6
:104C8C0037F8D8E72046FFF7DFFEE3E7012070474F
:104C9C0010B485B002461A4B93E8030004AC04E947
:104CAC0003006C46083393E8030084E80300536E5A
:104CBC00FBB111688B68C3F34263886804A901EBEC
:104CCC00507010F8081C090110F8100C91FBF0F151
:104CDC00A2F86A1004A90B4413F8081C090113F874
:104CEC00103C91FBF3F3A2F8683005B05DF8044B6F
:104CFC0070470123A2F86A30A2F86830F5E700BFCC
:104D0C00FC74000890F87C30012B18D0012380F83B
:104D1C007C302423C0F8803003681A68196821F0AD
:104D2C000101196022F000520023436601680A60F9
:104D3C002022C0F8802080F87C3018467047022072
:104D4C00704738B590F87C30012B1DD004460123F8
:104D5C0080F87C302423C0F8803003681D681A6802
:104D6C0022F001021A600268936823F06043194331
:104D7C009160FFF78DFF23681D602023C4F88030FD
:104D8C00002084F87C0038BD0220FCE738B590F890
:104D9C007C30012B1DD00446012380F87C30242369
:104DAC00C0F8803003681D681A6822F001021A608E
:104DBC000268936823F0606319439160FFF768FF02
:104DCC0023681D602023C4F88030002084F87C0008
:104DDC0038BD0220FCE70000431EDBB2012B01D9D9
:104DEC0001207047002965D010B400230B604B6084
:104DFC008B60CB600B61022802D00024002213E0F0
:104E0C002D4B1B6813F0010F01D12C4CF6E74FF41E
:104E1C000074F3E7501C40F08070C86036E0531CFF
:104E2C0043F080730B610132012A3FD89000244B70
:104E3C001B5813F0010F06D084EA030010F0020F88
:104E4C0001D1501C086013F0100F06D084EA030047
:104E5C0010F0200F01D1501C486013F4807F06D055
:104E6C0084EA030010F4007F01D1501C886013F415
:104E7C00803F0BD084EA030010F4802F06D113F48A
:104E8C00003FC7D1501C40F48030C86013F0807FC5
:104E9C00C9D084EA030010F0806FC4D113F0007FF6
:104EAC00BDD1531C43F480330B61BCE700205DF88B
:104EBC00044B70470120704700B4005222020404D6
:104ECC0004B400522DE9F04105460F4616469846AB
:104EDC00069C2B681B6A3B4214BF01230023B34280
:104EEC0013D0B4F1FF3FF4D0FFF750F9A0EB08005A
:104EFC00A04201D8002CECD14FF400736B65AB6D64
:104F0C0043F00103AB65012000E00020BDE8F08117
:104F1C0070B582B004460D461646FFF737F9626D40
:104F2C00013A012A05D91023A3650123184602B0C2
:104F3C0070BD00960346002220212046FFF7C2FFD9
:104F4C0003460028F2D129686A68120242EA01423B
:104F5C00A9680A43E86821680243C1F800220222CA
:104F6C006265E3E7C16500207047000030B583B08F
:104F7C000446FFF70BF9002C7CD005460023A365F3
:104F8C00636D1BB10023184603B030BD2046FBF700
:104F9C003FFF41F288312046FFF7E4FF2068836829
:104FAC00354A1A40E3682169013943EA01436169D2
:104FBC00013943EA0123616B43EA0113A16B0B43F3
:104FCC00E1690B43134383602268D36823F4E02325
:104FDC00216A0B43D360216BE36B226843EA0143E4
:104FEC0013612368226C5A6121680B6823F4F8530F
:104FFC006268013A43EA02230B60E36D00932B468F
:10500C00002220212046FFF75DFF03460028BAD17D
:10501C002068C26822F0FF02616A01390A43C2604B
:10502C0021680A6822F04002A06802430A602068E6
:10503C00D0F8082122F0A042A16AE56A29430A436C
:10504C00C0F8082121680A6842F001020A60A269CE
:10505C00022A06D0E268B2F1806F08D002226265A3
:10506C0091E721688A6842F002028A60F2E7012225
:10507C00626588E7012386E784F8E0F82DE9F043C0
:10508C008DB081460D460268BA4B9A4205D04FF05E
:10509C000008012600231F4604E04FF001080026FB
:1050AC00F8E72346012B0FD85C1CE4B203EB430357
:1050BC00D90069442046FFF78FFE0028F1D0082361
:1050CC00C9F858300127ECE7002F40F01381A94BA9
:1050DC001B6813F0010F00F01181A64A136823F02E
:1050EC00010313600121A44B1B6813F0010F06D0C0
:1050FC00A14A136823F00103136041F0020172000E
:10510C003244D3000CAA134453F8283C013B9B486F
:10511C0000EB83035A6822F480725A60036813F020
:10512C00010F00F02D81036823F001030360B8F137
:10513C00000F40F0E580D5F800C040464FEA480229
:10514C004244D3000CAA134453F8303C9C4528D05D
:10515C006A684FEA4804A0444FEAC804A0460DF11F
:10516C00300E744454F82C4CA2421AD0AA6844460F
:10517C000DF1300E744454F8284CA24211D0EA6858
:10518C0044460DF1300E744454F8244CA24208D01D
:10519C002A6944460DF1300E744454F8204CA24256
:1051AC0041D19C4500F02381013B744A02EB8303FF
:1051BC005C6824F001045C604FEA400C0CEB0004CA
:1051CC00E3000CAC234453F82C4C013C02EB84045C
:1051DC00D4F804E02EF0100EC4F804E053F8284C78
:1051EC00013C02EB8404D4F804E02EF4807EC4F875
:1051FC0004E053F8243C013B03F0010302EB83036E
:10520C005C6824F480345C606044C3000CA80344E4
:10521C0053F8203C013B03F0010302EB830253687B
:10522C0023F080735360AA68013A544800EB820261
:10523C00536823F4407343EA462343F4807353606A
:10524C006B69013B0268C2F30742934205D90268BD
:10525C0022F47F0242EA03430360484B1B6813F0BD
:10526C00010F00F00E812B68013B444A02EB8303D3
:10527C00586820F0030040F0010058606B68013B57
:10528C0002EB83035A6822F0300242F010025A609B
:10529C00EB6813F4803F00F0DA80013B03F001036C
:1052AC009B00364A1A44536823F4E02343F48033BA
:1052BC0053602B6913F4803F00F0D680013B03F060
:1052CC0001039B002D4A1A44536823F4E02343F452
:1052DC004033536011F0010F04D0264A136843F099
:1052EC000103136011F0020F04D0234A136843F03A
:1052FC000103136038460DB0BDE8F0830021F2E6DF
:10530C004FEA480404EB0802D3000CAA134453F8E8
:10531C00300C0138194A02EB8000D0F804C04CF074
:10532C00020CC0F804C053F82C0C013802EB8000BE
:10533C00D0F804C04CF0200CC0F804C053F8243C46
:10534C00013B03F0010302EB8303586840F4802017
:10535C0058604444E3000CA8034453F8203C013B40
:10536C0003F0010302EB8302536843F08063536044
:10537C00E1E600BF0050005200A0005200B4005201
:10538C0072003244D3000CAA134453F8303C002B67
:10539C003FF4D1AE013B694A02EB8303586820F01D
:1053AC000100586073003344D8000CAB184450F81B
:1053BC002C3C013B02EB83035C6824F010045C6022
:1053CC0050F8243C013B03F0010302EB83035C68BF
:1053DC0024F480345C6050F8203C013B03F0010362
:1053EC0002EB8302536823F080735360A3E66C686E
:1053FC004FEA400C84444FEACC020DF1300C62446D
:10540C0052F82C2C94427FF4CFAEEC684FEA400C4F
:10541C0084444FEACC020DF1300C624452F8242C37
:10542C0094427FF4C1AE2C694FEA400C84444FEA9D
:10543C00CC020DF1300C624452F8202C94427FF4D3
:10544C00B3AE3E4A136843F001031360EBE6013B35
:10545C0003F001039B00394A1A44536823F0E063BC
:10546C0043F08073536024E7013B03F001039B007E
:10547C00324A1A44536823F0E06343F0407353609C
:10548C0028E72A68013A2D4800EB8202536823F082
:10549C00030343EA460343F0010353606A68013A8D
:1054AC0000EB8202536823F0300343EA461343F0C7
:1054BC0010035360EB6813F4803F20D0013B03F0E2
:1054CC0001039B0002461A44536823F4E02343EA89
:1054DC00864343F4803353602B6913F4803F1DD013
:1054EC00013B03F001039B00144A1A44536823F454
:1054FC00E02343EA864646F440365660EAE6013B32
:10550C0003F001039B000D4A1A44536823F0E06337
:10551C0043EA866343F080735360DDE7013B03F09D
:10552C0001039B00054A1A44536823F0E06343EAE5
:10553C00866646F040765660CCE600BF00B400525A
:10554C00F0B4036A23F001030362036A44688569BB
:10555C001E4A2A400E68164323F002038D682B4323
:10556C001B4A1C4DA84218BF90420CBF01220022BE
:10557C000CD005F58045A84214BF00250125164F17
:10558C00B84203D015B9154DA84205D123F0080334
:10559C00CD682B4323F004035AB9114A904214BF2F
:1055AC00002201220C4DA84203D012B90B4A9042A2
:1055BC0005D124F440724C6914438A691443446045
:1055CC0086614A6842630362F0BC70478CFFFEFF41
:1055DC00000001400004014000400140004801402F
:1055EC000044014070B4036A23F480730362036ABD
:1055FC004468C26922F073020E68164323F40073E8
:10560C008A6843EA0223164A164DA84218BF9042F4
:10561C000CBF0122002206D123F40063CD6843EABB
:10562C00052323F480635AB90F4A904214BF002219
:10563C0001220E4DA84203D012B90D4A904207D157
:10564C0024F440544A6944EA02148A6944EA021474
:10565C004460C6614A68C263036270BC704700BF95
:10566C0000000140000401400044014000400140A2
:10567C000048014070B4036A23F480530362036A48
:10568C004468C26922F4E6420D6842EA052223F41A
:10569C0000538D6843EA05330F4E104DA84218BFD6
:1056AC00B0420DD005F58045A84214BF0025012558
:1056BC0006F58046B04203D015B9094DA84204D175
:1056CC0024F480444D6944EA85144460C2614A68FC
:1056DC000264036270BC704700000140000401408A
:1056EC000048014070B4036A23F480330362036AF8
:1056FC004268446D24F070040D682C4323F400338D
:10570C008D6843EA0543104E104DA84218BFB042B5
:10571C000DD005F58045A84214BF0025012506F5DE
:10572C008046B04203D015B9094DA84204D122F4E9
:10573C0080324D6942EA0522426044654A688265BE
:10574C00036270BC704700BF0000014000040140C0
:10575C000048014070B4036A23F480130362036AA7
:10576C004468426D22F4E0420D6842EA052223F4BB
:10577C0000138D6843EA05530F4E104DA84218BF15
:10578C00B0420DD005F58045A84214BF0025012577
:10579C0006F58046B04203D015B9094DA84204D194
:1057AC0024F400344D6944EA8524446042654A6817
:1057BC00C265036270BC70470000014000040140E8
:1057CC000048014070B403683C4CA04214BF002454
:1057DC000124B0F1804F14BF224644F00102AAB953
:1057EC00374DA84214BF00250125364EB0420DD0CE
:1057FC0065B905F1804505F58235A84214BF002531
:10580C00012506F50066B04200D01DB123F07003EF
:10581C004D682B4362BB2A4A904214BF00220122DE
:10582C00284DA84224D01ABB02F1804202F58232E4
:10583C00904214BF0022012205F50065A84217D042
:10584C00B2B9214A904214BF0022012205F59A35C3
:10585C00A8420DD062B91D4A904214BF0022012209
:10586C0005F50065A84203D012B9194A904203D13C
:10587C0023F44073CA68134323F080034A6913432B
:10588C0003608A68C2620A688262124B984214BF33
:10589C00234644F001035BB90B4B984214BF002321
:1058AC0001230D4A904203D013B90C4B984201D1FD
:1058BC000B6903630123436170BC70470000014016
:1058CC0000080040000400400044014000E000409B
:1058DC0000E4004000040140004001400048014049
:1058EC0058B310B5044690F83D300BB3022384F83E
:1058FC003D30211D2068FFF765FF012384F84830F7
:10590C0084F83E3084F83F3084F8403084F84130DD
:10591C0084F8423084F8433084F8443084F84530BD
:10592C0084F8463084F8473084F83D30002010BDB0
:10593C0080F83C30FBF732FCD8E7012070470000C0
:10594C0070B4036A23F010030362036A4468856928
:10595C001A4A2A400E6842EA062623F020038A6877
:10596C0043EA0213164A174DA84218BF90420CBFC7
:10597C000122002206D123F08003CD6843EA0513EF
:10598C0023F040035AB9104A904214BF002201225E
:10599C000E4DA84203D012B90D4A904207D124F4FF
:1059AC0040644A6944EA82048A6944EA8204446095
:1059BC0086614A688263036270BC7047FF8CFFFE8D
:1059CC00000001400004014000440140004001403F
:1059DC000048014038B590F83C30012B00F08C8029
:1059EC000D460446012380F83C30142A1ED8DFE80B
:1059FC0002F00B1D1D1D211D1D1D351D1D1D481DDE
:105A0C001D1D5C1D1D1D6F000068FFF799FD2268B0
:105A1C00936943F0080393612268936923F00403AC
:105A2C0093612268936929690B439361002084F880
:105A3C003C0038BD0068FFF783FF2268936943F48C
:105A4C00006393612268936923F4806393612268F5
:105A5C009369296943EA01239361E7E70068FFF73B
:105A6C00C1FD2268D36943F00803D3612268D3696E
:105A7C0023F00403D3612268D36929690B43D361F2
:105A8C00D4E70068FFF7F6FD2268D36943F400639E
:105A9C00D3612268D36923F48063D3612268D3690C
:105AAC00296943EA0123D361C0E70068FFF71AFEB6
:105ABC002268536D43F0080353652268536D23F03D
:105ACC00040353652268536D29690B435365ADE795
