:020000040800F2
:100000000000022071A400081D3E00081F3E0008E9
:10001000213E0008233E0008253E000800000000A5
:10002000000000000000000000000000273E000863
:10003000293E0008000000002B3E00082D3E00086D
:10004000C1A40008C1A40008C1A40008C1A40008FC
:10005000C1A40008C1A40008C1A40008C1A40008EC
:10006000C1A40008C1A40008C1A40008C1A40008DC
:10007000C1A40008C1A40008C1A40008C1A40008CC
:10008000C1A40008C1A40008C1A40008C1A40008BC
:10009000C1A40008C1A40008C1A40008C1A40008AC
:1000A000C1A40008C1A40008C1A40008C1A400089C
:1000B000C1A40008C1A40008C1A40008C1A400088C
:1000C000C1A40008C1A40008C1A40008C1A400087C
:1000D000C1A40008C1A40008C1A40008C1A400086C
:1000E000C1A40008C1A4000800000000C1A40008C9
:1000F000C1A40008C1A40008C1A40008C1A400084C
:10010000C1A40008C1A40008C1A40008C1A400083B
:10011000C1A40008C1A40008C1A40008C1A400082B
:10012000C1A40008C1A40008C1A40008C1A400081B
:10013000C1A40008C1A40008C1A40008C1A400080B
:1001400000000000000000000000000000000000AF
:10015000C1A40008C1A40008C1A40008C1A40008EB
:10016000C1A40008C1A40008C1A40008C1A40008DB
:10017000C1A40008C1A40008C1A400080000000038
:10018000C1A40008C1A40008C1A40008C1A40008BB
:10019000C1A40008C1A40008C1A40008C1A40008AB
:1001A000C1A40008C1A40008C1A400080000000008
:1001B000C1A40008C1A40008C1A40008C1A400088B
:1001C000C1A40008C1A40008000000000000000055
:1001D0000000000000000000C1A4000800000000B2
:1001E000000000000000000000000000000000000F
:1001F0000000000000000000C1A40008C1A4000825
:10020000C1A40008C1A4000800000000C1A40008A7
:10021000C1A40008C1A40008C1A40008C1A400082A
:10022000C1A4000800000000C1A4000800000000F4
:10023000C1A40008C1A4000800000000C1A4000877
:10024000C1A40008C1A40008C1A40008C1A40008FA
:10025000C1A40008C1A40008C1A40008C1A40008EA
:10026000C1A40008C1A40008C1A40008C1A40008DA
:10027000C1A40008C1A40008C1A400080000000037
:10028000C1A40008C1A40008C1A40008C1A40008BA
:1002900000000000C1A40008C1A400080000000084
:1002A00000000000C1A40008C1A40008C1A4000807
:1002B000C1A40008C1A40008C1A40008C1A400088A
:0C02C000C1A40008C1A40008C1A40008EB
:100300000348044B834202D0034B03B118477047A4
:10031000EC010020EC010020000000000548064927
:10032000091A891001EBD171491002D0034B03B1B6
:1003300018477047EC010020EC010020000000008D
:1003400010B5064C237843B9FFF7DAFF044B13B11D
:100350000448AFF300800123237010BD0000002487
:1003600000000000C4A4000808B5044B1BB10449F8
:100370000448AFF30080BDE80840CFE7000000006C
:1003800004000024C4A4000870B50D4E0D4D761B6A
:10039000B61006D00024013455F8043B9847A64215
:1003A000F9D1094E094D761B0AF08CF8B61006D02B
:1003B0000024013455F8043B9847A642F9D170BD9A
:1003C00034510308345103083851030834510308E9
:1003D000024B0146186800F043B900BF000000203E
:1003E000024B0146186800F0E7B800BF000000208B
:1003F000844641EA000313F003036DD1403A41D330
:1004000051F8043B40F8043B51F8043B40F8043BEE
:1004100051F8043B40F8043B51F8043B40F8043BDE
:1004200051F8043B40F8043B51F8043B40F8043BCE
:1004300051F8043B40F8043B51F8043B40F8043BBE
:1004400051F8043B40F8043B51F8043B40F8043BAE
:1004500051F8043B40F8043B51F8043B40F8043B9E
:1004600051F8043B40F8043B51F8043B40F8043B8E
:1004700051F8043B40F8043B51F8043B40F8043B7E
:10048000403ABDD2303211D351F8043B40F8043B1E
:1004900051F8043B40F8043B51F8043B40F8043B5E
:1004A00051F8043B40F8043B103AEDD20C3205D32E
:1004B00051F8043B40F8043B043AF9D2043208D026
:1004C000D2071CBF11F8013B00F8013B01D30B8898
:1004D00003806046704700BF082A13D38B078DD076
:1004E00010F003038AD0C3F10403D21ADB071CBF48
:1004F00011F8013B00F8013B80D331F8023B20F8B2
:10050000023B7BE7043AD9D3013A11F8013B00F8EA
:10051000013BF9D20B7803704B7843708B78837072
:1005200060467047F0B4860743D0541E002A3ED080
:10053000CAB2034602E014F1FF3438D303F8012BAA
:100540009D07F8D1032C2BD9CDB245EA05250F2CF8
:1005500045EA054516D9A4F110073F0903F1200625
:1005600006EB071603F1100242E9045542E9025571
:100570001032B242F8D104F00F040137032C03EB20
:1005800007130DD91E462246043A032A46F8045B97
:10059000FAD8221F22F003020432134404F00304A9
:1005A0002CB1C9B21C4403F8011B9C42FBD1F0BC26
:1005B000704714460346C5E779B338B551F8043C93
:1005C0000C1F002BB8BFE418054600F03DF9234B83
:1005D0001A682AB1A2420DD921686018824230D02F
:1005E000626028461C60BDE8384000F02FB9A34285
:1005F00003D81A465368002BF9D111685018A0424D
:1006000013D00BD821686018834220D063605460F7
:100610002846BDE8384000F019B970470C232B601C
:100620002846BDE8384000F011B920680144501850
:1006300083421160ECD1D3E900030144536011609F
:10064000E6E7D2E90002014462602160C9E7D3E92C
:1006500000030144636021605460D9E71C0000245A
:10066000F8B5CD1C25F0030508350C2D38BF0C2539
:10067000002D06463ADBA94238D82A4F00F0E4F8AC
:100680003A6852B113685B1B04D433E023685B1BE8
:1006900025D522465468002CF8D1796800293BD032
:1006A0002946304600F040F8431C2AD0C41C24F0F0
:1006B0000304A04205D0211A304600F035F801307D
:1006C0001FD02560304600F0C1F804F10B0020F087
:1006D0000700231DC31A01D05A42E250F8BD0B2B6C
:1006E0000BD8A24215D063685360EBE70C2333604C
:1006F0000020F8BD0B2B0BD9144623601C44256049
:10070000E0E70C233046336000F0A0F80020F8BD8D
:1007100054683C601446D5E7304600F005F8786030
:10072000BEE700BF1C00002438B5074C0023054677
:100730000846236003F05CF9431C00D038BD2368F1
:10074000002BFBD02B6038BDB006002408B470B578
:10075000B2F1005F9DB005462FD24FF402731446EC
:1007600002910691ADF81430D2B102F18043013B01
:100770009A0022A90B46049207920191219A4FF602
:10078000FF7602A9ADF8166000F0EAF8029B00229D
:10079000A0421A6011D21DB0BDE8704001B0704790
:1007A00022A90B464FF6FF76049207920191219AF7
:1007B000ADF8166002A900F0D3F88B232B604FF040
:1007C000FF30E8E70CB470B51E4BB1F1005F9CB090
:1007D0001D6831D24FF402730C4602900690ADF8BA
:1007E0001430D9B101F18043013B990021A803469F
:1007F000209A0491079101904FF6FF7602A92846AE
:10080000ADF8166000F0ACF8029B0022A0421A601E
:1008100012D21CB0BDE8704002B0704721A8034658
:100820004FF6FF76049107910190209AADF816607B
:1008300002A9284600F094F88B232B604FF0FF307C
:10084000E7E700BF00000020704700BF704700BF0F
:100850002DE9F0412DED028BB0EE408B84B018EE07
:1008600090CADDE90D74BCF1000F9046BABFB1EE3D
:10087000408B2D220022662F0E46109D1A603CD020
:10088000462F3AD0B0EE480B27F02003452B08BF87
:10089000013603AA02ABCDE9003202210C9B32469D
:1008A00001F030F8672F58D118F0010F48D0B5EE9D
:1008B000408BF1EE10FA00EB060136D103910B46A6
:1008C0001B1A002B236012DD002D10DD0F9B013D54
:1008D00005441A1F0138002301E0854207D010F8B3
:1008E000011F42F8041F216801339942F5DC0F987B
:1008F00004B0BDEC028BBDE8F08103AA02ABCDE9E8
:100900000032B0EE480B0C9B0321324600F0FAFF98
:100910000378302B00EB060114D00C9B1E68314489
:10092000B5EE408BF1EE10FAC8D0039B9942C7D9BF
:1009300030265A1C03921E70039B8B42F9D3BFE7EB
:10094000039BBDE7B5EE408BF1EE10FAE5D00C9BB2
:10095000C6F101061E603144E2E7472FA4D0A6E7A6
:100960002DE9F04F2DED048BD1B000240E469146B9
:100970000A931794824601F00DFE0268B38912783B
:1009800014921A0603D53369002B00F08F830023DD
:100990009FEDAD8B9FEDAE9BCDE910330793D9F85A
:1009A0000030002B00F03581252B4C4603D11CE094
:1009B000252B00F03C8154F8043F002BF8D1A4EB28
:1009C00009034C454FEAA30500F023814A4631460E
:1009D000504602F009FB013000F01B81079A2368A2
:1009E0002A440792002B00F0148100231A46139327
:1009F00019461F4698464FF0FF3304F10409099346
:100A0000D9F8004009F10409A4F12003582B00F2A1
:100A10003983DFE813F04301370337034901370314
:100A2000370337033703370337033B0138013703F5
:100A30002701AD023703D8022A012A012A012A011F
:100A40002A012A012A012A012A0137033703370321
:100A500037033703370337033703370337033703C6
:100A600017023703170237033703370337034102EF
:100A700037033703370337033703370337033703A6
:100A800037033703370313033703370337033703BA
:100A900037033703370337033703370394025B0108
:100AA00017021702170244025B01370337031401D0
:100AB00037034702CA025B0214013703DB02370324
:100AC0004C013703370331034023634A3146504614
:100AD00002F08AFA0130A5F1100500F09480102D83
:100AE000F2DCAB005C4A3146504602F07DFA013040
:100AF00000F089801398002840F038810D9B002B6E
:100B000040F041810E9B802B00F04A81099B0C9A9A
:100B10009D1A002D00F36C8118F4807F00F077811E
:100B2000652C40F21D83B5EE408BF1EE10FA00F01B
:100B30006383169B002B40F31B84179B43F31D0418
:100B40000F9B9C42A8BF1C46002C00F38F830F9B79
:100B5000002CA8BF1B1B002B1C4600F36781DDE99E
:100B600016230F999A424FEA810502DB18F0010F14
:100B700009D0042314AA3146504602F035FA013058
:100B800041D0DDE91623C5EB8304A4109B1A9C42D7
:100B9000A8BF1C46002C00F3D683002CACBF1C1B46
:100BA0001C46002C14DD09E040232C4A31465046F7
:100BB00002F01AFA0130A4F1100424D0102CF3DC56
:100BC000264AA3003146504602F00EFA01301AD0F0
:100BD00018F0040F00F0A382089BFC1A002C40F3CD
:100BE0009E82102C40F392821B4D02E0102C40F3A9
:100BF0008D8240232A463146504602F0F5F90130F5
:100C0000A4F11004F2D10B9B1BB10B995046FFF7D6
:100C1000D3FCB38913F0400F079B18BF4FF0FF338D
:100C20000793079851B0BDEC048BBDE8F08FA4EB9F
:100C300009034C454FEAA3053FF4D7AEC6E648F09A
:100C40001008DDE6AFF300800000000000000000A7
:100C5000FFFFFFFFFFFFEF7F40A5000880A5000812
:100C60007F420A9348F00408CAE6002707EB87078B
:100C700004EB470759F8044BA4F13003092BA7F103
:100C80003007F3D9C0E601222B21B9E60A9B1F6881
:100C9000002F03F10403E3DB0A93B1E600297FF49C
:100CA000AFAE01222021ABE648F00108A8E60A9A7F
:100CB00018F0100F52F8043B0A9240F0038218F02B
:100CC000400F00F0FF819BB201220DE1002A40F0AD
:100CD00006850A9A18F0100F52F8043B0A9203D1C5
:100CE00018F0400F18BF1BB2002BC0F23D831398C1
:100CF000099A013250AD00F06C82012228F0800E7A
:100D0000002B40F0F9800999002940F00283002A65
:100D100040F06C8218F001030C9300F010830DF585
:100D2000A07B30234BF8043DF0460023099A0B9337
:100D30000F930C9B9342B8BF1346089310B1089BC6
:100D40000133089318F002030D9302D0089B02337D
:100D5000089318F084030E937FF4CDAE089BFD1A20
:100D6000002D3FF7BCAE00283FF4C8AE042313AA01
:100D70003146504602F038F901303FF444AF0D9B44
:100D8000002B3FF4BFAE082318AA3146504602F0AC
:100D90002BF901303FF437AF0E9B802B7FF4B6AEBA
:100DA000089BFD1A002D7FF7B1AE0AE04023BA4A36
:100DB0003146504602F018F90130A5F110053FF414
:100DC00022AF102DF2DCAB00B34A3146504602F0A0
:100DD0000BF901307FF49AAE15E74023AE4A314655
:100DE000504602F001F90130A5F110053FF40BAFB8
:100DF000102DF2DCAB00A84A3146504602F0F4F860
:100E000001303FF400AF18F4807F7FF489AE0C9B73
:100E10005A469B00D6E640239F4A3146504602F090
:100E2000E3F80130A4F110043FF4EDAE102CF2DC35
:100E3000A300994A3146504602F0D6F801307FF4BB
:100E40008EAEE0E6002A40F052840A9B073323F07E
:100E5000070393ED008B0833B0EEC87BB4EE497BFB
:100E6000F1EE10FA0A9340F30B82B5EEC08BF1EE6F
:100E700010FA00F14F831398884A894B002103250B
:100E800008950B9128F08008472C8CBF93469B4611
:100E90000C9509910F9151E748F00808B0E548F02A
:100EA0004008ADE5002A40F01D840A9A18F0100FA2
:100EB00002F1040340F0088118F0400F0A9A00F094
:100EC000038112680A93079B138068E50A9A7549A3
:100ED0001091302378240432CDE9183452F8043CC0
:100EE0000A9248F002080222099900200131139069
:100EF00050AD7FF403AFC646012A00F06B81022A91
:100F000000F01D8150A900E0594603F0070230327D
:100F1000DB0841F8042CA1F1040BF5D11EF0010F00
:100F200000F01881302A00F0158108396D1A30233D
:100F3000AA104BF8043C0C92F0468B46F5E6002ACA
:100F400040F0D3830A9B18F0100F53F8040B0A9358
:100F500000F01B8300230122289008921846299351
:100F600013930B9009900F900C920DF1A00BE9E6F2
:100F7000D9F800402A2C09F1040900F09D83A4F15E
:100F80003003092B4FF000030DD803EB830304EB70
:100F9000430359F8044BA4F130000928A3F13003AE
:100FA000F3D943EAE37309932EE50A9A18F0100186
:100FB00052F8043B0A9240F0578118F0400293D057
:100FC0009BB20A4690E748F0800819E50A9BD3F8DF
:100FD00000B00025043313950A93BBF1000F00F015
:100FE000E98118F010010F9173D1099D6B1C00F07D
:100FF000F4822A46584601F0FBFA08B1A0EB0B0533
:10100000272D00F20183002D00F04A8300230B936B
:1010100028A80BF1FF3303EB050C021F13F8011F87
:1010200042F8041F9C45F9D10C9500EB85038346DB
:10103000089500251D60099513987FE6002A40F069
:101040005B83194B10930A9A18F0100F52F8043B67
:101050000A9203D118F0400F18BF9BB218F0010F8D
:1010600000F0B580002B00F0B28030221892199465
:1010700048F00208022237E7002A40F03B83094B80
:101080001093E0E7002C3FF4C4AD00230122184682
:101090000892289464E700BF80A50008F84F030871
:1010A000E84F03086C5003082850030840215046BD
:1010B000FFF7D6FA30603061002800F00883402343
:1010C000736164E401220FE712680A93079B1360BF
:1010D00065E4099A531C00F020822946584600F026
:1010E00021FB0B90002800F075810B9B099A099554
:1010F000A3EB0B039B109A42A8BF1A460C9222EA5C
:10110000E27208920B950F95139817E6A300B54A63
:101110003146504601F068FF01303FF474ADDDE91F
:1011200007329742ACBFDB199B1807930B9B002B30
:101130003FF435AC0B995046FFF73EFA2FE4109977
:101140000DF5A07B03F00F021B0951F822204BF88C
:10115000042DF7D1A5EB0B05AB100C93F046E4E59D
:10116000179B012B03DC18F0010F00F0FA80042319
:101170005A463146504601F037FF01303FF443AD47
:10118000042314AA3146504601F02EFF01303FF4EB
:101190003AADB5EE408B179CF1EE10FA04F1FF3436
:1011A00058D1002C0EDC119B1AAA9B000AE54023A3
:1011B0008D4A3146504601F017FF0130A4F110046A
:1011C0003FF421AD102CF2DCA300874A45E0022257
:1011D0008AE6C646092B00F2A0800DF5A07B3033CD
:1011E0004BF8043D0123F0460C939EE5099B0C93BC
:1011F000F0460DF5A07B98E504237C4A3146504625
:1012000001F0F2FE01303FF4FEACDDE916239A4214
:1012100003DB18F0010F3FF4DBAC042314AA3146C2
:10122000504601F0E1FE01303FF4EDAC179C013C6B
:10123000002C7FF7CDAC0AE040236B4A3146504684
:1012400001F0D2FE0130A4F110043FF4DCAC102C0C
:10125000F2DCB5E4A3000BF104023146504601F084
:10126000C3FE01309FD1CEE400223DE6A3005A46E2
:101270003146504601F0B8FE01307FF468ACC2E45C
:10128000B4EE488BF1EE10FA80F1DC8148F4807303
:101290000D93099B013300F0488124F02003472B74
:1012A00000F0AA80B0EE480B17A916A8282228AD96
:1012B00015AB0E910C90CDE9035202910090019470
:1012C0000D9A099908935046FFF7C2FAA84283463F
:1012D00000F0E281169B0F9300230B93662C40F0E5
:1012E000B4800F9B002B099B40F3CE81002B40F074
:1012F0009A8118F0010F40F096810F9B08930C9390
:10130000159D002D40F0F080DDF83480099513988C
:1013100014E5012A7FF4F3AD5FE7DFF8D4C00DF5E3
:10132000A07BACFB0312D20802EB8201A3EB4103CA
:1013300030334BF8043D1346002AF2D10AE7F04659
:101340000DF5A07BF1E40BEB0502A30031465046FE
:1013500001F04AFE01303FF456ACDDE916239B1A3A
:101360001BE45A46042378E72D205B421390BFE428
:1013700004231E4A3146504601F036FE01303FF448
:1013800042AC169B2BB9179B1BB918F0010F3FF409
:101390001FAC042314AA3146504601F025FE01304B
:1013A0003FF431AC169B002BC0F21C81179B5A46B0
:1013B0009B0007E4099BCDF83CB0062B28BF062311
:1013C000CDF824B0CDF82CB0584608930C93DFF834
:1013D00024B0B3E4099B0F90099008930C931398E1
:1013E000ACE400BF40A5000880A50008CC5003086D
:1013F000CDCCCCCCB0500308099B0194002B17A88E
:1014000016AA4FF0280C28AD14BF1946012115ABC0
:101410000E900C9202900092CDE9035CB0EE480B66
:101420000D9A099150460893FFF712FAA842834695
:1014300000F0B680169B0F9300230B930F9BDA1CD2
:1014400002DB099A934256DD023C0F9B1A94013B42
:10145000002B1693BDBF0F9BC3F101032D222B223E
:10146000092B1B9240F3D9802846DFF89CC200E08C
:101470001046ACFB0321C90801EB8102A3EB420239
:101480003032092940F8042C0B46A0F10402EFDCAD
:1014900008383033854242F8043C40F216810DF1A1
:1014A000A300801A800801301CAD002101E052F831
:1014B000043B45F8043B01318842F8D11CAB03EBF7
:1014C00080001AABC01A179B82101192012B1A448C
:1014D0000C9240F3CC800C9B01330C9323EAE37312
:1014E000089300230F930BE72D200023DDF83480B1
:1014F0001390099323E40F9A179B9342114637DC0C
:1015000018F0010F40F0968022EAE27208920C91E6
:101510006724F5E62D201390AEE45846099500F0B7
:10152000F5F80C9020EAE072EBE517A916A828223E
:1015300028AD15AB0E910C90CDE90352B0EE480BDF
:101540000291009001940D9A089306215046FFF7EE
:101550007FF90623A8428346099321D000230B93E9
:1015600024F02003169A0F92472B7FF4B7AE65E75D
:101570000F9A002AD4BFC2F10202012213440C9335
:1015800023EAE37308936724BAE600F0E3F8431C08
:101590007FF4E0ACB38943F04003B381FFF73ABB7B
:1015A000179928296CDD89005046FFF759F80B90F0
:1015B0000028EFD0B0EE480B0B9B03930E9B179ABD
:1015C0000492CDE901430C9B00930D9A089B099965
:1015D0005046FFF73DF98346C2E7584602F0F0F85F
:1015E00005460DE55C42103302DB35E0102C33DD9F
:1015F0004023424A3146504601F0F6FC0130A4F146
:101600001004F3D1FFF7FFBA691C89005046FFF7B9
:1016100027F80028BED00B90FBE430333022CDE910
:101620001C231EA84DE7099D0F9B0135EB1808935D
:101630000C9365E60F9B01330C9323EAE373089345
:1016400067245DE618EE903A002BB6BF2D20139864
:1016500013902B4A2B4B11E4A300284A31465046E5
:1016600001F0C2FC01307FF4A1AEFFF7CCBA18F054
:1016700001030F937FF42FAF22EAE27308933FE652
:1016800000230B93AB466BE78BB918F0010F0ED11B
:10169000012308930C9333E61799282983DC19E674
:1016A0000DF1A00B0895CDE90B555B46C1E4099BF4
:1016B000023308930C9323E60A98036843EAE37322
:1016C0000993031D0A93FFF79BB91CA8F9E60C23A5
:1016D000CAF800304FF0FF330793FFF7A2BA139117
:1016E000FFF7F7BA1391FFF7E0BB13912AE41391C8
:1016F000FFF7ABBB1391C2E41391A2E480A50008ED
:101700001850030808500308CDCCCCCC036802461F
:1017100033B150F8043F002BFBD1801A8010704782
:10172000184670479AB1036899420FD030B4031D30
:10173000002402E005688D4206D00134A24218461A
:1017400003F10403F6D1002030BC70477047104607
:10175000704700BF431C20D0F0B587B004AE1D4FCA
:101760008DF80B00082230460021FEF7DBFE3D68B5
:10177000AC6DACB1184B0096D3F8E4402846012379
:101780000DF10B0203A9A047012802D8039807B066
:10179000F0BD4FF0FF3007B0F0BD4FF0FF307047A5
:1017A0005020FEF715FEA8653D68AB6DC3E9004407
:1017B000C3E90244C3E904449C61C3E90A44C3E9A0
:1017C0000C44C3E90E44C3E91044C3E912441C7736
:1017D0005C62CFE7000000206400002000000000F1
:1017E0002DE9F04F03690F69BB4283B0C0F28680D8
:1017F000013F01F1140900F1140A59F827205AF8A1
:101800002730BC000132B3FBF2F80AEB040300946A
:1018100009EB040B0193B8F1000F38D000252E46D8
:10182000CE46D4465EF8044BDCF80030A2B208FB8A
:101830000255220C2C0C08FB0242ADB2751B96B26D
:10184000C6EB134615FA83F306EB23469BB243EA35
:101850000643F3454FEA12454CF8043B4FEA26464F
:10186000E0D2009B5AF803308BB9019A131F9A45B6
:101870000CD252F8043C4BB9A2F1080302E01A68FA
:10188000043B1AB99A4507F1FF37F8D307610446BC
:1018900001F08AF900282DDB08F1010855460023E4
:1018A00059F8041B28688AB29A1A0B0C12FA80F2B3
:1018B000C3EB104303EB224392B242EA0342CB450F
:1018C00045F8042B4FEA2343EAD25AF827200AEBC3
:1018D00087037AB91A1F92450BD253F8042C42B9E8
:1018E000083B02E01A68043B1AB99A4507F1FF3732
:1018F000F8D32761404603B0BDE8F08F002003B065
:10190000BDE8F08F2DE9F04F57EC106B95B0456AAC
:101910000391044690460693CDE90067002D00F040
:10192000EB80296849B16A684A60012393408B6063
:1019300000F0E2FE636A00221A603D1E1E9AB4BFE8
:101940000123002313607A4BBCBF25F000450195AD
:10195000AB4300F0A2809DED007BB5EE407BF1EE45
:1019600010FA8DED047B0FD1069A012313601F9BA3
:10197000002B00F0CA806F4B1F9A03F1FF3B1360EE
:10198000584615B0BDE8F08F12AA13A99DED040BBF
:10199000204601F023FA5FEA155B824640F09D8005
:1019A000DDE9121301EB030B0BF23243202B40F362
:1019B000BD83C3F140030BF212429D401346009ACF
:1019C00022FA03F32B4307EE903AB8EE677B0BF154
:1019D000FF3B8DED047B0598DDE90423A0F1F8734E
:1019E00001200F9043EC172BB7EE086B9FED4A4B8D
:1019F00037EE466B9FED4A7B9FED4B5BA6EE047B7B
:101A000006EE90BAB8EEE66BA6EE057BFDEEC76B70
:101A1000B5EEC07BF1EE10FACDED046A00F1F18174
:101A2000049A162A00F2DC81434B03EBC20393EDC8
:101A3000007B9DED006BB4EEC67BF1EE10FA40F337
:101A40007D83531E049300230B93A1EB0B0BBBF17F
:101A50000103079300F1CF8100230893049B002B1F
:101A6000C0F2C181079A0A931146194407910026D2
:101A7000039B092B68D8052BC5BF043B03930123A7
:101A800000230C93039B023B032B00F21984DFE835
:101A900013F05803790386037304069A42F20F7316
:101AA0001360009B83B9C5F313056DB91F9BDFF865
:101AB0008CB0002B3FF464AF0BF108031F9A58461B
:101AC000136015B0BDE8F08F1F9BDFF874B0002BDA
:101AD0003FF456AF0BF10303F0E70599C1F313018F
:101AE000DDE90423002041F07F53ABF2FF3B43F4D8
:101AF000401312990F9075E71020FEF769FC6062A1
:101B0000C0E901550560C56017E7DFF838B05846F1
:101B100015B0BDE8F08F00BF61436F63A787D23F68
:101B2000B3C8608B288AC63FFB799F501344D33FCC
:101B30000000F07FE5500308D0A50008D45003084A
:101B4000E0500308E4500308012300224FF0FF3562
:101B50000C9303922F4609939046D4F824900E9745
:101B60000021C9F80410204600F092FD636AC9F80C
:101B700000000E2DD3F800B000F2AA800C9B002BC1
:101B800000F0A6809DED007B049900298DED107B6F
:101B900040F35683A14A01F00F0302EBC3020B117D
:101BA000DD0692ED006B40F101849D4A9DED105BD6
:101BB00092ED087B03F00F03032185EE074B5BB129
:101BC000974AD80704D592ED007B013126EE076BCA
:101BD0005B1002F10802F4D184EE065B0B9B3BB173
:101BE000B7EE007BB4EEC75BF1EE10FA00F146846D
:101BF00007EE901AB8EEE76BB1EE0C7BA6EE057B14
:101C00008DED0C7BDDE90C23CDE900230D9BA3F1C9
:101C100050730193002F00F0998304983A46BDEE6B
:101C2000C57B7E4917EE103A01EBC20111ED024B64
:101C300009993033B8EEC77BDBB235EE477B9DEDBB
:101C4000006B0BF10105002900F0D983B6EE003BD3
:101C500083EE045B35EE465BB4EEC75BF1EE10FA43
:101C60008BF800302EDCB7EE003B33EE476BB4EE62
:101C7000C56BF1EE10FA00F14D84012A24D0B2EECA
:101C8000044B5A4409E033EE476BB4EEC56BF1EEFA
:101C900010FA00F13F84954216D027EE047B25EE22
:101CA000045BBDEEC76B16EE103A3033DBB2B8EE14
:101CB000C66B37EE467BB4EEC57BF1EE10FA05F845
:101CC000013BE0D50490E7E1DDE91023CDE90023F5
:101CD000139B002B64DB049A0E2A61DC4F4BB8F196
:101CE000000F03EBC20393ED003BC0F286829DED33
:101CF000007B87EE036BBDEEC66B012F16EE103A2C
:101D000003F13003B8EEC65B0BF101058BF8003030
:101D1000A3EE457B22D0B2EE044B27EE047BB5EE5A
:101D2000407BF1EE10FA08D1B6E127EE047BB5EE68
:101D3000407BF1EE10FA00F0AF8187EE036BBDEE51
:101D4000C66B16EE103A303305F8013BA5EB0B03DA
:101D50009F42B8EEC65BA5EE437BE6D137EE077B2C
:101D6000B4EEC37BF1EE10FA0ADCB4EE437BF1EE85
:101D700010FA40F0918116EE103AD90740F18C81AB
:101D800015F8013C05E0934500F02C8312F8013C66
:101D90001546392B05F1FF32F5D0013313707BE185
:101DA000099A002A3ED0039A012A40F3178207F1CC
:101DB000FF394E45C0F2E382A6EB0902002FC0F2C4
:101DC0000783079B3B440793089B1D463B440893AE
:101DD000012120460C9200F085FD0C9A814624E0FA
:101DE00001230B9331E6049B089A5E42D21A00232A
:101DF00008920A933CE6CBF1010308930023079372
:101E00002CE6B8EEE66BB4EE476BF1EE10FA3FF459
:101E100007AE049B013B049302E600BFD0A5000877
:101E2000C0A60008DDE908593246002D0CDD0799EF
:101E3000002909DDA94208980B46A8BF2B46C01A05
:101E4000ED1ACB1A089007935EB1099B1BB1B61A25
:101E5000002A40F0A78151463246204600F0F2FDAC
:101E600082460121204600F03DFD0A9A0646002ADE
:101E700040F02E81039B012B40F380830120079AC1
:101E8000104410F01F0000F01A81C0F12003042B51
:101E900040F37983089BC0F11C000344024408937B
:101EA00005440792089B002B05DD51461A46204643
:101EB00000F024FE8246079B002B05DD31461A46C2
:101EC000204600F01BFE06460B9B002B75D1002F11
:101ED00040F31382099B002B00F08B80002D00F350
:101EE00076810A9B002B40F0D281C846009ACDF83B
:101EF0002CB00BF1FF333B4402F001025F460A9223
:101F00000993B34659465046FFF76AFC49460546D1
:101F1000504600F049FE594606464246204600F02B
:101F20005FFE05F130030093C3680146002B40F0CB
:101F3000DF810890504600F037FE089A079011465E
:101F4000204600F0D9FB079B33B9039A22B90A9BBC
:101F5000002B00F0E182039B002EC0F2188205D115
:101F6000039A1AB90A9A002A00F01182002B07F18D
:101F7000010500F31F82009B3B70099BBB4200F0F0
:101F80002A82514600230A22204600F0D1FBC14597
:101F9000824649464FF000034FF00A02204600F007
:101FA000A18100F0C5FB4146814600230A2220465C
:101FB00000F0BEFB2F468046A4E73146504600F0B5
:101FC000F3FD002883DA049F514600230A222046AD
:101FD000013F049700F0ACFB099B8246002B40F0C8
:101FE000B3820E9F002F04DC039B022B00F3BF8201
:101FF0000E9F5D4602E000F09BFB82463146504654
:10200000FFF7EEFB00F1300C05F801CBA5EB0B035D
:10201000BB424FF00A024FF0000351462046EADB74
:102020000023CDF800C0039351460122204600F062
:1020300065FD3146824600F0B7FD002815F8012CF9
:1020400012DC06D1009BDB070ED402E015F8022C4F
:102050001D46302A05F1FF33F8D00BE09B4500F018
:10206000588113F8012C1D46392A05F1FF33F5D0AC
:1020700001321A703146204600F03EFBB9F1000FE4
:102080000AD0039921B1494502D0204600F034FB23
:102090004946204600F030FB5146204600F02CFB1C
:1020A0000022049B2A70069A013313601F9B002BA9
:1020B0003FF466AC58461D6015B0BDE8F08F1C209B
:1020C000089B03440893079B034405440793E9E6F0
:1020D0000146204600F0B6FC039B012B064600F3A8
:1020E000EC80009B002B40F0E880DDE90012C2F399
:1020F0001303002B40F0AC8122F000431B0D1B05A5
:1021000033B1089B01330893079B013307930123E5
:102110000A9A0A93002A3FF4B1AE336906EB8303AF
:10212000186900F08FFBC0F12000A8E6009AC3F107
:10213000200302FA03F307EE903A46E400230B93E0
:1021400083E400230993B8F1000F40F3E980C4460B
:102150004546CDF838804746D4F824900021BCF19C
:10216000170FC9F804107FF6FEAC012204235B00B0
:1021700003F114006045114602F10102F7D9C9F8D4
:102180000410F0E400230993049B43445F1C012FD7
:10219000BC460E93B8BF4FF0010C3D46DCE701236F
:1021A0000993D0E74946204600F04CFC52460146D0
:1021B0008146204600F0A0FB51460C90204600F0DE
:1021C0009BFA0C9B9A46002E3FF44BAE43E64946E1
:1021D0002A46204600F092FC814682E60F9A002AA9
:1021E00000F0328103F23343079A1A440792089AA7
:1021F00015461A4408923246EAE5002F3FF777ADBC
:1022000040F0B780B1EE047B23EE073B9DED007BF1
:10221000B4EEC73BF1EE10FA3E46B94674DA049AC2
:102220003123013204928BF800300BF10105314665
:10223000204600F061FAB9F1000F7FF429AF2BE7D7
:1022400000F01781049BCB4A5B4203F00F0102EBC5
:10225000C10292ED005B9DED107B1B1127EE055B2B
:1022600000F08281B0EE457BC34A00200221DD07E9
:1022700005D592ED006B0131012027EE067B5B1046
:1022800002F10802F3D1002805FE075BA6E4D9F8A5
:102290000410204600F0FCF9D9F8103002339A00FF
:1022A000054609F10C010C30FEF7A2F8294601227F
:1022B000204600F023FC804618E600230A932CE712
:1022C000676A00257D602946204600F0E1F9636ACF
:1022D0003860D3F800B04FF0FF370123A8460E97BF
:1022E0000993F5E400F024FA2F468146804609E67A
:1022F000204600F001FA01232EE6039B022B7FF714
:10230000E9AD002F00F0A6806FEA080304935D4654
:102310008DE7049A3123013204928BF80030A9E64C
:1023200001252F46A84618E407EE901AB8EEE76B91
:10233000B1EE0C7BA6EE057B8DED0C7BDDE90C236D
:10234000CDE900230D9BA3F1507301939DED006B2C
:10235000B1EE047B35EE477BB4EEC67BF1EE10FAAE
:102360004ADCB1EE466BB4EEC67BF1EE10FA7FF5B7
:10237000ABAC0026B146C7E70123099304E70A9BEB
:10238000A9EB060633440A934E46002216E5002BBD
:1023900003955E4607F10105DDF82CB000F390804F
:1023A000009BCDF80C903B70C14663E69DED104B51
:1023B000022104E4009B392B5E46DDF82CB000F0CE
:1023C0009180009BCDF80C9001333B70C14651E6E3
:1023D000089BDD1BFCE45E46CDF80C90DDF82CB0CC
:1023E000C14621E630238BF80030049B013304936F
:1023F0005A4615F8013CD0E40026B1460FE7012A01
:1024000026EE045B8BF8003011D0B2EE044B5A4438
:1024100027EE047BBDEEC76B16EE103A303305F89D
:10242000013B9542B8EEC66B37EE467BF0D1B6EE77
:10243000006B35EE064BB4EEC74BF1EE10FA57D5F4
:10244000049015F8013CA4E4129BC3F13603CBE6DB
:1024500000235DE631463B460522204600F068F940
:1024600001460646504600F09FFB00283FF7D7AED6
:102470004AE79DED105B0221FFF7B0BB002F3FF450
:1024800053AF0E9A002A7FF71FACB2EE044BB1EEA9
:102490000C6B013107EE901A25EE045BB8EEE77B7A
:1024A000A5EE076B8DED0C6BDDE90C010D9BA3F127
:1024B0005073CDE900010193049B581EFFF7AFBB99
:1024C00051460122204600F019FB3146824600F0B9
:1024D0006BFB002831DD009B392B03D0039B31338C
:1024E00000935DE73922CDF80C903A70C146BBE508
:1024F00036EE456BB4EEC76BF1EE10FA02DCFFF777
:10250000E3BB154615F8013C302B05F1FF32F8D03E
:10251000FFF7D8BB04903CE4009B392B2946324698
:1025200007F101055E46DDF82CB0DBD0002A7FF70D
:1025300037AF0B463133009332E77FF431AF009B66
:10254000DA077FF52DAFC6E7494600230A22204669
:1025500000F0EEF80E9F002F81463FF7BFAC039BC3
:10256000022B04DC0E9FB9E40221FFF737BB0E9F5C
:10257000C7E600BFD0A50008C0A60008009B002B3E
:102580003FF4B3AD7AE43FF48DACC0F13C0097E585
:10259000F0307047004870475401002000487047F1
:1025A0005401002010B4034CD4F8E440A4465DF874
:1025B000044B60476400002082B049B15AB16BB14E
:1025C00013780B601278101C18BF012002B07047FE
:1025D00001A9002AF3D1104602B070476FF0010044
:1025E000F4E700BF00000000000000000000000051
:1025F00001F0FF01102A2BDB10F0070F08D010F8B4
:10260000013B013A8B422DD010F0070F42B3F6D1B7
:10261000F0B441EA012141EA014122F007047FF0D0
:1026200000070023F0E80256083C85EA010586EA27
:10263000010685FA47F5A3FA87F586FA47F6A5FA63
:1026400087F68EB9EED1F0BC01F0FF0102F007026F
:1026500032B110F8013B013A83EA010313B1F8D11A
:102660000020704701387047002D06BF35460338FB
:10267000073815F0010F07D1013015F4807F02BF34
:10268000013015F4C03F0130F0BC0138704700BF85
:1026900070B5446A06460D465CB1E3689BB153F8D9
:1026A0002500E0B1026843F825200023C0E9033388
:1026B00070BD1020FDF78CFE0023C0E901330446F5
:1026C00070620360C36021220421304600F07EFC6A
:1026D000736AE060DB68002BE1D1002070BD01214E
:1026E00001FA05F4621D3046920000F06FFC0028EC
:1026F000F3D0C0E90154D8E730B5456A83B0044649
:1027000055B139B1636A4A68DB6853F82200086042
:1027100043F8221003B030BD10200191FDF758FEA0
:1027200001996062C0E901550560C560E9E700BF35
:10273000F0B50C6983B00D46064601F1140C002774
:10274000DCF8000081B202FB0133010C180C02FB23
:1027500001019BB2013703EB0143BC424CF8043B3F
:102760004FEA1143ECDC3BB1AA68A24207DD05EB5E
:102770008402013453612C61284603B0F0BD6968BE
:10278000019301313046FFF783FF2A69023205F1D8
:102790000C01074692000C30FDF72AFE2946304610
:1027A000FFF7AAFF3D46019BE1E700BF2DE9F84393
:1027B000234C089D1E46083384FB034CDB17C3EBF8
:1027C0006C0CBCF1010F07460C46904635DD012329
:1027D00000215B009C4501F10101FADC3846FFF75E
:1027E00057FF0123B8F1090FC0E9043521DD04F1D9
:1027F00009094D46444415F8013B0146303B0A2285
:102800003846FFF795FFAC42F5D109EB0804083CC8
:1028100046450CDDA6EB0806264414F8013B0146AC
:10282000303B0A223846FFF783FFA642F5D1BDE8C8
:10283000F8830A344FF00908EAE70021CEE700BF29
:10284000398EE338020C12040346C2B90304102087
:1028500013F07F4F04BF1B02083013F0704F04BF0A
:102860001B01043013F0404F04BF9B000230002BCB
:1028700004DB5B0001D50130704720207047002049
:10288000E6E700BF036813F00702014607D0DA0746
:102890001FD498071FD55B080B600120704798B2C2
:1028A000A0B1104613F0FF0F04BF1B0A08301A072F
:1028B00004BF1B0904309A0704BF9B080230DA07E3
:1028C00002D45B080BD001300B6070471B0C10204A
:1028D000E8E7002070479B080B600220704720202B
:1028E000704700BF10B50C460121FFF7D1FE012251
:1028F000C0E9042410BD00BF2DE9F04F0E69146932
:10290000A64283B00F46154604DA32462F462646C5
:102910000D461446D7E9011306EB04084345B8BF3A
:102920000131FFF7B5FE00F1140909EB880EF145FE
:10293000009005D24B46002243F8042B9E45FBD85D
:1029400005F1140A0AEB840407F11403A24503EB12
:10295000860C61D2641B153C24F00304CDF804E01E
:10296000A24405F110029E4605E02D0C2BD19245A4
:1029700009F104094ED052F8045F1FFA85FBBBF140
:10298000000FF2D077464E46002000E0264657F86A
:10299000041B34688BB2A5B2090C240C0BFB035347
:1029A00003440BFB014000EB134034469BB243EA67
:1029B0000043BC454FEA104044F8043BE6D8706041
:1029C00015682D0CD3D0D9F8003076461846CB4682
:1029D000002100E0A3463488000C05FB04000144FC
:1029E0009BB25C4643EA014344F8043B56F8043B7F
:1029F000DBF804001B0C87B205FB037303EB1143E8
:102A0000B4454FEA1341E5D89245CBF8043009F1BB
:102A10000409B0D1DDF804E0B8F1000F0BDD5EF879
:102A2000043CAEF1040E1BB105E05EF8043D13B9A1
:102A3000B8F10108F9D10098C0F8108003B0BDE8E2
:102A4000F08F00BF2DE9F04312F0030383B014466A
:102A500007462DD10E46A4101CD07B6A8BB39D680F
:102A6000002D38D0E3074FF0000906D4641011D0D0
:102A7000286898B10546E307F8D531462A46384616
:102A8000FFF73AFF314680463846FFF735FE6410BF
:102A90004646EDD1304603B0BDE8F0832A462946CC
:102AA0003846FFF729FF2860C0F800900546E2E7A6
:102AB000013B114A52F823200023FFF739FE064656
:102AC000C9E71020FDF784FC0022C0E9012203467B
:102AD00078620260C260012138460193FFF7D8FD99
:102AE00040F27122019B42610121002201610546F1
:102AF00098600260B6E700BFC0A500082DE9F04766
:102B000091460A690D464FEA691AD1E901130AEBA9
:102B1000020808F101049C42074604DD5B009C4268
:102B200001F10101FADC3846FFF7B2FDBAF1000FFE
:102B3000064600F1140335DD03EB8A01002243F859
:102B4000042B8B42FBD1286905F1140319F01F09EE
:102B500003EB800C1ED0C9F1200E002200E051468C
:102B600018688A4600FA09F010434AF8040B53F833
:102B7000042B9C4522FA0EF2F1D84A600AB108F102
:102B80000204013C384634612946FFF7B5FD304662
:102B9000BDE8F087043953F8042B41F8042F9C4515
:102BA000F9D8EEE71946CEE730B40B69054600695F
:102BB000C01A0FD19B001435143119442B4401E085
:102BC0009D4207D253F8044D51F8042D9442F7D09A
:102BD00002D3012030BC70474FF0FF30FAE700BF4E
:102BE0002DE9F04113690D69ED1A002D0E4690464E
:102BF00001F1140402F1140714D19B00E2183B44C4
:102C000001E0A24259D952F804CD53F8041D8C4575
:102C1000F7D009D2224633463C46464617469846E8
:102C2000012501E0F6DB00257168FFF731FDD8F8DA
:102C300010303669C56007EB830EBC4600F1140501
:102C400004EB860700235CF8041B54F8048B8AB25B
:102C500013FA88F3090C9A1AC1EB184303EB2243C9
:102C600092B242EA0342E64545F8042B4FEA234379
:102C7000E9D8A74217D9AE46A4465CF8042B13FA4C
:102C800082F3191401EB12419BB243EA01426745FA
:102C90004EF8042B4FEA2143EFD8E443274427F0B2
:102CA000030704373D44043D22B955F8043D013E75
:102CB000002BFAD00661BDE8F0810021FFF7E8FCA7
:102CC00001220023C0E90423BDE8F081134B10EE7C
:102CD000902A1A40A2F15073002B04DD00201946FF
:102CE00041EC100B70475B421B15132B0DDD143BA1
:102CF0001E2BDDBFC3F11F03012202FA03F30123E0
:102D00000021184641EC100B70474FF400220020C0
:102D100042FA03F141EC100B704700BF0000F07F56
:102D2000F8B5046900F1140606EB840454F8045C59
:102D30002846FFF787FDC0F120030A280B60A4F1A5
:102D4000040117DC8E42C0F10B0738BF54F8081C91
:102D500025FA07FC00F115004CF07F5334BFF94011
:102D6000002105FA00F043F4401340EA010243EC6D
:102D7000102BF8BD8E42A0F10B001CD254F8081C99
:102D8000D8B18540C0F1200C45F07F55A4F108076B
:102D900045F4401521FA0CFEBE4201FA00F045EA66
:102DA0000E0304D254F80C1C21FA0CF1084302461D
:102DB00043EC102BF8BD40B9014645F07F5343F476
:102DC00040130A4643EC102BF8BD05FA00F040F022
:102DD0007F53002043F440130246E9E72DE9F04316
:102DE0000F4683B0012155EC104B1646FFF750FCFF
:102DF000C5F30A588146C5F31303B8F1000F01D09B
:102E000043F48013002C019324D002A840F8084D0D
:102E1000FFF738FD002836D1DDE90023C9F814207A
:102E2000002B0CBF01210221C9F81830C9F810107D
:102E3000B8F1000F1BD109EB8103A0F232403860DA
:102E40001869FFF7FFFCC0EB41103060484603B043
:102E5000BDE8F08301A8FFF715FD019BC9F8143008
:102E600001212030C9F81010B8F1000FE3D0A8F20A
:102E7000334808EB0003C0F135003B603060484642
:102E800003B0BDE8F083DDE90013C0F1200203FACE
:102E900002F20A43C3400193C9F81420C0E700BFFF
:102EA00030B587B00C4604A90546FFF739FF204628
:102EB00005A98DED000BFFF733FFDDE90423206941
:102EC0002969D31A091A03EB41138DED020B002B6C
:102ED000DDE90001DDE902450CDD019A02EB035159
:102EE000CDE900019DED007B9DED026B87EE060BA9
:102EF00007B030BD039AC3EB033302EB0355CDE9B2
:102F00000245EFE7172808DDB7EE000BB2EE047BB1
:102F1000013820EE070BFBD17047034B03EBC000D9
:102F200090ED040B704700BFC0A5000870B4146991
:102F30004D1E02F1140303EB84016D1101358B4228
:102F400000EB85040CD2051F53F8046B45F8046FA1
:102F50009942F9D88B1A153B23F003030433184424
:102F6000844204D9002340F8043B8442FBD870BC5F
:102F7000704700BF036910B44C11A34200F1140262
:102F800010DA02EB83039A421ED253F8040C043B7E
:102F900018B115E053F8041D91B99A42FAD35DF8BF
:102FA000044B704702EB8403EDDD11F01F01EAD002
:102FB00052F8244024FA01F000FA01F18C42E2D0E8
:102FC00001205DF8044B70470020E8E738B502FBAC
:102FD00001F42146FDF744FB054618B122460021C5
:102FE000FDF7A0FA284638BD2DE9F0478E681D464A
:102FF000AE420C460B68174627D88046888910F4E5
:10300000906F31D0D1E9041606EB4606A3EB010917
:1030100006EBD6766B1C76104B44B342324684BF27
:103020001E463246430521D511464046FDF718FBA2
:10303000824678B34A462169FDF7DAF9A38923F479
:10304000906343F08003A38115E02E4618462A467C
:10305000394600F03BFCA2682368961B2B44A6600F
:1030600023600020BDE8F0873546EFE7404600F0DA
:1030700091FC824650B1A6EB09020AEB0903666196
:10308000C4F810A02360A2602E46DFE72169404605
:10309000FDF792FA0C23C8F80030A38943F04003EF
:1030A000A3814FF0FF30DDE72DE9F04F936883B047
:1030B0009046002B6CD017688D6882460C460868D5
:1030C000083742E0A38913F4906F2DD0D4E904159A
:1030D00005EB4505A0EB010B05EBD575701C6D10DC
:1030E0005844A8422A4684BF05462A465B0536D581
:1030F00011465046FDF7B4FA00283AD05A462169E5
:103100000190FDF775F9A289019B22F4906242F0CB
:103110008002A281A5EB0B0203EB0B00656123612A
:103120002060A2603546B3465A46494600F0CEFBC1
:10313000D8F80830A2682068551B58449E1BA5602B
:103140002060C8F808601EB3083757E90296AB46FE
:10315000002EF9D0AE42B5D23546B346E4E750462C
:1031600000F018FC03460028D4D121695046FDF731
:1031700023FA0C23CAF80030A389002243F040034D
:103180004FF0FF30A381C8E9012203B0BDE8F08F02
:103190000020C8F8040003B0BDE8F08F2DE9F04F1F
:1031A00014468A899FB015068946029003D50A699C
:1031B000002A00F01281059330238DF832302378F5
:1031C000904E002120220B918DF831200127002BF9
:1031D00000F09280252B254603D118E0252B00F026
:1031E000BD8015F8013F002BF8D1B5EB040B00F0C2
:1031F000838022465B4649460298FFF7F5FE013080
:103200007AD00B9B2A785B440B93002A74D000235E
:103210004FF0FF3201350693CDE908338DF85B306E
:103220001C93079205E0069A07FA03F313435546E9
:103230000693AA4605221AF8011B3046FFF7D8F973
:10324000D346831B0028EED1069BD90644BF20221B
:103250008DF85B2029781A0744BF2B228DF85B205C
:103260002A2953D0A1F13003092B00F2AB80099A2F
:1032700002E055460AF1010A9AF8001002EB8202B8
:1032800003EB4202A1F13003092BD346F1D905F13A
:10329000020A09922E2945D05B4C03222046FFF7F3
:1032A000A7F9002857D0001B069A402404FA00F022
:1032B000024306920AF101049AF8001053488DF86F
:1032C00030100622FFF794F9002859D0504B002BFC
:1032D00049D005AB00934A464E4B029806A9AFF37E
:1032E00000808046B8F1FF3F06D00B9B43440B9310
:1032F0002378002B7FF46EAFB9F80C305B0654BF17
:103300000B984FF0FF301FB0BDE8F08F059A1168A1
:103310000432002905922DDB099169782E2905F1E7
:10332000020AB9D19BF801102A2933D1059B9BF8D9
:1033300002101A6807920433002A05930BF1020069
:103340000BF1030A40DB304C834603222046FFF793
:103350004FF90028A7D15446DA46ADE7B5EB040B88
:103360003FF455AF45E7059B073323F007030833C8
:103370000593BAE7494243F0020309910693CCE76B
:1033800005AB00934A46234B029806A900F0D2F8F9
:103390008046A7E7A1F1300000220928079201D951
:1033A00017E0DA469AF8011002EB820200EB4202C3
:1033B000A1F1300009280AF1010BF2D90AF1020A41
:1033C000079269E7AB4665E74FF0FF328346079205
:1033D00062E7D3460AF1010A5EE740210393FDF755
:1033E0003FF9039BC9F80000C9F8100018B140224A
:1033F000C9F81420DFE6029A0C2313604FF0FF3067
:1034000081E700BFF8500308005103080451030886
:1034100000000000E92F00082DE9F0470C46914616
:103420000A698968DDF820808A42B8BF0A46C9F86F
:10343000002094F8431006461F4611B10132C9F826
:103440000020236899065FD5D9F800200232C9F818
:103450000020236813F0060F19461DD1E1688A1A6F
:10346000002AD8BF194617DD04F1190A002505E026
:10347000E368D9F800209B1AAB420CDD01235246C9
:1034800039463046C047013005F10105F0D14FF013
:10349000FF30BDE8F087216894F84330003318BF4F
:1034A00001238A060AD5E1185A1C302081F843000E
:1034B000224494F8451082F84310023304F1430289
:1034C00039463046C0470130E1D02368D9F8005072
:1034D000216903F00603042BD4E902201AD08A42A2
:1034E0001FDD4FF00009521A91441A34002501E003
:1034F0004D4516D00123224639463046C04701309B
:1035000005F10105F4D1C2E713F0060F0CD1D9F88B
:103510000020A3E7401B8A4220EAE079E3DC002890
:10352000E3DC0020BDE8F08794F84330003318BF97
:103530000123C3E72DE9F0430C46097E85B06E29CF
:1035400006460C9D1746984604F1430C4AD00FD806
:10355000632900F0FF8000F2BF8000294ED0582977
:1035600040F0E18084F845102268DFF844E212E080
:10357000732900F0C6807AD86F2900F0DB807029AB
:1035800040F0D180206840F0200222607823DFF8EC
:1035900024E284F845302B68191D1B682960150644
:1035A00002D4500648BF9BB2D10744BF42F020026C
:1035B0002260002B6DD1D4E9001284F84330002A38
:1035C00021F020032360A2607EDB21F02401216032
:1035D0001021002A79D1654608294ED0ACEB0503AD
:1035E00023610EE02B6822686169181D28601506AA
:1035F0001B6802D4500600F1C7801960002365469D
:103600002361CDF800803B4603AA21463046FFF7F0
:1036100003FF013020D02A46236939463046C0478F
:10362000013019D022680398E368920719D51A1A55
:10363000002A16DD04F11909002504E0E368039867
:103640001A1AAA420DDD01234A4639463046C047C0
:10365000013005F10105F1D14FF0FF3005B0BDE8B3
:10366000F0839842B8BF184605B0BDE8F0837529CD
:1036700060D0782957D1226888E72368DB07ADD569
:10368000626823699A42A9DC302305F8013C013DB8
:10369000A4E71021002284F843206268A260002A77
:1036A0002CDB206820F004002060002B91D06546C0
:1036B000B3FBF1F201FB123013461EF8002005F8AF
:1036C000012D002BF4D187E710219EF8003084F8FB
:1036D000423004F142057FE7642901D0692922D1F3
:1036E00020682B68010603F1040245D51B682A6097
:1036F000002B4BDBDFF8B8E00A21CEE7002BD6D158
:10370000E3E72B686268191D29601D6800212846BF
:10371000FEF76EFF002848D0401B60602061002348
:1037200084F843306DE7012384F84210236104F1EB
:103730004205F4E720682B6810F0800F03F10402C3
:1037400013D01B682A606F290CBF08210A21DFF8FB
:1037500060E09FE72B681A68191D0123296084F82F
:103760004220236104F14205D9E7400653BF1B689C
:103770002A601B882A60E6E7410653BF1B682A605F
:10378000B3F900302A60B3E7198037E76268A260B6
:103790002D21002A84F84310C3F10003DFF810E064
:1037A0004FF00A01BFF67EAF81E76068B6E700BF61
:1037B0000C51030820510308000000000000000025
:1037C00090F800F06DE9024520F007016FF0000C61
:1037D00010F0070491F820F040F049804FF0000409
:1037E0006FF00700D1E9002391F840F000F10800E4
:1037F00082FA4CF2A4FA8CF283FA4CF3A2FA8CF31C
:103800004BBBD1E9022382FA4CF200F10800A4FA82
:103810008CF283FA4CF3A2FA8CF3E3B9D1E90423D6
:1038200082FA4CF200F10800A4FA8CF283FA4CF30D
:10383000A2FA8CF37BB9D1E9062301F1200182FAC7
:103840004CF200F10800A4FA8CF283FA4CF3A2FACD
:103850008CF3002BC6D0002A04BF04301A4612BADB
:10386000B2FA82F2FDE8024500EBD2007047D1E9DE
:10387000002304F00305C4F100004FEAC50514F06D
:10388000040F91F840F00CFA05F562EA05021CBF3E
:1038900063EA050362464FF00004A9E710B4034C45
:1038A000D4F8E040A4465DF8044B60476400002073
:1038B00021B1FF2A04D80A700120704708467047DA
:1038C0008A2303604FF0FF30704700BF8842F0B496
:1038D0000DD98B1883420AD9841832B1224613F8C5
:1038E000014D02F8014D9942F9D1F0BC70470F2A01
:1038F00049D940EA01039B0747D1A2F110031B09F4
:1039000001F1200707EB031701F1100400F1100586
:1039100054F8106C45F8106C54F80C6C45F80C6CAD
:1039200054F8086C45F8086C54F8046C45F8046CBD
:103930001034BC4205F11005EAD1013302F00F0545
:103940001B01032D1944034421D91F1F0E462C4689
:10395000043C56F804CB47F804CF032CF8D82C1FAE
:1039600024F0030404342344214402F00302002A17
:10397000BBD0013B0A4411F8014B03F8014F9142BF
:10398000F9D1F0BC70470346F1E70346F1E72A4658
:10399000EDE700BFE1B1F8B51446E2B106460D46C9
:1039A00000F01EF8A04202D32F463846F8BD21464B
:1039B0003046FCF755FE07460028F6D02246294639
:1039C000FCF716FD30462946FCF7F6FD3846F8BDF3
:1039D0001146FCF745BEFCF7EFFD2746E5E700BFC3
:1039E00051F8043C181F002BBCBF0B58C01870477F
:1039F000044A05491368002B08BF0B4618441060A1
:103A00001846704724000024F00100201B4B4FF49F
:103A1000E0025A601A4B1B4A136002F58052136091
:103A2000194B1B6802F1674202F5DC1202F6D36201
:103A3000A2FB0323DB0C013B144A1360144B01224D
:103A40001A60144A136843F001031360124A1368A2
:103A500043F002031360114A136823F0C00343F0DC
:103A6000800313600832136843F080031360183238
:103A7000136823F470431360704700BF0010005CAC
:103A800055CEACC5B03F005CD80100201030005CC2
:103A9000F030005C0040005CE04402580004025832
:103AA0004FF06043D3F8803E13F0010F24D04FF065
:103AB0006043D3F8003E13F0010F1DD010B483B063
:103AC000002214468A420CD241F2883301934FF00F
:103AD00060431B684BB9019B013B0193019B002B89
:103AE000F5D103B05DF8044B704750F824404FF017
:103AF00060431C600132E4E7704772B6FEE70000E5
:103B000000B5CBB04C22002137A8FCF70BFD2022DA
:103B100000212FA8FCF706FDB422002102A8FCF723
:103B200001FD022002F0D6FB00230093414B9A696D
:103B300022F440429A619B6903F440430093009B46
:103B40003C4B9B6913F4005FFAD03B4A936A23F025
:103B5000030343F002039362012237924FF4803350
:103B6000389302234093419304214291C821439109
:103B7000449245934693002347934893499337A82B
:103B800000F0C4F900284ED13F232F930323309334
:103B900000233193082332934023339334934FF41B
:103BA00080623592369302212FA800F05BFD002839
:103BB0003BD1224B029302230393192204920593D3
:103BC0000693079380220892002209920A924FF4EA
:103BD0008031159120210B9194210C910D930E931E
:103BE00004230F934FF4406310934FF40073119329
:103BF000129202A800F0AEFFC8B90F4B1A6842F04B
:103C000080021A60D3F8F42042F00202C3F8F420D4
:103C1000D3F8F43003F002030193019B02F000FC9F
:103C20004BB05DF804FBFFF768FFFFF766FFFFF797
:103C300064FF00BF00480258004402580000012001
:103C400030B5A7B002F098FBFFF75AFF04F0B8FCBC
:103C5000642002F0D1FB01224FF400515E4802F0D3
:103C600054F904F035FE04F0D9FD0C215B4804F052
:103C700093F95B4BD3F8D42042F00102C3F8D4206F
:103C8000D3F8D43003F001030293029B554A23ABCF
:103C900007CA03C31A70FFF7B9FE022123A8FFF772
:103CA000FFFE06F031F9002210214F4802F02DF9F5
:103CB00006F0B0FA642002F09FFB4C4B01221A7010
:103CC00020E04B4803F029FD0446484B18700121C1
:103CD000414802F013F900902346464A202103A8E8
:103CE000FCF770FD444B0093FF230A22114603A802
:103CF00006F05FFA4FF47A7002F07EFB10213A482A
:103D000002F009F9394B1B78002BDAD104F0FEFEE2
:103D100001223A493A4805F077FF344B187080BBCE
:103D200001221021304802F0F0F8304C2378354A57
:103D3000202103A8FCF746FD2F4D0095FF230A2202
:103D4000114603A806F035FA06F0D8F803462E4AC5
:103D5000202103A8FCF736FD0095FF231E220A212F
:103D600003A806F026FA01222849294805F07EFF1B
:103D70002070E0B1002208211B4802F0C6F8FFF7CE
:103D8000BCFE00221021184802F0BFF8174B1B7828
:103D9000204A202103A8FCF715FD174B0093FF23B1
:103DA0000A22114603A806F004FAFFF7A6FE012234
:103DB00008210D4802F0A9F80C4B1B78164A202167
:103DC00003A8FCF7FFFC0C4B0093FF231E220A21E3
:103DD00003A806F0EEF9FEE7000C02586800002484
:103DE00000440258004A0308000802585C010024FD
:103DF000C40500240C4A0308ECA700086001002455
:103E000094030024484A0308784A0308F449030845
:103E100064010024A84A0308EC4A0308FEE7FEE711
:103E2000FEE7FEE7FEE770477047704708B502F00F
:103E3000D1FA08BD82B0074BD3F8F42042F0020259
:103E4000C3F8F420D3F8F43003F002030193019B8C
:103E500002B07047004402580649CB6823F4E0637F
:103E60001B041B0C000200F4E0600343024A1A43E7
:103E7000CA60704700ED00E00000FA0530B4154B51
:103E8000DB68C3F30223C3F10704042C28BF042416
:103E90001D1D062D14D9033B4FF0FF3505FA04F420
:103EA00021EA0401994005FA03F322EA03031943C6
:103EB000002807DB0901C9B2074B195430BC704711
:103EC0000023E9E700F00F000901C9B2034B1954C0
:103ED000F4E700BF00ED00E000E400E014ED00E0D6
:103EE0000138B0F1807F0AD2064B5860064AF021B3
:103EF00082F823100020986007221A607047012082
:103F0000704700BF10E000E000ED00E0002800F086
:103F10009D8238B50446036813F0010F25D09E4AF0
:103F2000136903F03803926A102B15D0182B0FD0A9
:103F30006368B3F5803F3DD0002B51D1964B1A6892
:103F400022F480321A601A6822F480221A6036E065
:103F500002F00302022AEBD18F4B1B6813F4003FDF
:103F600003D06368002B00F07382236813F0020F04
:103F700070D0894A1369926A13F0380359D0182B0C
:103F800054D0E368002B00F0928083490A6822F045
:103F9000190213430B6002F029FA05467E4B1B6899
:103FA00013F0040F7AD102F021FA401B0228F5D950
:103FB000032052E2784A136843F480331360636845
:103FC0002BB302F013FA0546734B1B6813F4003F42
:103FD000CBD102F00BFA401B6428F5D903203CE258
:103FE000B3F5A02F09D06C4B1A6822F480321A6006
:103FF0001A6822F480221A60E1E7674B1A6842F4DB
:1040000080221A601A6842F480321A60D7E702F000
:10401000EDF90546604B1B6813F4003FA5D002F094
:10402000E5F9401B6428F5D9032016E212F0030FCE
:10403000A7D1594B1B6813F0040F03D0E368002B82
:1040400000F00882544A536823F0FE43216943EA92
:1040500001635360236813F0100F52D04E4A136966
:1040600003F03803926A082B39D0182B33D0E36958
:10407000002B69D0484A136843F08003136002F0B4
:10408000B5F90546444B1B6813F4807F53D102F009
:10409000ADF9401B0228F5D90320DEE13E4A536802
:1040A00023F0FE43216943EA01635360D2E73A4AB1
:1040B000136823F00103136002F098F90546364BAC
:1040C0001B6813F0040FC5D002F090F9401B0228C2
:1040D000F5D90320C1E102F00302012AC7D12E4B1A
:1040E0001B6813F4807F04D0E369802B01D001208A
:1040F000B3E1294AD36823F07C53216A43EA016380
:10410000D360236813F0080F48D0636983B3224A51
:10411000536F43F00103536702F068F905461E4BE5
:104120005B6F13F0020F39D102F060F9401B0228D7
:10413000F5D9032091E1184AD36823F07C53216A12
:1041400043EA0163D360DCE7134A136823F080037A
:10415000136002F04BF905460F4B1B6813F4807F88
:10416000CFD002F043F9401B0228F5D9032074E1B7
:10417000094A536F23F00103536702F037F90546EC
:10418000054B5B6F13F0020F08D002F02FF9401BB4
:104190000228F5D9032060E100440258236813F097
:1041A000200F29D0A3699BB1AF4A136843F4805311
:1041B000136002F01BF90546AB4B1B6813F4005F5C
:1041C0001AD102F013F9401B0228F5D9032044E16B
:1041D000A54A136823F48053136002F007F90546DB
:1041E000A14B1B6813F4005F06D002F0FFF8401BE0
:1041F0000228F5D9032030E1236813F0040F21D100
:10420000636A002B00F02881974A126902F0380295
:10421000182A00F0EA80022B75D0934A136823F025
:104220008073136002F0E2F804468F4B1B6813F0B2
:10423000007F00F0D88002F0D9F8001B0228F4D9E2
:1042400003200AE1894A136843F48073136002F083
:10425000CDF80546854B1B6813F4807F06D102F02C
:10426000C5F8401B6428F5D90320F6E0A368012BAC
:104270000AD00BBB7C4B1A6F22F001021A671A6F2F
:1042800022F004021A6704E0774A136F43F0010337
:104290001367A36833B302F0A9F80546724B1B6F8E
:1042A00013F0020FACD102F0A1F8401B41F28833A9
:1042B0009842F3D90320D0E0052B09D06A4B1A6F3E
:1042C00022F001021A671A6F22F004021A67E0E76F
:1042D000654B1A6F42F004021A671A6F42F001022E
:1042E0001A67D6E702F082F805465F4B1B6F13F0A2
:1042F000020F85D002F07AF8401B41F288339842D1
:10430000F3D90320A9E0584A136823F0807313609F
:1043100002F06CF80546544B1B6813F0007F06D082
:1043200002F064F8401B0228F5D9032095E04E4BBB
:10433000996A4F4A0A40A16AE06A41EA00110A43B9
:104340009A62226B013AC2F30802616B0139490299
:1043500089B20A43A16B0139090401F4FE010A4341
:10436000E16B0139090601F0FE410A431A63DA6A7A
:1043700022F00102DA62596B3E4A0A40A16C42EA1D
:10438000C1025A63DA6A22F00C02216C0A43DA6233
:10439000DA6A22F00202616C0A43DA62DA6A42F4F3
:1043A0008032DA62DA6A42F40032DA62DA6A42F4BD
:1043B0008022DA62DA6A42F00102DA621A6842F0B6
:1043C00080721A6002F012F80446274B1B6813F043
:1043D000007F06D102F00AF8001B0228F5D903205D
:1043E0003BE0002039E0002037E01F4A916A106B63
:1043F000012B33D001F00303A26A934201D00120C4
:104400002BE0C1F30511E36A994201D0012024E0B9
:10441000C0F30802236B013B9A4201D001201CE04B
:10442000C0F34622636B013B9A4201D0012014E0A5
:10443000C0F30642A36B013B9A4211D1C0F3066060
:10444000E36B013B98420DD0012006E0012070474C
:10445000012002E0012000E0002038BD0120FCE73F
:104460000120FAE70020F8E700440258004802580B
:104470000CFCFFFF0700FFFF724B1B6903F03803C2
:10448000102B00F0DB80182B10D00BB16E4870475A
:104490006C4B1B6813F0200F00F0D280694B18683A
:1044A000C0F3C100694B23FA00F07047654A916A76
:1044B00001F00301906AC0F30510D36A03F0010311
:1044C000526BC2F3CC0203FB02F307EE903AF8EE14
:1044D000677A002800F0B580012966D0F9B1022979
:1044E00000F08F8007EE100AF8EE476A9FED586AD9
:1044F00086EE267A534B1B6BC3F3080306EE903A05
:10450000F8EE666A9FED536A67EE867A76EEA77AD2
:10451000F7EE006A77EEA67A27EE277A61E0494B3C
:104520001B6813F0200F23D046490A68C2F3C1026A
:10453000464BD34007EE103AF8EE476A07EE100AF2
:10454000B8EE476A86EE867A0B6BC3F3080306EE75
:10455000903AF8EE666A9FED3F6A67EE867A76EEED
:10456000A77AF7EE006A77EEA67A27EE277A38E088
:1045700007EE100AF8EE476A9FED376A86EE267A54
:10458000304B1B6BC3F3080306EE903AF8EE666AF5
:104590009FED306A67EE867A76EEA77AF7EE006ACC
:1045A00077EEA67A27EE277A1BE007EE100AF8EEE0
:1045B000476A9FED276A86EE267A224B1B6BC3F370
:1045C000080306EE903AF8EE666A9FED226A67EEFF
:1045D000867A76EEA77AF7EE006A77EEA67A27EE6D
:1045E000277A184B1B6BC3F34623013307EE903A2F
:1045F000F8EE677AC7EE276AFCEEE67A17EE900AC5
:10460000704707EE100AF8EE476A9FED146A86EECF
:10461000267A0C4B1B6BC3F3080306EE903AF8EEB8
:10462000666A9FED0C6A67EE867A76EEA77AF7EEF9
:10463000006A77EEA67A27EE277AD2E70848704715
:10464000024870470044025800093D000090D00322
:104650000024744A000000390024744C0024F44AF9
:1046600000127A00002800F0368103469C4A126846
:1046700002F00F028A420CD29948026822F00F021F
:104680000A430260026802F00F028A4201D0012050
:10469000704770B51A6812F0040F0CD01869914A6F
:1046A000926902F07002904205D98E4CA26922F004
:1046B00070021043A0611A6812F0080F0CD05869FC
:1046C000884AD26902F07002904205D9854CE269AD
:1046D00022F070021043E0611A6812F0100F0CD043
:1046E0009869804AD26902F4E062904205D97D4C13
:1046F000E26922F4E0621043E0611A6812F0200FD0
:104700000CD0D869774A126A02F07002904205D93B
:10471000744C226A22F07002104320621A6812F070
:10472000020F0CD0D8686F4A926902F00F029042D3
:1047300005D96C4CA26922F00F021043A0611C46FF
:104740000D461B6813F0010F41D0664A936923F4AC
:104750007063A1680B4393616368022B0AD0032B3B
:1047600027D0012B2CD05F4A126812F0040F06D11B
:104770000120AFE0126812F4003F00F0AE8059490A
:104780000A6922F0070213430B6101F02FFE06466F
:10479000544B1B6903F038036268B3EBC20F16D0A9
:1047A00001F024FE801B41F288339842F0D90320A7
:1047B00090E04C4A126812F0007FE0D1012089E0BD
:1047C000484A126812F4807FD9D1012082E0236820
:1047D00013F0020F0CD0E268424B9B6903F00F0309
:1047E0009A4205D23F498B6923F00F031A438A612D
:1047F0003B4B1B6803F00F03AB420CD9384A1368DC
:1048000023F00F032B431360136803F00F03AB4235
:1048100001D001205EE0236813F0040F0CD0226960
:10482000304B9B6903F070039A4205D22D498B6986
:1048300023F070031A438A61236813F0080F0CD029
:104840006269284BDB6903F070039A4205D225495F
:10485000CB6923F070031A43CA61236813F0100F69
:104860000CD0A2691F4BDB6903F4E0639A4205D2C6
:104870001C49CB6923F4E0631A43CA61236813F02F
:10488000200F0CD0E269174B1B6A03F070039A42A9
:1048900005D214490B6A23F070031A430A62FFF72A
:1048A000EBFD10498B69C3F303230F4AD35C03F07C
:1048B0001F03D8408B6903F00F03D35C03F01F0381
:1048C00020FA03F3094A1360094B1860094B186872
:1048D00001F02AFD70BD012070470120FAE700BFFA
:1048E0000020005200440258344B0308DC01002031
:1048F000D8010020D401002008B5FFF7BDFD0B4A08
:104900009369C3F303230A49CB5C03F01F0320FA26
:1049100003F3926902F00F02885C00F01F0023FA93
:1049200000F0044A1060044A136008BD00440258B5
:10493000344B0308DC010020D8010020404B9B6A67
:1049400003F00303032B79D070B50E4604463C4AAE
:10495000136823F08063136001F048FD0546384B6F
:104960001B6813F0006F06D001F040FD401B0228C9
:10497000F5D9032070BD324B9A6A22F47C3221684B
:1049800042EA01329A626268013AC2F30802A168FF
:104990000139490289B20A43E1680139090401F485
:1049A000FE010A4321690139090601F0FE410A436B
:1049B0009A63DA6A22F0C00261690A43DA62DA6A4B
:1049C00022F02002A1690A43DA62DA6A22F01002B8
:1049D000DA62D96B1B4A0A40E16942EAC102DA6332
:1049E000DA6A42F01002DA62C6B91A46DB6A43F4A8
:1049F0000023D362124A136843F08063136001F00E
:104A0000F5FC04460E4B1B6813F0006F14D101F047
:104A1000EDFC001B0228F5D90320ABE7012E05D0E1
:104A2000074AD36A43F40013D362E3E7044AD36A24
:104A300043F48013D362DDE700209BE70120704739
:104A4000004402580700FFFF404B9B6A03F003033A
:104A5000032B79D070B50E4604463C4A136823F008
:104A60008053136001F0C2FC0546384B1B6813F0FD
:104A7000005F06D001F0BAFC401B0228F5D90320E4
:104A800070BD324B9A6A22F07C72216842EA015270
:104A90009A626268013AC2F30802A16801394902C8
:104AA00089B20A43E1680139090401F4FE010A43AD
:104AB00021690139090601F0FE410A431A64DA6AE4
:104AC00022F4406261690A43DA62DA6A22F400720F
:104AD000A1690A43DA62DA6A22F48072DA62596CF6
:104AE0001B4A0A40E16942EAC1025A64DA6A42F4A6
:104AF0008072DA62C6B91A46DB6A43F48003D36275
:104B0000124A136843F08053136001F06FFC0446AF
:104B10000E4B1B6813F0005F14D101F067FC001B03
:104B20000228F5D90320ABE7012E05D0074AD36A46
:104B300043F08073D362E3E7044AD36A43F400038B
:104B4000D362DDE700209BE7012070470044025854
:104B50000700FFFFF8B50446036813F0006F2BD081
:104B6000036EB3F5801F18D007D9B3F5001F1DD011
:104B7000B3F5401F2ED1002506E05BBBA04AD36AE7
:104B800043F40033D36200259D4A136D23F4401390
:104B9000216E0B431365002610E002210430FFF75D
:104BA000CDFE0546002DEFD02E4607E00221243031
:104BB000FFF74AFF0546F5E700263546236813F45C
:104BC000807F17D0636D042B35D8DFE803F006270C
:104BD0002D0B0B0001263546F0E7894AD36A43F4D2
:104BE0000033D36255BB864A136D23F00703616D12
:104BF0000B431365236813F4806F3BD0D4F8A030C7
:104C0000B3F5800F4AD01BD833B3B3F5001F20D1C2
:104C10000021201DFFF792FE054622E00021201D05
:104C2000FFF78CFE0546DDE7002104F12400FFF7C5
:104C30000BFF0546D6E701263546DBE72E46D9E7CA
:104C4000B3F5000F0DD0B3F5200F0AD0B3F5C00FA8
:104C500007D0012635460DE0694AD36A43F4003394
:104C6000D36215BB664A936D23F46003D4F8A01099
:104C70000B439365236813F4006F32D0D4F8A4304B
:104C8000B3F1007F3AD012D8EBB1B3F1807F17D1E6
:104C90000021201DFFF752FE054619E0002104F116
:104CA0002400FFF7D1FE0546DBE72E46E2E7B3F12D
:104CB000806F0DD0B3F1A06F0AD0B3F1407F07D061
:104CC000012635460DE04E4AD36A43F40033D362E1
:104CD000DDB94B4A936D23F0E063D4F8A4100B4385
:104CE0009365236813F0007F2AD0A36C102B12D099
:104CF0000DD9202B1DD0302B12D009E0002104F15A
:104D00002400FFF7A1FE0546E2E72E46E9E73BB1A6
:104D10000126354614E03A4AD36A43F40033D3629D
:104D20006DB9374AD36C23F03003A16C0B43D364C5
:104D300006E00221201DFFF701FE0546F0E72E46A2
:104D4000236813F4805F24D0A36DB3F5005F3BD0DC
:104D500009D88BB1B3F5805F0BD10021201DFFF77F
:104D6000EDFD05460DE0B3F5405F0AD0B3F5804F89
:104D700007D0012635460CE0214AD36A43F40033BC
:104D8000D36245BB1E4A136D23F4E043A16D0B4370
:104D90001365236813F4005F35D0E36DB3F5003F6E
:104DA00027D01AD83BB1B3F5803F1FD10121201D78
:104DB000FFF7C4FD05462DBB114A136D23F4E02314
:104DC000E16D0B4313651EE0002104F12400FFF7A1
:104DD0003BFE0546D5E72E46DBE7B3F5802FEAD04C
:104DE000B3F5A02FE7D0B3F5403FE4D00126354618
:104DF00009E0012104F12400FFF726FE0546DAE769
:104E0000004402582E46236813F4804F2CD0D4F867
:104E1000A830B3F1005F1FD012D83BB1B3F1805F6F
:104E200017D10121201DFFF789FD0546DDB9944A00
:104E3000936D23F0E043D4F8A8100B43936513E07F
:104E4000B3F1804FF2D0B3F1A04FEFD0B3F1405F98
:104E5000ECD00126354607E0012104F12400FFF7DC
:104E6000F3FD0546E2E72E46236813F4004F1FD0FA
:104E7000A36EB3F1805F06D0B3F1005F11D03BB1F8
:104E80000126354614E07E4AD36A43F40033D362E8
:104E90006DB97B4A136D23F04053A16E0B4313652C
:104EA00006E00121201DFFF749FD0546F0E72E46EB
:104EB000236813F0807F1ED0636C032B17D8DFE8C4
:104EC00003F0070210076E4AD36A43F40033D3623B
:104ED00085B96B4AD36C23F00303616C0B43D36435
:104EE00009E00221201DFFF729FD0546F0E7012614
:104EF000354600E02E46236813F4800F1FD1236847
:104F000013F0010F00F09880636F282B00F290805F
:104F1000DFE803F07E8E8E8E8E8E8E8E798E8E8E54
:104F20008E8E8E8E878E8E8E8E8E8E8E7E8E8E8EB8
:104F30008E8E8E8E7E8E8E8E8E8E8E8E7E00514AC0
:104F4000136843F48073136001F050FA07464D4B29
:104F50001B6813F4807F05D101F048FAC01B642858
:104F6000F5D90325002D4AD1454B1B6FD4F8AC2051
:104F7000534013F4407F0CD0414B1A6F22F440721F
:104F8000196F41F480311967196F21F48031196765
:104F90001A67D4F8AC30B3F5807F15D08DBBD4F848
:104FA000AC3003F44072B2F5407F1ED0344A13692E
:104FB00023F47C53136132490B6FD4F8AC20C2F355
:104FC0000B0213430B679AE701F010FA07462C4BCC
:104FD0001B6F13F0020FE1D101F008FAC01B41F280
:104FE00088339842F3D90325D8E72548026922F48B
:104FF0007C52254901EA131313430361DBE72E4674
:105000007DE72E467BE70121201DFFF797FC054633
:105010008DB91B4A536D23F03803616F0B43536501
:105020000AE0012104F12400FFF70EFD0546EFE739
:105030000126354600E02E46236813F0020F26D0E5
:10504000236F052B19D8DFE803F0080311080808BF
:105050000121201DFFF772FC0546BDB9084A536DBA
:1050600023F00703216F0B43536510E0012104F186
:105070002400FFF7E9FC0546EFE70126354606E088
:105080000044025800480258CFFFFF002E46236814
:1050900013F0040F22D0D4F88C30052B1AD8DFE897
:1050A00003F00803120808080121201DFFF746FC41
:1050B000054695B9AE4A936D23F00703D4F88C10DA
:1050C0000B4393650AE0012104F12400FFF7BCFCC7
:1050D0000546EEE70126354600E02E46236813F02C
:1050E000200F2CD0D4F88830B3F1005F1FD012D835
:1050F0003BB1B3F1805F17D10021201DFFF71EFCEB
:105100000546DDB99A4A536D23F0E043D4F8881080
:105110000B43536513E0B3F1804FF2D0B3F1A04FCE
:10512000EFD0B3F1405FECD00126354607E0022115
:1051300004F12400FFF788FC0546E2E72E462368C9
:1051400013F0400F2CD0D4F89430B3F5006F1FD07B
:1051500012D83BB1B3F5806F17D10021201DFFF7A6
:10516000EDFB0546DDB9824A936D23F4E053D4F894
:1051700094100B43936513E0B3F5805FF2D0B3F561
:10518000A05FEFD0B3F5406FECD00126354607E0C5
:10519000022104F12400FFF757FC0546E2E72E4602
:1051A000236813F0800F2CD0D4F89830B3F5804FDB
:1051B0001FD012D83BB1B3F5005F17D10021201DDD
:1051C000FFF7BCFB0546DDB9694A936D23F46043E4
:1051D000D4F898100B43936513E0B3F5004FF2D069
:1051E000B3F5204FEFD0B3F5C04FECD001263546D4
:1051F00007E0022104F12400FFF726FC0546E2E760
:105200002E46236813F0080F0AD0E36FB3F5805FD2
:1052100027D0574A536D23F44053E16F0B43536536
:10522000236813F0100F0CD0D4F89030B3F5807FC2
:1052300020D04F4A936D23F44073D4F890100B4361
:105240009365236813F4002F34D0D4F89C30B3F561
:10525000803F27D0B3F5003F1AD0A3B101263546D1
:1052600028E0022104F12400FFF7EEFB0028D0D053
:105270000126CEE7022104F12400FFF7E5FB002818
:10528000D7D00126D5E70021201DFFF757FB0546A3
:105290007DB9374A936D23F44033D4F89C100B4307
:1052A000936507E0022104F12400FFF7CDFB0546DA
:1052B000EEE72E46236813F4802F24D0D4F88030F4
:1052C000B3F5001F17D0B3F5401F0AD0B3F5801F08
:1052D00002D00126354616E0254AD36A43F400334E
:1052E000D3627DB9224A536D23F44013D4F8801061
:1052F0000B43536507E0012104F12400FFF7A4FBF1
:105300000546EEE72E46236813F4803F14D0E36C85
:105310002BB1B3F5803F23D0012635460CE0144A6B
:10532000D36A43F40033D36205BB114AD36C23F430
:105330008033E16C0B43D364236813F0005F19D111
:10534000236813F4003F2FD0A36FB3F5807F1DD0E7
:1053500019D9B3F5007F1ED0B3F5407F14D11AE000
:105360000221201DFFF7EAFA0546DDE72E46E3E7B6
:1053700000440258022104F12400FFF765FB0028D5
:10538000DED00126DCE733B101260DE0214AD36AE5
:1053900043F40033D362002D31D11E4A536D23F400
:1053A0004073A16F0B435365236813F4801F06D02D
:1053B000184A136D23F00043E16E0B431365236815
:1053C00013F4001F06D0134A136D23F08073616E2F
:1053D0000B431365236813F0804F09D00D4B1A69F6
:1053E00022F400421A611A69D4F8B0100A431A6113
:1053F0002368002B05DB06B101263046F8BD2E469A
:10540000D2E7044AD36C23F04053216D0B43D3649D
:10541000F1E700BF0044025808B5FFF76DFA054BED
:105420001B6AC3F30213044AD35C03F01F03D84082
:1054300008BD00BF00440258344B030810B478493B
:105440008C6A8A6AC2F30532CB6AC3F30013C96B54
:10545000C1F3CC0103FB01F3002A00F0DB8004F070
:10546000030407EE903AF8EE677A012C66D0FCB19F
:10547000022C00F0B28007EE102AB8EE477A9FEDBA
:10548000696AC6EE076A664B9B6BC3F3080307EEB7
:10549000103AB8EE477A9FED646A67EE867A77EE47
:1054A000277AB7EE007A77EE877A66EEA76A61E030
:1054B0005B4B1B6813F0200F23D0594C2168C1F3BC
:1054C000C1015A4BCB4007EE103AB8EE477A06EED0
:1054D000902AB8EE666AC7EE066AA36BC3F30803A8
:1054E00007EE103AB8EE477A9FED4F6A67EE867A7C
:1054F00077EE277AB7EE007A77EE877A66EEA76ABC
:1055000038E007EE102AB8EE477A9FED496AC6EEFA
:10551000076A434B9B6BC3F3080307EE103AB8EEE0
:10552000477A9FED416A67EE867A77EE277AB7EE83
:10553000007A77EE877A66EEA76A1BE007EE102AFC
:10554000B8EE477A9FED376AC6EE076A344B9B6B1D
:10555000C3F3080307EE103AB8EE477A9FED326ABC
:1055600067EE867A77EE277AB7EE007A77EE877A5B
:1055700066EEA76A2A4A936BC3F3462307EE103AF6
:10558000B8EE477AB7EE006A37EE067AC6EE877A4B
:10559000FCEEE77AC0ED007A936BC3F3064307EEA7
:1055A000103AB8EE477A37EE067AC6EE877AFCEE06
:1055B000E77AC0ED017A936BC3F3066307EE903A86
:1055C000F8EE677A77EE867A86EEA77ABCEEC77A2F
:1055D00080ED027A5DF8044B704707EE102AB8EEB2
:1055E000477A9FED146AC6EE076A0D4B9B6BC3F3B7
:1055F000080307EE103AB8EE477A9FED0B6A67EEA4
:10560000867A77EE277AB7EE007A77EE877A66EEBB
:10561000A76AAFE70023036043608360DAE700BF57
:10562000004402580024744A000000390090D0035E
:105630000024744C0024F44A10B478498C6A8A6AB5
:10564000C2F30552CB6AC3F30023496CC1F3CC010A
:1056500003FB01F3002A00F0DB8004F0030407EEF3
:10566000903AF8EE677A012C66D0FCB1022C00F07B
:10567000B28007EE102AB8EE477A9FED696AC6EE4F
:10568000076A664B1B6CC3F3080307EE103AB8EECB
:10569000477A9FED646A67EE867A77EE277AB7EEEF
:1056A000007A77EE877A66EEA76A61E05B4B1B684B
:1056B00013F0200F23D0594C2168C1F3C1015A4B7C
:1056C000CB4007EE103AB8EE477A06EE902AB8EED5
:1056D000666AC7EE066A236CC3F3080307EE103A46
:1056E000B8EE477A9FED4F6A67EE867A77EE277AB3
:1056F000B7EE007A77EE877A66EEA76A38E007EEB3
:10570000102AB8EE477A9FED496AC6EE076A434B06
:105710001B6CC3F3080307EE103AB8EE477A9FED0F
:10572000416A67EE867A77EE277AB7EE007A77EEEF
:10573000877A66EEA76A1BE007EE102AB8EE477A72
:105740009FED376AC6EE076A344B1B6CC3F3080340
:1057500007EE103AB8EE477A9FED326A67EE867A26
:1057600077EE277AB7EE007A77EE877A66EEA76A49
:105770002A4A136CC3F3462307EE103AB8EE477A71
:10578000B7EE006A37EE067AC6EE877AFCEEE77A65
:10579000C0ED007A136CC3F3064307EE103AB8EE7F
:1057A000477A37EE067AC6EE877AFCEEE77AC0EDE6
:1057B000017A136CC3F3066307EE903AF8EE677A4A
:1057C00077EE867A86EEA77ABCEEC77A80ED027A0B
:1057D0005DF8044B704707EE102AB8EE477A9FED4C
:1057E000146AC6EE076A0D4B1B6CC3F3080307EE81
:1057F000103AB8EE477A9FED0B6A67EE867A77EE3D
:10580000277AB7EE007A77EE877A66EEA76AAFE777
:105810000023036043608360DAE700BF004402585E
:105820000024744A000000390090D0030024744C16
:105830000024F44A10B478498C6A8A6AC2F30512CB
:10584000CB6A03F00103496BC1F3CC0103FB01F305
:10585000002A00F0DB8004F0030407EE903AF8EE33
:10586000677A012C66D0FCB1022C00F0B28007EE02
:10587000102AB8EE477A9FED696AC6EE076A664B52
:105880001B6BC3F3080307EE103AB8EE477A9FED9F
:10589000646A67EE867A77EE277AB7EE007A77EE5B
:1058A000877A66EEA76A61E05B4B1B6813F0200FF6
:1058B00023D0594C2168C1F3C1015A4BCB4007EEAC
:1058C000103AB8EE477A06EE902AB8EE666AC7EE4E
:1058D000066A236BC3F3080307EE103AB8EE477A63
:1058E0009FED4F6A67EE867A77EE277AB7EE007AF9
:1058F00077EE877A66EEA76A38E007EE102AB8EEF0
:10590000477A9FED496AC6EE076A434B1B6BC3F3A8
:10591000080307EE103AB8EE477A9FED416A67EE4A
:10592000867A77EE277AB7EE007A77EE877A66EE98
:10593000A76A1BE007EE102AB8EE477A9FED376A98
:10594000C6EE076A344B1B6BC3F3080307EE103A2D
:10595000B8EE477A9FED326A67EE867A77EE277A5D
:10596000B7EE007A77EE877A66EEA76A2A4A136B5B
:10597000C3F3462307EE103AB8EE477AB7EE006A53
:1059800037EE067AC6EE877AFCEEE77AC0ED007A4B
:10599000136BC3F3064307EE103AB8EE477A37EEBF
:1059A000067AC6EE877AFCEEE77AC0ED017A136BD1
:1059B000C3F3066307EE903AF8EE677A77EE867ADD
:1059C00086EEA77ABCEEC77A80ED027A5DF8044BCA
:1059D000704707EE102AB8EE477A9FED146AC6EEBC
:1059E000076A0D4B1B6BC3F3080307EE103AB8EEC2
:1059F000477A9FED0B6A67EE867A77EE277AB7EEE5
:105A0000007A77EE877A66EEA76AAFE70023036035
:105A100043608360DAE700BF004402580024744A00
:105A2000000000390090D0030024744C0024F44A94
:105A300000B58BB0B0F5807F17D0B0F5806F44D043
:105A4000B0F5006F77D0B0F5805F00F0AA80B0F5B8
:105A5000002F00F0DC80B0F5803F00F0FE80B0F554
:105A6000804F00F00C8100200CE0A34B1B6D03F075
:105A70000703042B00F22B81DFE803F0070C11036E
:105A800016009E480BB05DF804FB07A8FFF7D2FE96
:105A90000898F7E704A8FFF7D1FC0498F2E701A8FB
:105AA000FFF7CAFD0198EDE7934BDB6C13F0405311
:105AB00000F00F81B3F1805F00F00D81B3F1005F62
:105AC00001D00020DEE78E48DCE78B4B9B6D03F4B2
:105AD0006003B3F5800F27D009D803B3B3F5001FD7
:105AE00040F0FB8004A8FFF7A9FC0498CAE7B3F5CF
:105AF000C00F12D0B3F5000F40F0EF807E4BDB6C8F
:105B000013F0405300F0EB80B3F1805F00F0E980C8
